{
	"Inheritance/ERC20WithFee.sol": {
		"ERC20WithFee": {
			"abi": [
				{
					"inputs": [
						{
							"internalType": "address",
							"name": "_owner",
							"type": "address"
						},
						{
							"internalType": "string",
							"name": "_name",
							"type": "string"
						},
						{
							"internalType": "string",
							"name": "_symbol",
							"type": "string"
						},
						{
							"internalType": "uint8",
							"name": "_decimals",
							"type": "uint8"
						},
						{
							"internalType": "address",
							"name": "_feeCollector",
							"type": "address"
						}
					],
					"stateMutability": "nonpayable",
					"type": "constructor"
				},
				{
					"anonymous": false,
					"inputs": [
						{
							"indexed": true,
							"internalType": "address",
							"name": "owner",
							"type": "address"
						},
						{
							"indexed": true,
							"internalType": "address",
							"name": "spender",
							"type": "address"
						},
						{
							"indexed": false,
							"internalType": "uint256",
							"name": "value",
							"type": "uint256"
						}
					],
					"name": "Approval",
					"type": "event"
				},
				{
					"anonymous": false,
					"inputs": [
						{
							"indexed": true,
							"internalType": "address",
							"name": "from",
							"type": "address"
						},
						{
							"indexed": true,
							"internalType": "address",
							"name": "to",
							"type": "address"
						},
						{
							"indexed": false,
							"internalType": "uint256",
							"name": "value",
							"type": "uint256"
						}
					],
					"name": "Transfer",
					"type": "event"
				},
				{
					"inputs": [
						{
							"internalType": "address",
							"name": "",
							"type": "address"
						},
						{
							"internalType": "address",
							"name": "",
							"type": "address"
						}
					],
					"name": "allowance",
					"outputs": [
						{
							"internalType": "uint256",
							"name": "",
							"type": "uint256"
						}
					],
					"stateMutability": "view",
					"type": "function"
				},
				{
					"inputs": [
						{
							"internalType": "address",
							"name": "spender",
							"type": "address"
						},
						{
							"internalType": "uint256",
							"name": "value",
							"type": "uint256"
						}
					],
					"name": "approve",
					"outputs": [
						{
							"internalType": "bool",
							"name": "",
							"type": "bool"
						}
					],
					"stateMutability": "nonpayable",
					"type": "function"
				},
				{
					"inputs": [
						{
							"internalType": "address",
							"name": "",
							"type": "address"
						}
					],
					"name": "balanceOf",
					"outputs": [
						{
							"internalType": "uint256",
							"name": "",
							"type": "uint256"
						}
					],
					"stateMutability": "view",
					"type": "function"
				},
				{
					"inputs": [
						{
							"internalType": "address",
							"name": "from",
							"type": "address"
						},
						{
							"internalType": "uint256",
							"name": "value",
							"type": "uint256"
						}
					],
					"name": "burn",
					"outputs": [],
					"stateMutability": "nonpayable",
					"type": "function"
				},
				{
					"inputs": [],
					"name": "decimals",
					"outputs": [
						{
							"internalType": "uint8",
							"name": "",
							"type": "uint8"
						}
					],
					"stateMutability": "view",
					"type": "function"
				},
				{
					"inputs": [],
					"name": "feeCollector",
					"outputs": [
						{
							"internalType": "address",
							"name": "",
							"type": "address"
						}
					],
					"stateMutability": "view",
					"type": "function"
				},
				{
					"inputs": [
						{
							"internalType": "address",
							"name": "to",
							"type": "address"
						},
						{
							"internalType": "uint256",
							"name": "value",
							"type": "uint256"
						}
					],
					"name": "mint",
					"outputs": [],
					"stateMutability": "nonpayable",
					"type": "function"
				},
				{
					"inputs": [],
					"name": "name",
					"outputs": [
						{
							"internalType": "string",
							"name": "",
							"type": "string"
						}
					],
					"stateMutability": "view",
					"type": "function"
				},
				{
					"inputs": [],
					"name": "owner",
					"outputs": [
						{
							"internalType": "address",
							"name": "",
							"type": "address"
						}
					],
					"stateMutability": "view",
					"type": "function"
				},
				{
					"inputs": [],
					"name": "symbol",
					"outputs": [
						{
							"internalType": "string",
							"name": "",
							"type": "string"
						}
					],
					"stateMutability": "view",
					"type": "function"
				},
				{
					"inputs": [],
					"name": "totalSupply",
					"outputs": [
						{
							"internalType": "uint256",
							"name": "",
							"type": "uint256"
						}
					],
					"stateMutability": "view",
					"type": "function"
				},
				{
					"inputs": [
						{
							"internalType": "address",
							"name": "to",
							"type": "address"
						},
						{
							"internalType": "uint256",
							"name": "value",
							"type": "uint256"
						}
					],
					"name": "transfer",
					"outputs": [
						{
							"internalType": "bool",
							"name": "success",
							"type": "bool"
						}
					],
					"stateMutability": "nonpayable",
					"type": "function"
				},
				{
					"inputs": [
						{
							"internalType": "address",
							"name": "from",
							"type": "address"
						},
						{
							"internalType": "address",
							"name": "to",
							"type": "address"
						},
						{
							"internalType": "uint256",
							"name": "value",
							"type": "uint256"
						}
					],
					"name": "transferFrom",
					"outputs": [
						{
							"internalType": "bool",
							"name": "",
							"type": "bool"
						}
					],
					"stateMutability": "nonpayable",
					"type": "function"
				}
			],
			"devdoc": {
				"kind": "dev",
				"methods": {},
				"version": 1
			},
			"evm": {
				"assembly": "    /* \"Inheritance/ERC20WithFee.sol\":186:1761  contract ERC20WithFee is ERC20 {     // Child Contract... */\n  mstore(0x40, 0xa0)\n    /* \"Inheritance/ERC20WithFee.sol\":393:904  constructor(               // constructor must be built by using the same 4 arguments in the base ERC20.sol contract (parent contract)... */\n  callvalue\n  dup1\n  iszero\n  tag_1\n  jumpi\n  0x00\n  dup1\n  revert\ntag_1:\n  pop\n  mload(0x40)\n  sub(codesize, bytecodeSize)\n  dup1\n  bytecodeSize\n  dup4\n  codecopy\n  dup2\n  dup2\n  add\n  0x40\n  mstore\n  dup2\n  add\n  swap1\n  tag_2\n  swap2\n  swap1\n  tag_3\n  jump\t// in\ntag_2:\n    /* \"Inheritance/ERC20WithFee.sol\":824:830  _owner */\n  dup5\n    /* \"Inheritance/ERC20WithFee.sol\":832:837  _name */\n  dup5\n    /* \"Inheritance/ERC20WithFee.sol\":839:846  _symbol */\n  dup5\n    /* \"Inheritance/ERC20WithFee.sol\":848:857  _decimals */\n  dup5\n    /* \"Inheritance/ERC20.sol\":1184:1189  _name */\n  dup3\n    /* \"Inheritance/ERC20.sol\":1177:1181  name */\n  0x00\n    /* \"Inheritance/ERC20.sol\":1177:1189  name = _name */\n  swap1\n  dup2\n  tag_7\n  swap2\n  swap1\n  tag_8\n  jump\t// in\ntag_7:\n  pop\n    /* \"Inheritance/ERC20.sol\":1208:1215  _symbol */\n  dup2\n    /* \"Inheritance/ERC20.sol\":1199:1205  symbol */\n  0x01\n    /* \"Inheritance/ERC20.sol\":1199:1215  symbol = _symbol */\n  swap1\n  dup2\n  tag_9\n  swap2\n  swap1\n  tag_8\n  jump\t// in\ntag_9:\n  pop\n    /* \"Inheritance/ERC20.sol\":1236:1245  _decimals */\n  dup1\n    /* \"Inheritance/ERC20.sol\":1225:1245  decimals = _decimals */\n  0xff\n  and\n  0x80\n  dup2\n  0xff\n  and\n  dup2\n  mstore\n  pop\n  pop\n    /* \"Inheritance/ERC20.sol\":1263:1269  _owner */\n  dup4\n    /* \"Inheritance/ERC20.sol\":1255:1260  owner */\n  0x03\n  0x00\n    /* \"Inheritance/ERC20.sol\":1255:1269  owner = _owner */\n  0x0100\n  exp\n  dup2\n  sload\n  dup2\n  0xffffffffffffffffffffffffffffffffffffffff\n  mul\n  not\n  and\n  swap1\n  dup4\n  0xffffffffffffffffffffffffffffffffffffffff\n  and\n  mul\n  or\n  swap1\n  sstore\n  pop\n    /* \"Inheritance/ERC20.sol\":1079:1276  constructor(address _owner, string memory _name, string memory _symbol, uint8 _decimals){... */\n  pop\n  pop\n  pop\n  pop\n    /* \"Inheritance/ERC20WithFee.sol\":884:897  _feeCollector */\n  dup1\n    /* \"Inheritance/ERC20WithFee.sol\":869:881  feeCollector */\n  0x06\n  0x00\n    /* \"Inheritance/ERC20WithFee.sol\":869:897  feeCollector = _feeCollector */\n  0x0100\n  exp\n  dup2\n  sload\n  dup2\n  0xffffffffffffffffffffffffffffffffffffffff\n  mul\n  not\n  and\n  swap1\n  dup4\n  0xffffffffffffffffffffffffffffffffffffffff\n  and\n  mul\n  or\n  swap1\n  sstore\n  pop\n    /* \"Inheritance/ERC20WithFee.sol\":393:904  constructor(               // constructor must be built by using the same 4 arguments in the base ERC20.sol contract (parent contract)... */\n  pop\n  pop\n  pop\n  pop\n  pop\n    /* \"Inheritance/ERC20WithFee.sol\":186:1761  contract ERC20WithFee is ERC20 {     // Child Contract... */\n  jump(tag_11)\n    /* \"#utility.yul\":7:82   */\ntag_12:\n    /* \"#utility.yul\":40:46   */\n  0x00\n    /* \"#utility.yul\":73:75   */\n  0x40\n    /* \"#utility.yul\":67:76   */\n  mload\n    /* \"#utility.yul\":57:76   */\n  swap1\n  pop\n    /* \"#utility.yul\":7:82   */\n  swap1\n  jump\t// out\n    /* \"#utility.yul\":88:205   */\ntag_13:\n    /* \"#utility.yul\":197:198   */\n  0x00\n    /* \"#utility.yul\":194:195   */\n  dup1\n    /* \"#utility.yul\":187:199   */\n  revert\n    /* \"#utility.yul\":211:328   */\ntag_14:\n    /* \"#utility.yul\":320:321   */\n  0x00\n    /* \"#utility.yul\":317:318   */\n  dup1\n    /* \"#utility.yul\":310:322   */\n  revert\n    /* \"#utility.yul\":334:460   */\ntag_15:\n    /* \"#utility.yul\":371:378   */\n  0x00\n    /* \"#utility.yul\":411:453   */\n  0xffffffffffffffffffffffffffffffffffffffff\n    /* \"#utility.yul\":404:409   */\n  dup3\n    /* \"#utility.yul\":400:454   */\n  and\n    /* \"#utility.yul\":389:454   */\n  swap1\n  pop\n    /* \"#utility.yul\":334:460   */\n  swap2\n  swap1\n  pop\n  jump\t// out\n    /* \"#utility.yul\":466:562   */\ntag_16:\n    /* \"#utility.yul\":503:510   */\n  0x00\n    /* \"#utility.yul\":532:556   */\n  tag_57\n    /* \"#utility.yul\":550:555   */\n  dup3\n    /* \"#utility.yul\":532:556   */\n  tag_15\n  jump\t// in\ntag_57:\n    /* \"#utility.yul\":521:556   */\n  swap1\n  pop\n    /* \"#utility.yul\":466:562   */\n  swap2\n  swap1\n  pop\n  jump\t// out\n    /* \"#utility.yul\":568:690   */\ntag_17:\n    /* \"#utility.yul\":641:665   */\n  tag_59\n    /* \"#utility.yul\":659:664   */\n  dup2\n    /* \"#utility.yul\":641:665   */\n  tag_16\n  jump\t// in\ntag_59:\n    /* \"#utility.yul\":634:639   */\n  dup2\n    /* \"#utility.yul\":631:666   */\n  eq\n    /* \"#utility.yul\":621:684   */\n  tag_60\n  jumpi\n    /* \"#utility.yul\":680:681   */\n  0x00\n    /* \"#utility.yul\":677:678   */\n  dup1\n    /* \"#utility.yul\":670:682   */\n  revert\n    /* \"#utility.yul\":621:684   */\ntag_60:\n    /* \"#utility.yul\":568:690   */\n  pop\n  jump\t// out\n    /* \"#utility.yul\":696:839   */\ntag_18:\n    /* \"#utility.yul\":753:758   */\n  0x00\n    /* \"#utility.yul\":784:790   */\n  dup2\n    /* \"#utility.yul\":778:791   */\n  mload\n    /* \"#utility.yul\":769:791   */\n  swap1\n  pop\n    /* \"#utility.yul\":800:833   */\n  tag_62\n    /* \"#utility.yul\":827:832   */\n  dup2\n    /* \"#utility.yul\":800:833   */\n  tag_17\n  jump\t// in\ntag_62:\n    /* \"#utility.yul\":696:839   */\n  swap3\n  swap2\n  pop\n  pop\n  jump\t// out\n    /* \"#utility.yul\":845:962   */\ntag_19:\n    /* \"#utility.yul\":954:955   */\n  0x00\n    /* \"#utility.yul\":951:952   */\n  dup1\n    /* \"#utility.yul\":944:956   */\n  revert\n    /* \"#utility.yul\":968:1085   */\ntag_20:\n    /* \"#utility.yul\":1077:1078   */\n  0x00\n    /* \"#utility.yul\":1074:1075   */\n  dup1\n    /* \"#utility.yul\":1067:1079   */\n  revert\n    /* \"#utility.yul\":1091:1193   */\ntag_21:\n    /* \"#utility.yul\":1132:1138   */\n  0x00\n    /* \"#utility.yul\":1183:1185   */\n  0x1f\n    /* \"#utility.yul\":1179:1186   */\n  not\n    /* \"#utility.yul\":1174:1176   */\n  0x1f\n    /* \"#utility.yul\":1167:1172   */\n  dup4\n    /* \"#utility.yul\":1163:1177   */\n  add\n    /* \"#utility.yul\":1159:1187   */\n  and\n    /* \"#utility.yul\":1149:1187   */\n  swap1\n  pop\n    /* \"#utility.yul\":1091:1193   */\n  swap2\n  swap1\n  pop\n  jump\t// out\n    /* \"#utility.yul\":1199:1379   */\ntag_22:\n    /* \"#utility.yul\":1247:1324   */\n  0x4e487b7100000000000000000000000000000000000000000000000000000000\n    /* \"#utility.yul\":1244:1245   */\n  0x00\n    /* \"#utility.yul\":1237:1325   */\n  mstore\n    /* \"#utility.yul\":1344:1348   */\n  0x41\n    /* \"#utility.yul\":1341:1342   */\n  0x04\n    /* \"#utility.yul\":1334:1349   */\n  mstore\n    /* \"#utility.yul\":1368:1372   */\n  0x24\n    /* \"#utility.yul\":1365:1366   */\n  0x00\n    /* \"#utility.yul\":1358:1373   */\n  revert\n    /* \"#utility.yul\":1385:1666   */\ntag_23:\n    /* \"#utility.yul\":1468:1495   */\n  tag_68\n    /* \"#utility.yul\":1490:1494   */\n  dup3\n    /* \"#utility.yul\":1468:1495   */\n  tag_21\n  jump\t// in\ntag_68:\n    /* \"#utility.yul\":1460:1466   */\n  dup2\n    /* \"#utility.yul\":1456:1496   */\n  add\n    /* \"#utility.yul\":1598:1604   */\n  dup2\n    /* \"#utility.yul\":1586:1596   */\n  dup2\n    /* \"#utility.yul\":1583:1605   */\n  lt\n    /* \"#utility.yul\":1562:1580   */\n  0xffffffffffffffff\n    /* \"#utility.yul\":1550:1560   */\n  dup3\n    /* \"#utility.yul\":1547:1581   */\n  gt\n    /* \"#utility.yul\":1544:1606   */\n  or\n    /* \"#utility.yul\":1541:1629   */\n  iszero\n  tag_69\n  jumpi\n    /* \"#utility.yul\":1609:1627   */\n  tag_70\n  tag_22\n  jump\t// in\ntag_70:\n    /* \"#utility.yul\":1541:1629   */\ntag_69:\n    /* \"#utility.yul\":1649:1659   */\n  dup1\n    /* \"#utility.yul\":1645:1647   */\n  0x40\n    /* \"#utility.yul\":1638:1660   */\n  mstore\n    /* \"#utility.yul\":1428:1666   */\n  pop\n    /* \"#utility.yul\":1385:1666   */\n  pop\n  pop\n  jump\t// out\n    /* \"#utility.yul\":1672:1801   */\ntag_24:\n    /* \"#utility.yul\":1706:1712   */\n  0x00\n    /* \"#utility.yul\":1733:1753   */\n  tag_72\n  tag_12\n  jump\t// in\ntag_72:\n    /* \"#utility.yul\":1723:1753   */\n  swap1\n  pop\n    /* \"#utility.yul\":1762:1795   */\n  tag_73\n    /* \"#utility.yul\":1790:1794   */\n  dup3\n    /* \"#utility.yul\":1782:1788   */\n  dup3\n    /* \"#utility.yul\":1762:1795   */\n  tag_23\n  jump\t// in\ntag_73:\n    /* \"#utility.yul\":1672:1801   */\n  swap2\n  swap1\n  pop\n  jump\t// out\n    /* \"#utility.yul\":1807:2115   */\ntag_25:\n    /* \"#utility.yul\":1869:1873   */\n  0x00\n    /* \"#utility.yul\":1959:1977   */\n  0xffffffffffffffff\n    /* \"#utility.yul\":1951:1957   */\n  dup3\n    /* \"#utility.yul\":1948:1978   */\n  gt\n    /* \"#utility.yul\":1945:2001   */\n  iszero\n  tag_75\n  jumpi\n    /* \"#utility.yul\":1981:1999   */\n  tag_76\n  tag_22\n  jump\t// in\ntag_76:\n    /* \"#utility.yul\":1945:2001   */\ntag_75:\n    /* \"#utility.yul\":2019:2048   */\n  tag_77\n    /* \"#utility.yul\":2041:2047   */\n  dup3\n    /* \"#utility.yul\":2019:2048   */\n  tag_21\n  jump\t// in\ntag_77:\n    /* \"#utility.yul\":2011:2048   */\n  swap1\n  pop\n    /* \"#utility.yul\":2103:2107   */\n  0x20\n    /* \"#utility.yul\":2097:2101   */\n  dup2\n    /* \"#utility.yul\":2093:2108   */\n  add\n    /* \"#utility.yul\":2085:2108   */\n  swap1\n  pop\n    /* \"#utility.yul\":1807:2115   */\n  swap2\n  swap1\n  pop\n  jump\t// out\n    /* \"#utility.yul\":2121:2260   */\ntag_26:\n    /* \"#utility.yul\":2210:2216   */\n  dup3\n    /* \"#utility.yul\":2205:2208   */\n  dup2\n    /* \"#utility.yul\":2200:2203   */\n  dup4\n    /* \"#utility.yul\":2194:2217   */\n  mcopy\n    /* \"#utility.yul\":2251:2252   */\n  0x00\n    /* \"#utility.yul\":2242:2248   */\n  dup4\n    /* \"#utility.yul\":2237:2240   */\n  dup4\n    /* \"#utility.yul\":2233:2249   */\n  add\n    /* \"#utility.yul\":2226:2253   */\n  mstore\n    /* \"#utility.yul\":2121:2260   */\n  pop\n  pop\n  pop\n  jump\t// out\n    /* \"#utility.yul\":2266:2700   */\ntag_27:\n    /* \"#utility.yul\":2355:2360   */\n  0x00\n    /* \"#utility.yul\":2380:2446   */\n  tag_80\n    /* \"#utility.yul\":2396:2445   */\n  tag_81\n    /* \"#utility.yul\":2438:2444   */\n  dup5\n    /* \"#utility.yul\":2396:2445   */\n  tag_25\n  jump\t// in\ntag_81:\n    /* \"#utility.yul\":2380:2446   */\n  tag_24\n  jump\t// in\ntag_80:\n    /* \"#utility.yul\":2371:2446   */\n  swap1\n  pop\n    /* \"#utility.yul\":2469:2475   */\n  dup3\n    /* \"#utility.yul\":2462:2467   */\n  dup2\n    /* \"#utility.yul\":2455:2476   */\n  mstore\n    /* \"#utility.yul\":2507:2511   */\n  0x20\n    /* \"#utility.yul\":2500:2505   */\n  dup2\n    /* \"#utility.yul\":2496:2512   */\n  add\n    /* \"#utility.yul\":2545:2548   */\n  dup5\n    /* \"#utility.yul\":2536:2542   */\n  dup5\n    /* \"#utility.yul\":2531:2534   */\n  dup5\n    /* \"#utility.yul\":2527:2543   */\n  add\n    /* \"#utility.yul\":2524:2549   */\n  gt\n    /* \"#utility.yul\":2521:2633   */\n  iszero\n  tag_82\n  jumpi\n    /* \"#utility.yul\":2552:2631   */\n  tag_83\n  tag_20\n  jump\t// in\ntag_83:\n    /* \"#utility.yul\":2521:2633   */\ntag_82:\n    /* \"#utility.yul\":2642:2694   */\n  tag_84\n    /* \"#utility.yul\":2687:2693   */\n  dup5\n    /* \"#utility.yul\":2682:2685   */\n  dup3\n    /* \"#utility.yul\":2677:2680   */\n  dup6\n    /* \"#utility.yul\":2642:2694   */\n  tag_26\n  jump\t// in\ntag_84:\n    /* \"#utility.yul\":2361:2700   */\n  pop\n    /* \"#utility.yul\":2266:2700   */\n  swap4\n  swap3\n  pop\n  pop\n  pop\n  jump\t// out\n    /* \"#utility.yul\":2720:3075   */\ntag_28:\n    /* \"#utility.yul\":2787:2792   */\n  0x00\n    /* \"#utility.yul\":2836:2839   */\n  dup3\n    /* \"#utility.yul\":2829:2833   */\n  0x1f\n    /* \"#utility.yul\":2821:2827   */\n  dup4\n    /* \"#utility.yul\":2817:2834   */\n  add\n    /* \"#utility.yul\":2813:2840   */\n  slt\n    /* \"#utility.yul\":2803:2925   */\n  tag_86\n  jumpi\n    /* \"#utility.yul\":2844:2923   */\n  tag_87\n  tag_19\n  jump\t// in\ntag_87:\n    /* \"#utility.yul\":2803:2925   */\ntag_86:\n    /* \"#utility.yul\":2954:2960   */\n  dup2\n    /* \"#utility.yul\":2948:2961   */\n  mload\n    /* \"#utility.yul\":2979:3069   */\n  tag_88\n    /* \"#utility.yul\":3065:3068   */\n  dup5\n    /* \"#utility.yul\":3057:3063   */\n  dup3\n    /* \"#utility.yul\":3050:3054   */\n  0x20\n    /* \"#utility.yul\":3042:3048   */\n  dup7\n    /* \"#utility.yul\":3038:3055   */\n  add\n    /* \"#utility.yul\":2979:3069   */\n  tag_27\n  jump\t// in\ntag_88:\n    /* \"#utility.yul\":2970:3069   */\n  swap2\n  pop\n    /* \"#utility.yul\":2793:3075   */\n  pop\n    /* \"#utility.yul\":2720:3075   */\n  swap3\n  swap2\n  pop\n  pop\n  jump\t// out\n    /* \"#utility.yul\":3081:3167   */\ntag_29:\n    /* \"#utility.yul\":3116:3123   */\n  0x00\n    /* \"#utility.yul\":3156:3160   */\n  0xff\n    /* \"#utility.yul\":3149:3154   */\n  dup3\n    /* \"#utility.yul\":3145:3161   */\n  and\n    /* \"#utility.yul\":3134:3161   */\n  swap1\n  pop\n    /* \"#utility.yul\":3081:3167   */\n  swap2\n  swap1\n  pop\n  jump\t// out\n    /* \"#utility.yul\":3173:3291   */\ntag_30:\n    /* \"#utility.yul\":3244:3266   */\n  tag_91\n    /* \"#utility.yul\":3260:3265   */\n  dup2\n    /* \"#utility.yul\":3244:3266   */\n  tag_29\n  jump\t// in\ntag_91:\n    /* \"#utility.yul\":3237:3242   */\n  dup2\n    /* \"#utility.yul\":3234:3267   */\n  eq\n    /* \"#utility.yul\":3224:3285   */\n  tag_92\n  jumpi\n    /* \"#utility.yul\":3281:3282   */\n  0x00\n    /* \"#utility.yul\":3278:3279   */\n  dup1\n    /* \"#utility.yul\":3271:3283   */\n  revert\n    /* \"#utility.yul\":3224:3285   */\ntag_92:\n    /* \"#utility.yul\":3173:3291   */\n  pop\n  jump\t// out\n    /* \"#utility.yul\":3297:3436   */\ntag_31:\n    /* \"#utility.yul\":3352:3357   */\n  0x00\n    /* \"#utility.yul\":3383:3389   */\n  dup2\n    /* \"#utility.yul\":3377:3390   */\n  mload\n    /* \"#utility.yul\":3368:3390   */\n  swap1\n  pop\n    /* \"#utility.yul\":3399:3430   */\n  tag_94\n    /* \"#utility.yul\":3424:3429   */\n  dup2\n    /* \"#utility.yul\":3399:3430   */\n  tag_30\n  jump\t// in\ntag_94:\n    /* \"#utility.yul\":3297:3436   */\n  swap3\n  swap2\n  pop\n  pop\n  jump\t// out\n    /* \"#utility.yul\":3442:4761   */\ntag_3:\n    /* \"#utility.yul\":3566:3572   */\n  0x00\n    /* \"#utility.yul\":3574:3580   */\n  dup1\n    /* \"#utility.yul\":3582:3588   */\n  0x00\n    /* \"#utility.yul\":3590:3596   */\n  dup1\n    /* \"#utility.yul\":3598:3604   */\n  0x00\n    /* \"#utility.yul\":3647:3650   */\n  0xa0\n    /* \"#utility.yul\":3635:3644   */\n  dup7\n    /* \"#utility.yul\":3626:3633   */\n  dup9\n    /* \"#utility.yul\":3622:3645   */\n  sub\n    /* \"#utility.yul\":3618:3651   */\n  slt\n    /* \"#utility.yul\":3615:3735   */\n  iszero\n  tag_96\n  jumpi\n    /* \"#utility.yul\":3654:3733   */\n  tag_97\n  tag_13\n  jump\t// in\ntag_97:\n    /* \"#utility.yul\":3615:3735   */\ntag_96:\n    /* \"#utility.yul\":3774:3775   */\n  0x00\n    /* \"#utility.yul\":3799:3863   */\n  tag_98\n    /* \"#utility.yul\":3855:3862   */\n  dup9\n    /* \"#utility.yul\":3846:3852   */\n  dup3\n    /* \"#utility.yul\":3835:3844   */\n  dup10\n    /* \"#utility.yul\":3831:3853   */\n  add\n    /* \"#utility.yul\":3799:3863   */\n  tag_18\n  jump\t// in\ntag_98:\n    /* \"#utility.yul\":3789:3863   */\n  swap6\n  pop\n    /* \"#utility.yul\":3745:3873   */\n  pop\n    /* \"#utility.yul\":3933:3935   */\n  0x20\n    /* \"#utility.yul\":3922:3931   */\n  dup7\n    /* \"#utility.yul\":3918:3936   */\n  add\n    /* \"#utility.yul\":3912:3937   */\n  mload\n    /* \"#utility.yul\":3964:3982   */\n  0xffffffffffffffff\n    /* \"#utility.yul\":3956:3962   */\n  dup2\n    /* \"#utility.yul\":3953:3983   */\n  gt\n    /* \"#utility.yul\":3950:4067   */\n  iszero\n  tag_99\n  jumpi\n    /* \"#utility.yul\":3986:4065   */\n  tag_100\n  tag_14\n  jump\t// in\ntag_100:\n    /* \"#utility.yul\":3950:4067   */\ntag_99:\n    /* \"#utility.yul\":4091:4165   */\n  tag_101\n    /* \"#utility.yul\":4157:4164   */\n  dup9\n    /* \"#utility.yul\":4148:4154   */\n  dup3\n    /* \"#utility.yul\":4137:4146   */\n  dup10\n    /* \"#utility.yul\":4133:4155   */\n  add\n    /* \"#utility.yul\":4091:4165   */\n  tag_28\n  jump\t// in\ntag_101:\n    /* \"#utility.yul\":4081:4165   */\n  swap5\n  pop\n    /* \"#utility.yul\":3883:4175   */\n  pop\n    /* \"#utility.yul\":4235:4237   */\n  0x40\n    /* \"#utility.yul\":4224:4233   */\n  dup7\n    /* \"#utility.yul\":4220:4238   */\n  add\n    /* \"#utility.yul\":4214:4239   */\n  mload\n    /* \"#utility.yul\":4266:4284   */\n  0xffffffffffffffff\n    /* \"#utility.yul\":4258:4264   */\n  dup2\n    /* \"#utility.yul\":4255:4285   */\n  gt\n    /* \"#utility.yul\":4252:4369   */\n  iszero\n  tag_102\n  jumpi\n    /* \"#utility.yul\":4288:4367   */\n  tag_103\n  tag_14\n  jump\t// in\ntag_103:\n    /* \"#utility.yul\":4252:4369   */\ntag_102:\n    /* \"#utility.yul\":4393:4467   */\n  tag_104\n    /* \"#utility.yul\":4459:4466   */\n  dup9\n    /* \"#utility.yul\":4450:4456   */\n  dup3\n    /* \"#utility.yul\":4439:4448   */\n  dup10\n    /* \"#utility.yul\":4435:4457   */\n  add\n    /* \"#utility.yul\":4393:4467   */\n  tag_28\n  jump\t// in\ntag_104:\n    /* \"#utility.yul\":4383:4467   */\n  swap4\n  pop\n    /* \"#utility.yul\":4185:4477   */\n  pop\n    /* \"#utility.yul\":4516:4518   */\n  0x60\n    /* \"#utility.yul\":4542:4604   */\n  tag_105\n    /* \"#utility.yul\":4596:4603   */\n  dup9\n    /* \"#utility.yul\":4587:4593   */\n  dup3\n    /* \"#utility.yul\":4576:4585   */\n  dup10\n    /* \"#utility.yul\":4572:4594   */\n  add\n    /* \"#utility.yul\":4542:4604   */\n  tag_31\n  jump\t// in\ntag_105:\n    /* \"#utility.yul\":4532:4604   */\n  swap3\n  pop\n    /* \"#utility.yul\":4487:4614   */\n  pop\n    /* \"#utility.yul\":4653:4656   */\n  0x80\n    /* \"#utility.yul\":4680:4744   */\n  tag_106\n    /* \"#utility.yul\":4736:4743   */\n  dup9\n    /* \"#utility.yul\":4727:4733   */\n  dup3\n    /* \"#utility.yul\":4716:4725   */\n  dup10\n    /* \"#utility.yul\":4712:4734   */\n  add\n    /* \"#utility.yul\":4680:4744   */\n  tag_18\n  jump\t// in\ntag_106:\n    /* \"#utility.yul\":4670:4744   */\n  swap2\n  pop\n    /* \"#utility.yul\":4624:4754   */\n  pop\n    /* \"#utility.yul\":3442:4761   */\n  swap3\n  swap6\n  pop\n  swap3\n  swap6\n  swap1\n  swap4\n  pop\n  jump\t// out\n    /* \"#utility.yul\":4767:4866   */\ntag_32:\n    /* \"#utility.yul\":4819:4825   */\n  0x00\n    /* \"#utility.yul\":4853:4858   */\n  dup2\n    /* \"#utility.yul\":4847:4859   */\n  mload\n    /* \"#utility.yul\":4837:4859   */\n  swap1\n  pop\n    /* \"#utility.yul\":4767:4866   */\n  swap2\n  swap1\n  pop\n  jump\t// out\n    /* \"#utility.yul\":4872:5052   */\ntag_33:\n    /* \"#utility.yul\":4920:4997   */\n  0x4e487b7100000000000000000000000000000000000000000000000000000000\n    /* \"#utility.yul\":4917:4918   */\n  0x00\n    /* \"#utility.yul\":4910:4998   */\n  mstore\n    /* \"#utility.yul\":5017:5021   */\n  0x22\n    /* \"#utility.yul\":5014:5015   */\n  0x04\n    /* \"#utility.yul\":5007:5022   */\n  mstore\n    /* \"#utility.yul\":5041:5045   */\n  0x24\n    /* \"#utility.yul\":5038:5039   */\n  0x00\n    /* \"#utility.yul\":5031:5046   */\n  revert\n    /* \"#utility.yul\":5058:5378   */\ntag_34:\n    /* \"#utility.yul\":5102:5108   */\n  0x00\n    /* \"#utility.yul\":5139:5140   */\n  0x02\n    /* \"#utility.yul\":5133:5137   */\n  dup3\n    /* \"#utility.yul\":5129:5141   */\n  div\n    /* \"#utility.yul\":5119:5141   */\n  swap1\n  pop\n    /* \"#utility.yul\":5186:5187   */\n  0x01\n    /* \"#utility.yul\":5180:5184   */\n  dup3\n    /* \"#utility.yul\":5176:5188   */\n  and\n    /* \"#utility.yul\":5207:5225   */\n  dup1\n    /* \"#utility.yul\":5197:5278   */\n  tag_110\n  jumpi\n    /* \"#utility.yul\":5263:5267   */\n  0x7f\n    /* \"#utility.yul\":5255:5261   */\n  dup3\n    /* \"#utility.yul\":5251:5268   */\n  and\n    /* \"#utility.yul\":5241:5268   */\n  swap2\n  pop\n    /* \"#utility.yul\":5197:5278   */\ntag_110:\n    /* \"#utility.yul\":5325:5327   */\n  0x20\n    /* \"#utility.yul\":5317:5323   */\n  dup3\n    /* \"#utility.yul\":5314:5328   */\n  lt\n    /* \"#utility.yul\":5294:5312   */\n  dup2\n    /* \"#utility.yul\":5291:5329   */\n  sub\n    /* \"#utility.yul\":5288:5372   */\n  tag_111\n  jumpi\n    /* \"#utility.yul\":5344:5362   */\n  tag_112\n  tag_33\n  jump\t// in\ntag_112:\n    /* \"#utility.yul\":5288:5372   */\ntag_111:\n    /* \"#utility.yul\":5109:5378   */\n  pop\n    /* \"#utility.yul\":5058:5378   */\n  swap2\n  swap1\n  pop\n  jump\t// out\n    /* \"#utility.yul\":5384:5525   */\ntag_35:\n    /* \"#utility.yul\":5433:5437   */\n  0x00\n    /* \"#utility.yul\":5456:5459   */\n  dup2\n    /* \"#utility.yul\":5448:5459   */\n  swap1\n  pop\n    /* \"#utility.yul\":5479:5482   */\n  dup2\n    /* \"#utility.yul\":5476:5477   */\n  0x00\n    /* \"#utility.yul\":5469:5483   */\n  mstore\n    /* \"#utility.yul\":5513:5517   */\n  0x20\n    /* \"#utility.yul\":5510:5511   */\n  0x00\n    /* \"#utility.yul\":5500:5518   */\n  keccak256\n    /* \"#utility.yul\":5492:5518   */\n  swap1\n  pop\n    /* \"#utility.yul\":5384:5525   */\n  swap2\n  swap1\n  pop\n  jump\t// out\n    /* \"#utility.yul\":5531:5624   */\ntag_36:\n    /* \"#utility.yul\":5568:5574   */\n  0x00\n    /* \"#utility.yul\":5615:5617   */\n  0x20\n    /* \"#utility.yul\":5610:5612   */\n  0x1f\n    /* \"#utility.yul\":5603:5608   */\n  dup4\n    /* \"#utility.yul\":5599:5613   */\n  add\n    /* \"#utility.yul\":5595:5618   */\n  div\n    /* \"#utility.yul\":5585:5618   */\n  swap1\n  pop\n    /* \"#utility.yul\":5531:5624   */\n  swap2\n  swap1\n  pop\n  jump\t// out\n    /* \"#utility.yul\":5630:5737   */\ntag_37:\n    /* \"#utility.yul\":5674:5682   */\n  0x00\n    /* \"#utility.yul\":5724:5729   */\n  dup3\n    /* \"#utility.yul\":5718:5722   */\n  dup3\n    /* \"#utility.yul\":5714:5730   */\n  shl\n    /* \"#utility.yul\":5693:5730   */\n  swap1\n  pop\n    /* \"#utility.yul\":5630:5737   */\n  swap3\n  swap2\n  pop\n  pop\n  jump\t// out\n    /* \"#utility.yul\":5743:6136   */\ntag_38:\n    /* \"#utility.yul\":5812:5818   */\n  0x00\n    /* \"#utility.yul\":5862:5863   */\n  0x08\n    /* \"#utility.yul\":5850:5860   */\n  dup4\n    /* \"#utility.yul\":5846:5864   */\n  mul\n    /* \"#utility.yul\":5885:5982   */\n  tag_117\n    /* \"#utility.yul\":5915:5981   */\n  0xffffffffffffffffffffffffffffffffffffffffffffffffffffffffffffffff\n    /* \"#utility.yul\":5904:5913   */\n  dup3\n    /* \"#utility.yul\":5885:5982   */\n  tag_37\n  jump\t// in\ntag_117:\n    /* \"#utility.yul\":6003:6042   */\n  tag_118\n    /* \"#utility.yul\":6033:6041   */\n  dup7\n    /* \"#utility.yul\":6022:6031   */\n  dup4\n    /* \"#utility.yul\":6003:6042   */\n  tag_37\n  jump\t// in\ntag_118:\n    /* \"#utility.yul\":5991:6042   */\n  swap6\n  pop\n    /* \"#utility.yul\":6075:6079   */\n  dup1\n    /* \"#utility.yul\":6071:6080   */\n  not\n    /* \"#utility.yul\":6064:6069   */\n  dup5\n    /* \"#utility.yul\":6060:6081   */\n  and\n    /* \"#utility.yul\":6051:6081   */\n  swap4\n  pop\n    /* \"#utility.yul\":6124:6128   */\n  dup1\n    /* \"#utility.yul\":6114:6122   */\n  dup7\n    /* \"#utility.yul\":6110:6129   */\n  and\n    /* \"#utility.yul\":6103:6108   */\n  dup5\n    /* \"#utility.yul\":6100:6130   */\n  or\n    /* \"#utility.yul\":6090:6130   */\n  swap3\n  pop\n    /* \"#utility.yul\":5819:6136   */\n  pop\n  pop\n    /* \"#utility.yul\":5743:6136   */\n  swap4\n  swap3\n  pop\n  pop\n  pop\n  jump\t// out\n    /* \"#utility.yul\":6142:6219   */\ntag_39:\n    /* \"#utility.yul\":6179:6186   */\n  0x00\n    /* \"#utility.yul\":6208:6213   */\n  dup2\n    /* \"#utility.yul\":6197:6213   */\n  swap1\n  pop\n    /* \"#utility.yul\":6142:6219   */\n  swap2\n  swap1\n  pop\n  jump\t// out\n    /* \"#utility.yul\":6225:6285   */\ntag_40:\n    /* \"#utility.yul\":6253:6256   */\n  0x00\n    /* \"#utility.yul\":6274:6279   */\n  dup2\n    /* \"#utility.yul\":6267:6279   */\n  swap1\n  pop\n    /* \"#utility.yul\":6225:6285   */\n  swap2\n  swap1\n  pop\n  jump\t// out\n    /* \"#utility.yul\":6291:6433   */\ntag_41:\n    /* \"#utility.yul\":6341:6350   */\n  0x00\n    /* \"#utility.yul\":6374:6427   */\n  tag_122\n    /* \"#utility.yul\":6392:6426   */\n  tag_123\n    /* \"#utility.yul\":6401:6425   */\n  tag_124\n    /* \"#utility.yul\":6419:6424   */\n  dup5\n    /* \"#utility.yul\":6401:6425   */\n  tag_39\n  jump\t// in\ntag_124:\n    /* \"#utility.yul\":6392:6426   */\n  tag_40\n  jump\t// in\ntag_123:\n    /* \"#utility.yul\":6374:6427   */\n  tag_39\n  jump\t// in\ntag_122:\n    /* \"#utility.yul\":6361:6427   */\n  swap1\n  pop\n    /* \"#utility.yul\":6291:6433   */\n  swap2\n  swap1\n  pop\n  jump\t// out\n    /* \"#utility.yul\":6439:6514   */\ntag_42:\n    /* \"#utility.yul\":6482:6485   */\n  0x00\n    /* \"#utility.yul\":6503:6508   */\n  dup2\n    /* \"#utility.yul\":6496:6508   */\n  swap1\n  pop\n    /* \"#utility.yul\":6439:6514   */\n  swap2\n  swap1\n  pop\n  jump\t// out\n    /* \"#utility.yul\":6520:6789   */\ntag_43:\n    /* \"#utility.yul\":6630:6669   */\n  tag_127\n    /* \"#utility.yul\":6661:6668   */\n  dup4\n    /* \"#utility.yul\":6630:6669   */\n  tag_41\n  jump\t// in\ntag_127:\n    /* \"#utility.yul\":6691:6782   */\n  tag_128\n    /* \"#utility.yul\":6740:6781   */\n  tag_129\n    /* \"#utility.yul\":6764:6780   */\n  dup3\n    /* \"#utility.yul\":6740:6781   */\n  tag_42\n  jump\t// in\ntag_129:\n    /* \"#utility.yul\":6732:6738   */\n  dup5\n    /* \"#utility.yul\":6725:6729   */\n  dup5\n    /* \"#utility.yul\":6719:6730   */\n  sload\n    /* \"#utility.yul\":6691:6782   */\n  tag_38\n  jump\t// in\ntag_128:\n    /* \"#utility.yul\":6685:6689   */\n  dup3\n    /* \"#utility.yul\":6678:6783   */\n  sstore\n    /* \"#utility.yul\":6596:6789   */\n  pop\n    /* \"#utility.yul\":6520:6789   */\n  pop\n  pop\n  pop\n  jump\t// out\n    /* \"#utility.yul\":6795:6868   */\ntag_44:\n    /* \"#utility.yul\":6840:6843   */\n  0x00\n    /* \"#utility.yul\":6795:6868   */\n  swap1\n  jump\t// out\n    /* \"#utility.yul\":6874:7063   */\ntag_45:\n    /* \"#utility.yul\":6951:6983   */\n  tag_132\n  tag_44\n  jump\t// in\ntag_132:\n    /* \"#utility.yul\":6992:7057   */\n  tag_133\n    /* \"#utility.yul\":7050:7056   */\n  dup2\n    /* \"#utility.yul\":7042:7048   */\n  dup5\n    /* \"#utility.yul\":7036:7040   */\n  dup5\n    /* \"#utility.yul\":6992:7057   */\n  tag_43\n  jump\t// in\ntag_133:\n    /* \"#utility.yul\":6927:7063   */\n  pop\n    /* \"#utility.yul\":6874:7063   */\n  pop\n  pop\n  jump\t// out\n    /* \"#utility.yul\":7069:7255   */\ntag_46:\n    /* \"#utility.yul\":7129:7249   */\ntag_135:\n    /* \"#utility.yul\":7146:7149   */\n  dup2\n    /* \"#utility.yul\":7139:7144   */\n  dup2\n    /* \"#utility.yul\":7136:7150   */\n  lt\n    /* \"#utility.yul\":7129:7249   */\n  iszero\n  tag_137\n  jumpi\n    /* \"#utility.yul\":7200:7239   */\n  tag_138\n    /* \"#utility.yul\":7237:7238   */\n  0x00\n    /* \"#utility.yul\":7230:7235   */\n  dup3\n    /* \"#utility.yul\":7200:7239   */\n  tag_45\n  jump\t// in\ntag_138:\n    /* \"#utility.yul\":7173:7174   */\n  0x01\n    /* \"#utility.yul\":7166:7171   */\n  dup2\n    /* \"#utility.yul\":7162:7175   */\n  add\n    /* \"#utility.yul\":7153:7175   */\n  swap1\n  pop\n    /* \"#utility.yul\":7129:7249   */\n  jump(tag_135)\ntag_137:\n    /* \"#utility.yul\":7069:7255   */\n  pop\n  pop\n  jump\t// out\n    /* \"#utility.yul\":7261:7804   */\ntag_47:\n    /* \"#utility.yul\":7362:7364   */\n  0x1f\n    /* \"#utility.yul\":7357:7360   */\n  dup3\n    /* \"#utility.yul\":7354:7365   */\n  gt\n    /* \"#utility.yul\":7351:7797   */\n  iszero\n  tag_140\n  jumpi\n    /* \"#utility.yul\":7396:7434   */\n  tag_141\n    /* \"#utility.yul\":7428:7433   */\n  dup2\n    /* \"#utility.yul\":7396:7434   */\n  tag_35\n  jump\t// in\ntag_141:\n    /* \"#utility.yul\":7480:7509   */\n  tag_142\n    /* \"#utility.yul\":7498:7508   */\n  dup5\n    /* \"#utility.yul\":7480:7509   */\n  tag_36\n  jump\t// in\ntag_142:\n    /* \"#utility.yul\":7470:7478   */\n  dup2\n    /* \"#utility.yul\":7466:7510   */\n  add\n    /* \"#utility.yul\":7663:7665   */\n  0x20\n    /* \"#utility.yul\":7651:7661   */\n  dup6\n    /* \"#utility.yul\":7648:7666   */\n  lt\n    /* \"#utility.yul\":7645:7694   */\n  iszero\n  tag_143\n  jumpi\n    /* \"#utility.yul\":7684:7692   */\n  dup2\n    /* \"#utility.yul\":7669:7692   */\n  swap1\n  pop\n    /* \"#utility.yul\":7645:7694   */\ntag_143:\n    /* \"#utility.yul\":7707:7787   */\n  tag_144\n    /* \"#utility.yul\":7763:7785   */\n  tag_145\n    /* \"#utility.yul\":7781:7784   */\n  dup6\n    /* \"#utility.yul\":7763:7785   */\n  tag_36\n  jump\t// in\ntag_145:\n    /* \"#utility.yul\":7753:7761   */\n  dup4\n    /* \"#utility.yul\":7749:7786   */\n  add\n    /* \"#utility.yul\":7736:7747   */\n  dup3\n    /* \"#utility.yul\":7707:7787   */\n  tag_46\n  jump\t// in\ntag_144:\n    /* \"#utility.yul\":7366:7797   */\n  pop\n  pop\n    /* \"#utility.yul\":7351:7797   */\ntag_140:\n    /* \"#utility.yul\":7261:7804   */\n  pop\n  pop\n  pop\n  jump\t// out\n    /* \"#utility.yul\":7810:7927   */\ntag_48:\n    /* \"#utility.yul\":7864:7872   */\n  0x00\n    /* \"#utility.yul\":7914:7919   */\n  dup3\n    /* \"#utility.yul\":7908:7912   */\n  dup3\n    /* \"#utility.yul\":7904:7920   */\n  shr\n    /* \"#utility.yul\":7883:7920   */\n  swap1\n  pop\n    /* \"#utility.yul\":7810:7927   */\n  swap3\n  swap2\n  pop\n  pop\n  jump\t// out\n    /* \"#utility.yul\":7933:8102   */\ntag_49:\n    /* \"#utility.yul\":7977:7983   */\n  0x00\n    /* \"#utility.yul\":8010:8061   */\n  tag_148\n    /* \"#utility.yul\":8058:8059   */\n  0x00\n    /* \"#utility.yul\":8054:8060   */\n  not\n    /* \"#utility.yul\":8046:8051   */\n  dup5\n    /* \"#utility.yul\":8043:8044   */\n  0x08\n    /* \"#utility.yul\":8039:8052   */\n  mul\n    /* \"#utility.yul\":8010:8061   */\n  tag_48\n  jump\t// in\ntag_148:\n    /* \"#utility.yul\":8006:8062   */\n  not\n    /* \"#utility.yul\":8091:8095   */\n  dup1\n    /* \"#utility.yul\":8085:8089   */\n  dup4\n    /* \"#utility.yul\":8081:8096   */\n  and\n    /* \"#utility.yul\":8071:8096   */\n  swap2\n  pop\n    /* \"#utility.yul\":7984:8102   */\n  pop\n    /* \"#utility.yul\":7933:8102   */\n  swap3\n  swap2\n  pop\n  pop\n  jump\t// out\n    /* \"#utility.yul\":8107:8402   */\ntag_50:\n    /* \"#utility.yul\":8183:8187   */\n  0x00\n    /* \"#utility.yul\":8329:8358   */\n  tag_150\n    /* \"#utility.yul\":8354:8357   */\n  dup4\n    /* \"#utility.yul\":8348:8352   */\n  dup4\n    /* \"#utility.yul\":8329:8358   */\n  tag_49\n  jump\t// in\ntag_150:\n    /* \"#utility.yul\":8321:8358   */\n  swap2\n  pop\n    /* \"#utility.yul\":8391:8394   */\n  dup3\n    /* \"#utility.yul\":8388:8389   */\n  0x02\n    /* \"#utility.yul\":8384:8395   */\n  mul\n    /* \"#utility.yul\":8378:8382   */\n  dup3\n    /* \"#utility.yul\":8375:8396   */\n  or\n    /* \"#utility.yul\":8367:8396   */\n  swap1\n  pop\n    /* \"#utility.yul\":8107:8402   */\n  swap3\n  swap2\n  pop\n  pop\n  jump\t// out\n    /* \"#utility.yul\":8407:9802   */\ntag_8:\n    /* \"#utility.yul\":8524:8561   */\n  tag_152\n    /* \"#utility.yul\":8557:8560   */\n  dup3\n    /* \"#utility.yul\":8524:8561   */\n  tag_32\n  jump\t// in\ntag_152:\n    /* \"#utility.yul\":8626:8644   */\n  0xffffffffffffffff\n    /* \"#utility.yul\":8618:8624   */\n  dup2\n    /* \"#utility.yul\":8615:8645   */\n  gt\n    /* \"#utility.yul\":8612:8668   */\n  iszero\n  tag_153\n  jumpi\n    /* \"#utility.yul\":8648:8666   */\n  tag_154\n  tag_22\n  jump\t// in\ntag_154:\n    /* \"#utility.yul\":8612:8668   */\ntag_153:\n    /* \"#utility.yul\":8692:8730   */\n  tag_155\n    /* \"#utility.yul\":8724:8728   */\n  dup3\n    /* \"#utility.yul\":8718:8729   */\n  sload\n    /* \"#utility.yul\":8692:8730   */\n  tag_34\n  jump\t// in\ntag_155:\n    /* \"#utility.yul\":8777:8844   */\n  tag_156\n    /* \"#utility.yul\":8837:8843   */\n  dup3\n    /* \"#utility.yul\":8829:8835   */\n  dup3\n    /* \"#utility.yul\":8823:8827   */\n  dup6\n    /* \"#utility.yul\":8777:8844   */\n  tag_47\n  jump\t// in\ntag_156:\n    /* \"#utility.yul\":8871:8872   */\n  0x00\n    /* \"#utility.yul\":8895:8899   */\n  0x20\n    /* \"#utility.yul\":8882:8899   */\n  swap1\n  pop\n    /* \"#utility.yul\":8927:8929   */\n  0x1f\n    /* \"#utility.yul\":8919:8925   */\n  dup4\n    /* \"#utility.yul\":8916:8930   */\n  gt\n    /* \"#utility.yul\":8944:8945   */\n  0x01\n    /* \"#utility.yul\":8939:9557   */\n  dup2\n  eq\n  tag_158\n  jumpi\n    /* \"#utility.yul\":9601:9602   */\n  0x00\n    /* \"#utility.yul\":9618:9624   */\n  dup5\n    /* \"#utility.yul\":9615:9692   */\n  iszero\n  tag_159\n  jumpi\n    /* \"#utility.yul\":9667:9676   */\n  dup3\n    /* \"#utility.yul\":9662:9665   */\n  dup8\n    /* \"#utility.yul\":9658:9677   */\n  add\n    /* \"#utility.yul\":9652:9678   */\n  mload\n    /* \"#utility.yul\":9643:9678   */\n  swap1\n  pop\n    /* \"#utility.yul\":9615:9692   */\ntag_159:\n    /* \"#utility.yul\":9718:9785   */\n  tag_160\n    /* \"#utility.yul\":9778:9784   */\n  dup6\n    /* \"#utility.yul\":9771:9776   */\n  dup3\n    /* \"#utility.yul\":9718:9785   */\n  tag_50\n  jump\t// in\ntag_160:\n    /* \"#utility.yul\":9712:9716   */\n  dup7\n    /* \"#utility.yul\":9705:9786   */\n  sstore\n    /* \"#utility.yul\":9574:9796   */\n  pop\n    /* \"#utility.yul\":8909:9796   */\n  jump(tag_157)\n    /* \"#utility.yul\":8939:9557   */\ntag_158:\n    /* \"#utility.yul\":8991:8995   */\n  0x1f\n    /* \"#utility.yul\":8987:8996   */\n  not\n    /* \"#utility.yul\":8979:8985   */\n  dup5\n    /* \"#utility.yul\":8975:8997   */\n  and\n    /* \"#utility.yul\":9025:9062   */\n  tag_161\n    /* \"#utility.yul\":9057:9061   */\n  dup7\n    /* \"#utility.yul\":9025:9062   */\n  tag_35\n  jump\t// in\ntag_161:\n    /* \"#utility.yul\":9084:9085   */\n  0x00\n    /* \"#utility.yul\":9098:9306   */\ntag_162:\n    /* \"#utility.yul\":9112:9119   */\n  dup3\n    /* \"#utility.yul\":9109:9110   */\n  dup2\n    /* \"#utility.yul\":9106:9120   */\n  lt\n    /* \"#utility.yul\":9098:9306   */\n  iszero\n  tag_164\n  jumpi\n    /* \"#utility.yul\":9191:9200   */\n  dup5\n    /* \"#utility.yul\":9186:9189   */\n  dup10\n    /* \"#utility.yul\":9182:9201   */\n  add\n    /* \"#utility.yul\":9176:9202   */\n  mload\n    /* \"#utility.yul\":9168:9174   */\n  dup3\n    /* \"#utility.yul\":9161:9203   */\n  sstore\n    /* \"#utility.yul\":9242:9243   */\n  0x01\n    /* \"#utility.yul\":9234:9240   */\n  dup3\n    /* \"#utility.yul\":9230:9244   */\n  add\n    /* \"#utility.yul\":9220:9244   */\n  swap2\n  pop\n    /* \"#utility.yul\":9289:9291   */\n  0x20\n    /* \"#utility.yul\":9278:9287   */\n  dup6\n    /* \"#utility.yul\":9274:9292   */\n  add\n    /* \"#utility.yul\":9261:9292   */\n  swap5\n  pop\n    /* \"#utility.yul\":9135:9139   */\n  0x20\n    /* \"#utility.yul\":9132:9133   */\n  dup2\n    /* \"#utility.yul\":9128:9140   */\n  add\n    /* \"#utility.yul\":9123:9140   */\n  swap1\n  pop\n    /* \"#utility.yul\":9098:9306   */\n  jump(tag_162)\ntag_164:\n    /* \"#utility.yul\":9334:9340   */\n  dup7\n    /* \"#utility.yul\":9325:9332   */\n  dup4\n    /* \"#utility.yul\":9322:9341   */\n  lt\n    /* \"#utility.yul\":9319:9498   */\n  iszero\n  tag_165\n  jumpi\n    /* \"#utility.yul\":9392:9401   */\n  dup5\n    /* \"#utility.yul\":9387:9390   */\n  dup10\n    /* \"#utility.yul\":9383:9402   */\n  add\n    /* \"#utility.yul\":9377:9403   */\n  mload\n    /* \"#utility.yul\":9435:9483   */\n  tag_166\n    /* \"#utility.yul\":9477:9481   */\n  0x1f\n    /* \"#utility.yul\":9469:9475   */\n  dup10\n    /* \"#utility.yul\":9465:9482   */\n  and\n    /* \"#utility.yul\":9454:9463   */\n  dup3\n    /* \"#utility.yul\":9435:9483   */\n  tag_49\n  jump\t// in\ntag_166:\n    /* \"#utility.yul\":9427:9433   */\n  dup4\n    /* \"#utility.yul\":9420:9484   */\n  sstore\n    /* \"#utility.yul\":9342:9498   */\n  pop\n    /* \"#utility.yul\":9319:9498   */\ntag_165:\n    /* \"#utility.yul\":9544:9545   */\n  0x01\n    /* \"#utility.yul\":9540:9541   */\n  0x02\n    /* \"#utility.yul\":9532:9538   */\n  dup9\n    /* \"#utility.yul\":9528:9542   */\n  mul\n    /* \"#utility.yul\":9524:9546   */\n  add\n    /* \"#utility.yul\":9518:9522   */\n  dup9\n    /* \"#utility.yul\":9511:9547   */\n  sstore\n    /* \"#utility.yul\":8946:9557   */\n  pop\n  pop\n  pop\n    /* \"#utility.yul\":8909:9796   */\ntag_157:\n  pop\n    /* \"#utility.yul\":8499:9802   */\n  pop\n  pop\n  pop\n    /* \"#utility.yul\":8407:9802   */\n  pop\n  pop\n  jump\t// out\n    /* \"Inheritance/ERC20WithFee.sol\":186:1761  contract ERC20WithFee is ERC20 {     // Child Contract... */\ntag_11:\n  mload(0x80)\n  codecopy(0x00, dataOffset(sub_0), dataSize(sub_0))\n  0x00\n  assignImmutable(\"0x5ca7b081b8c6c57b0469c340dba43ec8d33c0b898c69e55c4f74ff7ed9ac71ea\")\n  return(0x00, dataSize(sub_0))\nstop\n\nsub_0: assembly {\n        /* \"Inheritance/ERC20WithFee.sol\":186:1761  contract ERC20WithFee is ERC20 {     // Child Contract... */\n      mstore(0x40, 0x80)\n      callvalue\n      dup1\n      iszero\n      tag_1\n      jumpi\n      0x00\n      dup1\n      revert\n    tag_1:\n      pop\n      jumpi(tag_2, lt(calldatasize, 0x04))\n      shr(0xe0, calldataload(0x00))\n      dup1\n      0x70a08231\n      gt\n      tag_16\n      jumpi\n      dup1\n      0x9dc29fac\n      gt\n      tag_17\n      jumpi\n      dup1\n      0x9dc29fac\n      eq\n      tag_12\n      jumpi\n      dup1\n      0xa9059cbb\n      eq\n      tag_13\n      jumpi\n      dup1\n      0xc415b95c\n      eq\n      tag_14\n      jumpi\n      dup1\n      0xdd62ed3e\n      eq\n      tag_15\n      jumpi\n      jump(tag_2)\n    tag_17:\n      dup1\n      0x70a08231\n      eq\n      tag_9\n      jumpi\n      dup1\n      0x8da5cb5b\n      eq\n      tag_10\n      jumpi\n      dup1\n      0x95d89b41\n      eq\n      tag_11\n      jumpi\n      jump(tag_2)\n    tag_16:\n      dup1\n      0x06fdde03\n      eq\n      tag_3\n      jumpi\n      dup1\n      0x095ea7b3\n      eq\n      tag_4\n      jumpi\n      dup1\n      0x18160ddd\n      eq\n      tag_5\n      jumpi\n      dup1\n      0x23b872dd\n      eq\n      tag_6\n      jumpi\n      dup1\n      0x313ce567\n      eq\n      tag_7\n      jumpi\n      dup1\n      0x40c10f19\n      eq\n      tag_8\n      jumpi\n    tag_2:\n      0x00\n      dup1\n      revert\n        /* \"Inheritance/ERC20.sol\":527:545  string public name */\n    tag_3:\n      tag_18\n      tag_19\n      jump\t// in\n    tag_18:\n      mload(0x40)\n      tag_20\n      swap2\n      swap1\n      tag_21\n      jump\t// in\n    tag_20:\n      mload(0x40)\n      dup1\n      swap2\n      sub\n      swap1\n      return\n        /* \"Inheritance/ERC20.sol\":3171:3371  function approve(address spender, uint256 value) external returns (bool) {... */\n    tag_4:\n      tag_22\n      0x04\n      dup1\n      calldatasize\n      sub\n      dup2\n      add\n      swap1\n      tag_23\n      swap2\n      swap1\n      tag_24\n      jump\t// in\n    tag_23:\n      tag_25\n      jump\t// in\n    tag_22:\n      mload(0x40)\n      tag_26\n      swap2\n      swap1\n      tag_27\n      jump\t// in\n    tag_26:\n      mload(0x40)\n      dup1\n      swap2\n      sub\n      swap1\n      return\n        /* \"Inheritance/ERC20.sol\":614:640  uint256 public totalSupply */\n    tag_5:\n      tag_28\n      tag_29\n      jump\t// in\n    tag_28:\n      mload(0x40)\n      tag_30\n      swap2\n      swap1\n      tag_31\n      jump\t// in\n    tag_30:\n      mload(0x40)\n      dup1\n      swap2\n      sub\n      swap1\n      return\n        /* \"Inheritance/ERC20.sol\":2342:2712  function transferFrom(address from, address to, uint256 value) external returns (bool) {... */\n    tag_6:\n      tag_32\n      0x04\n      dup1\n      calldatasize\n      sub\n      dup2\n      add\n      swap1\n      tag_33\n      swap2\n      swap1\n      tag_34\n      jump\t// in\n    tag_33:\n      tag_35\n      jump\t// in\n    tag_32:\n      mload(0x40)\n      tag_36\n      swap2\n      swap1\n      tag_27\n      jump\t// in\n    tag_36:\n      mload(0x40)\n      dup1\n      swap2\n      sub\n      swap1\n      return\n        /* \"Inheritance/ERC20.sol\":577:608  uint8 public immutable decimals */\n    tag_7:\n      tag_37\n      tag_38\n      jump\t// in\n    tag_37:\n      mload(0x40)\n      tag_39\n      swap2\n      swap1\n      tag_40\n      jump\t// in\n    tag_39:\n      mload(0x40)\n      dup1\n      swap2\n      sub\n      swap1\n      return\n        /* \"Inheritance/ERC20.sol\":1819:1912  function mint(address to, uint256 value) external onlyOwner {... */\n    tag_8:\n      tag_41\n      0x04\n      dup1\n      calldatasize\n      sub\n      dup2\n      add\n      swap1\n      tag_42\n      swap2\n      swap1\n      tag_24\n      jump\t// in\n    tag_42:\n      tag_43\n      jump\t// in\n    tag_41:\n      stop\n        /* \"Inheritance/ERC20.sol\":789:834  mapping (address => uint256) public balanceOf */\n    tag_9:\n      tag_44\n      0x04\n      dup1\n      calldatasize\n      sub\n      dup2\n      add\n      swap1\n      tag_45\n      swap2\n      swap1\n      tag_46\n      jump\t// in\n    tag_45:\n      tag_47\n      jump\t// in\n    tag_44:\n      mload(0x40)\n      tag_48\n      swap2\n      swap1\n      tag_31\n      jump\t// in\n    tag_48:\n      mload(0x40)\n      dup1\n      swap2\n      sub\n      swap1\n      return\n        /* \"Inheritance/ERC20.sol\":696:716  address public owner */\n    tag_10:\n      tag_49\n      tag_50\n      jump\t// in\n    tag_49:\n      mload(0x40)\n      tag_51\n      swap2\n      swap1\n      tag_52\n      jump\t// in\n    tag_51:\n      mload(0x40)\n      dup1\n      swap2\n      sub\n      swap1\n      return\n        /* \"Inheritance/ERC20.sol\":551:571  string public symbol */\n    tag_11:\n      tag_53\n      tag_54\n      jump\t// in\n    tag_53:\n      mload(0x40)\n      tag_55\n      swap2\n      swap1\n      tag_21\n      jump\t// in\n    tag_55:\n      mload(0x40)\n      dup1\n      swap2\n      sub\n      swap1\n      return\n        /* \"Inheritance/ERC20.sol\":2164:2261  function burn(address from, uint256 value) external onlyOwner {... */\n    tag_12:\n      tag_56\n      0x04\n      dup1\n      calldatasize\n      sub\n      dup2\n      add\n      swap1\n      tag_57\n      swap2\n      swap1\n      tag_24\n      jump\t// in\n    tag_57:\n      tag_58\n      jump\t// in\n    tag_56:\n      stop\n        /* \"Inheritance/ERC20WithFee.sol\":964:1590  function transfer(address to, uint256 value) public override returns (bool success) {... */\n    tag_13:\n      tag_59\n      0x04\n      dup1\n      calldatasize\n      sub\n      dup2\n      add\n      swap1\n      tag_60\n      swap2\n      swap1\n      tag_24\n      jump\t// in\n    tag_60:\n      tag_61\n      jump\t// in\n    tag_59:\n      mload(0x40)\n      tag_62\n      swap2\n      swap1\n      tag_27\n      jump\t// in\n    tag_62:\n      mload(0x40)\n      dup1\n      swap2\n      sub\n      swap1\n      return\n        /* \"Inheritance/ERC20WithFee.sol\":245:272  address public feeCollector */\n    tag_14:\n      tag_63\n      tag_64\n      jump\t// in\n    tag_63:\n      mload(0x40)\n      tag_65\n      swap2\n      swap1\n      tag_52\n      jump\t// in\n    tag_65:\n      mload(0x40)\n      dup1\n      swap2\n      sub\n      swap1\n      return\n        /* \"Inheritance/ERC20.sol\":877:942  mapping (address => mapping(address => uint256)) public allowance */\n    tag_15:\n      tag_66\n      0x04\n      dup1\n      calldatasize\n      sub\n      dup2\n      add\n      swap1\n      tag_67\n      swap2\n      swap1\n      tag_68\n      jump\t// in\n    tag_67:\n      tag_69\n      jump\t// in\n    tag_66:\n      mload(0x40)\n      tag_70\n      swap2\n      swap1\n      tag_31\n      jump\t// in\n    tag_70:\n      mload(0x40)\n      dup1\n      swap2\n      sub\n      swap1\n      return\n        /* \"Inheritance/ERC20.sol\":527:545  string public name */\n    tag_19:\n      0x00\n      dup1\n      sload\n      tag_71\n      swap1\n      tag_72\n      jump\t// in\n    tag_71:\n      dup1\n      0x1f\n      add\n      0x20\n      dup1\n      swap2\n      div\n      mul\n      0x20\n      add\n      mload(0x40)\n      swap1\n      dup2\n      add\n      0x40\n      mstore\n      dup1\n      swap3\n      swap2\n      swap1\n      dup2\n      dup2\n      mstore\n      0x20\n      add\n      dup3\n      dup1\n      sload\n      tag_73\n      swap1\n      tag_72\n      jump\t// in\n    tag_73:\n      dup1\n      iszero\n      tag_74\n      jumpi\n      dup1\n      0x1f\n      lt\n      tag_75\n      jumpi\n      0x0100\n      dup1\n      dup4\n      sload\n      div\n      mul\n      dup4\n      mstore\n      swap2\n      0x20\n      add\n      swap2\n      jump(tag_74)\n    tag_75:\n      dup3\n      add\n      swap2\n      swap1\n      0x00\n      mstore\n      keccak256(0x00, 0x20)\n      swap1\n    tag_76:\n      dup2\n      sload\n      dup2\n      mstore\n      swap1\n      0x01\n      add\n      swap1\n      0x20\n      add\n      dup1\n      dup4\n      gt\n      tag_76\n      jumpi\n      dup3\n      swap1\n      sub\n      0x1f\n      and\n      dup3\n      add\n      swap2\n    tag_74:\n      pop\n      pop\n      pop\n      pop\n      pop\n      dup2\n      jump\t// out\n        /* \"Inheritance/ERC20.sol\":3171:3371  function approve(address spender, uint256 value) external returns (bool) {... */\n    tag_25:\n        /* \"Inheritance/ERC20.sol\":3238:3242  bool */\n      0x00\n        /* \"Inheritance/ERC20.sol\":3287:3292  value */\n      dup2\n        /* \"Inheritance/ERC20.sol\":3254:3263  allowance */\n      0x05\n        /* \"Inheritance/ERC20.sol\":3254:3275  allowance[msg.sender] */\n      0x00\n        /* \"Inheritance/ERC20.sol\":3264:3274  msg.sender */\n      caller\n        /* \"Inheritance/ERC20.sol\":3254:3275  allowance[msg.sender] */\n      0xffffffffffffffffffffffffffffffffffffffff\n      and\n      0xffffffffffffffffffffffffffffffffffffffff\n      and\n      dup2\n      mstore\n      0x20\n      add\n      swap1\n      dup2\n      mstore\n      0x20\n      add\n      0x00\n      keccak256\n        /* \"Inheritance/ERC20.sol\":3254:3284  allowance[msg.sender][spender] */\n      0x00\n        /* \"Inheritance/ERC20.sol\":3276:3283  spender */\n      dup6\n        /* \"Inheritance/ERC20.sol\":3254:3284  allowance[msg.sender][spender] */\n      0xffffffffffffffffffffffffffffffffffffffff\n      and\n      0xffffffffffffffffffffffffffffffffffffffff\n      and\n      dup2\n      mstore\n      0x20\n      add\n      swap1\n      dup2\n      mstore\n      0x20\n      add\n      0x00\n      keccak256\n        /* \"Inheritance/ERC20.sol\":3254:3292  allowance[msg.sender][spender] = value */\n      dup2\n      swap1\n      sstore\n      pop\n        /* \"Inheritance/ERC20.sol\":3328:3335  spender */\n      dup3\n        /* \"Inheritance/ERC20.sol\":3307:3343  Approval(msg.sender, spender, value) */\n      0xffffffffffffffffffffffffffffffffffffffff\n      and\n        /* \"Inheritance/ERC20.sol\":3316:3326  msg.sender */\n      caller\n        /* \"Inheritance/ERC20.sol\":3307:3343  Approval(msg.sender, spender, value) */\n      0xffffffffffffffffffffffffffffffffffffffff\n      and\n      0x8c5be1e5ebec7d5bd14f71427d1e84f3dd0314c0f7b2291e5b200ac8c7c3b925\n        /* \"Inheritance/ERC20.sol\":3337:3342  value */\n      dup5\n        /* \"Inheritance/ERC20.sol\":3307:3343  Approval(msg.sender, spender, value) */\n      mload(0x40)\n      tag_78\n      swap2\n      swap1\n      tag_31\n      jump\t// in\n    tag_78:\n      mload(0x40)\n      dup1\n      swap2\n      sub\n      swap1\n      log3\n        /* \"Inheritance/ERC20.sol\":3360:3364  true */\n      0x01\n        /* \"Inheritance/ERC20.sol\":3353:3364  return true */\n      swap1\n      pop\n        /* \"Inheritance/ERC20.sol\":3171:3371  function approve(address spender, uint256 value) external returns (bool) {... */\n      swap3\n      swap2\n      pop\n      pop\n      jump\t// out\n        /* \"Inheritance/ERC20.sol\":614:640  uint256 public totalSupply */\n    tag_29:\n      sload(0x02)\n      dup2\n      jump\t// out\n        /* \"Inheritance/ERC20.sol\":2342:2712  function transferFrom(address from, address to, uint256 value) external returns (bool) {... */\n    tag_35:\n        /* \"Inheritance/ERC20.sol\":2423:2427  bool */\n      0x00\n        /* \"Inheritance/ERC20.sol\":2478:2483  value */\n      dup2\n        /* \"Inheritance/ERC20.sol\":2447:2456  allowance */\n      0x05\n        /* \"Inheritance/ERC20.sol\":2447:2462  allowance[from] */\n      0x00\n        /* \"Inheritance/ERC20.sol\":2457:2461  from */\n      dup7\n        /* \"Inheritance/ERC20.sol\":2447:2462  allowance[from] */\n      0xffffffffffffffffffffffffffffffffffffffff\n      and\n      0xffffffffffffffffffffffffffffffffffffffff\n      and\n      dup2\n      mstore\n      0x20\n      add\n      swap1\n      dup2\n      mstore\n      0x20\n      add\n      0x00\n      keccak256\n        /* \"Inheritance/ERC20.sol\":2447:2474  allowance[from][msg.sender] */\n      0x00\n        /* \"Inheritance/ERC20.sol\":2463:2473  msg.sender */\n      caller\n        /* \"Inheritance/ERC20.sol\":2447:2474  allowance[from][msg.sender] */\n      0xffffffffffffffffffffffffffffffffffffffff\n      and\n      0xffffffffffffffffffffffffffffffffffffffff\n      and\n      dup2\n      mstore\n      0x20\n      add\n      swap1\n      dup2\n      mstore\n      0x20\n      add\n      0x00\n      keccak256\n      sload\n        /* \"Inheritance/ERC20.sol\":2447:2483  allowance[from][msg.sender] >= value */\n      lt\n      iszero\n        /* \"Inheritance/ERC20.sol\":2439:2517  require(allowance[from][msg.sender] >= value, \"ERC20: Insufficient Allowance\") */\n      tag_80\n      jumpi\n      mload(0x40)\n      0x08c379a000000000000000000000000000000000000000000000000000000000\n      dup2\n      mstore\n      0x04\n      add\n      tag_81\n      swap1\n      tag_82\n      jump\t// in\n    tag_81:\n      mload(0x40)\n      dup1\n      swap2\n      sub\n      swap1\n      revert\n    tag_80:\n        /* \"Inheritance/ERC20.sol\":2558:2563  value */\n      dup2\n        /* \"Inheritance/ERC20.sol\":2527:2536  allowance */\n      0x05\n        /* \"Inheritance/ERC20.sol\":2527:2542  allowance[from] */\n      0x00\n        /* \"Inheritance/ERC20.sol\":2537:2541  from */\n      dup7\n        /* \"Inheritance/ERC20.sol\":2527:2542  allowance[from] */\n      0xffffffffffffffffffffffffffffffffffffffff\n      and\n      0xffffffffffffffffffffffffffffffffffffffff\n      and\n      dup2\n      mstore\n      0x20\n      add\n      swap1\n      dup2\n      mstore\n      0x20\n      add\n      0x00\n      keccak256\n        /* \"Inheritance/ERC20.sol\":2527:2554  allowance[from][msg.sender] */\n      0x00\n        /* \"Inheritance/ERC20.sol\":2543:2553  msg.sender */\n      caller\n        /* \"Inheritance/ERC20.sol\":2527:2554  allowance[from][msg.sender] */\n      0xffffffffffffffffffffffffffffffffffffffff\n      and\n      0xffffffffffffffffffffffffffffffffffffffff\n      and\n      dup2\n      mstore\n      0x20\n      add\n      swap1\n      dup2\n      mstore\n      0x20\n      add\n      0x00\n      keccak256\n      0x00\n        /* \"Inheritance/ERC20.sol\":2527:2563  allowance[from][msg.sender] -= value */\n      dup3\n      dup3\n      sload\n      tag_83\n      swap2\n      swap1\n      tag_84\n      jump\t// in\n    tag_83:\n      swap3\n      pop\n      pop\n      dup2\n      swap1\n      sstore\n      pop\n        /* \"Inheritance/ERC20.sol\":2593:2603  msg.sender */\n      caller\n        /* \"Inheritance/ERC20.sol\":2578:2633  Approval(from, msg.sender, allowance[from][msg.sender]) */\n      0xffffffffffffffffffffffffffffffffffffffff\n      and\n        /* \"Inheritance/ERC20.sol\":2587:2591  from */\n      dup5\n        /* \"Inheritance/ERC20.sol\":2578:2633  Approval(from, msg.sender, allowance[from][msg.sender]) */\n      0xffffffffffffffffffffffffffffffffffffffff\n      and\n      0x8c5be1e5ebec7d5bd14f71427d1e84f3dd0314c0f7b2291e5b200ac8c7c3b925\n        /* \"Inheritance/ERC20.sol\":2605:2614  allowance */\n      0x05\n        /* \"Inheritance/ERC20.sol\":2605:2620  allowance[from] */\n      0x00\n        /* \"Inheritance/ERC20.sol\":2615:2619  from */\n      dup9\n        /* \"Inheritance/ERC20.sol\":2605:2620  allowance[from] */\n      0xffffffffffffffffffffffffffffffffffffffff\n      and\n      0xffffffffffffffffffffffffffffffffffffffff\n      and\n      dup2\n      mstore\n      0x20\n      add\n      swap1\n      dup2\n      mstore\n      0x20\n      add\n      0x00\n      keccak256\n        /* \"Inheritance/ERC20.sol\":2605:2632  allowance[from][msg.sender] */\n      0x00\n        /* \"Inheritance/ERC20.sol\":2621:2631  msg.sender */\n      caller\n        /* \"Inheritance/ERC20.sol\":2605:2632  allowance[from][msg.sender] */\n      0xffffffffffffffffffffffffffffffffffffffff\n      and\n      0xffffffffffffffffffffffffffffffffffffffff\n      and\n      dup2\n      mstore\n      0x20\n      add\n      swap1\n      dup2\n      mstore\n      0x20\n      add\n      0x00\n      keccak256\n      sload\n        /* \"Inheritance/ERC20.sol\":2578:2633  Approval(from, msg.sender, allowance[from][msg.sender]) */\n      mload(0x40)\n      tag_85\n      swap2\n      swap1\n      tag_31\n      jump\t// in\n    tag_85:\n      mload(0x40)\n      dup1\n      swap2\n      sub\n      swap1\n      log3\n        /* \"Inheritance/ERC20.sol\":2679:2705  _transfer(from, to, value) */\n      tag_86\n        /* \"Inheritance/ERC20.sol\":2689:2693  from */\n      dup5\n        /* \"Inheritance/ERC20.sol\":2695:2697  to */\n      dup5\n        /* \"Inheritance/ERC20.sol\":2699:2704  value */\n      dup5\n        /* \"Inheritance/ERC20.sol\":2679:2688  _transfer */\n      tag_87\n        /* \"Inheritance/ERC20.sol\":2679:2705  _transfer(from, to, value) */\n      jump\t// in\n    tag_86:\n        /* \"Inheritance/ERC20.sol\":2672:2705  return _transfer(from, to, value) */\n      swap1\n      pop\n        /* \"Inheritance/ERC20.sol\":2342:2712  function transferFrom(address from, address to, uint256 value) external returns (bool) {... */\n      swap4\n      swap3\n      pop\n      pop\n      pop\n      jump\t// out\n        /* \"Inheritance/ERC20.sol\":577:608  uint8 public immutable decimals */\n    tag_38:\n      immutable(\"0x5ca7b081b8c6c57b0469c340dba43ec8d33c0b898c69e55c4f74ff7ed9ac71ea\")\n      dup2\n      jump\t// out\n        /* \"Inheritance/ERC20.sol\":1819:1912  function mint(address to, uint256 value) external onlyOwner {... */\n    tag_43:\n        /* \"Inheritance/ERC20.sol\":248:253  owner */\n      0x03\n      0x00\n      swap1\n      sload\n      swap1\n      0x0100\n      exp\n      swap1\n      div\n      0xffffffffffffffffffffffffffffffffffffffff\n      and\n        /* \"Inheritance/ERC20.sol\":234:253  msg.sender == owner */\n      0xffffffffffffffffffffffffffffffffffffffff\n      and\n        /* \"Inheritance/ERC20.sol\":234:244  msg.sender */\n      caller\n        /* \"Inheritance/ERC20.sol\":234:253  msg.sender == owner */\n      0xffffffffffffffffffffffffffffffffffffffff\n      and\n      eq\n        /* \"Inheritance/ERC20.sol\":226:267  require(msg.sender == owner, \"Not owner\") */\n      tag_89\n      jumpi\n      mload(0x40)\n      0x08c379a000000000000000000000000000000000000000000000000000000000\n      dup2\n      mstore\n      0x04\n      add\n      tag_90\n      swap1\n      tag_91\n      jump\t// in\n    tag_90:\n      mload(0x40)\n      dup1\n      swap2\n      sub\n      swap1\n      revert\n    tag_89:\n        /* \"Inheritance/ERC20.sol\":1889:1905  _mint(to, value) */\n      tag_93\n        /* \"Inheritance/ERC20.sol\":1895:1897  to */\n      dup3\n        /* \"Inheritance/ERC20.sol\":1899:1904  value */\n      dup3\n        /* \"Inheritance/ERC20.sol\":1889:1894  _mint */\n      tag_94\n        /* \"Inheritance/ERC20.sol\":1889:1905  _mint(to, value) */\n      jump\t// in\n    tag_93:\n        /* \"Inheritance/ERC20.sol\":1819:1912  function mint(address to, uint256 value) external onlyOwner {... */\n      pop\n      pop\n      jump\t// out\n        /* \"Inheritance/ERC20.sol\":789:834  mapping (address => uint256) public balanceOf */\n    tag_47:\n      mstore(0x20, 0x04)\n      dup1\n      0x00\n      mstore\n      keccak256(0x00, 0x40)\n      0x00\n      swap2\n      pop\n      swap1\n      pop\n      sload\n      dup2\n      jump\t// out\n        /* \"Inheritance/ERC20.sol\":696:716  address public owner */\n    tag_50:\n      0x03\n      0x00\n      swap1\n      sload\n      swap1\n      0x0100\n      exp\n      swap1\n      div\n      0xffffffffffffffffffffffffffffffffffffffff\n      and\n      dup2\n      jump\t// out\n        /* \"Inheritance/ERC20.sol\":551:571  string public symbol */\n    tag_54:\n      0x01\n      dup1\n      sload\n      tag_95\n      swap1\n      tag_72\n      jump\t// in\n    tag_95:\n      dup1\n      0x1f\n      add\n      0x20\n      dup1\n      swap2\n      div\n      mul\n      0x20\n      add\n      mload(0x40)\n      swap1\n      dup2\n      add\n      0x40\n      mstore\n      dup1\n      swap3\n      swap2\n      swap1\n      dup2\n      dup2\n      mstore\n      0x20\n      add\n      dup3\n      dup1\n      sload\n      tag_96\n      swap1\n      tag_72\n      jump\t// in\n    tag_96:\n      dup1\n      iszero\n      tag_97\n      jumpi\n      dup1\n      0x1f\n      lt\n      tag_98\n      jumpi\n      0x0100\n      dup1\n      dup4\n      sload\n      div\n      mul\n      dup4\n      mstore\n      swap2\n      0x20\n      add\n      swap2\n      jump(tag_97)\n    tag_98:\n      dup3\n      add\n      swap2\n      swap1\n      0x00\n      mstore\n      keccak256(0x00, 0x20)\n      swap1\n    tag_99:\n      dup2\n      sload\n      dup2\n      mstore\n      swap1\n      0x01\n      add\n      swap1\n      0x20\n      add\n      dup1\n      dup4\n      gt\n      tag_99\n      jumpi\n      dup3\n      swap1\n      sub\n      0x1f\n      and\n      dup3\n      add\n      swap2\n    tag_97:\n      pop\n      pop\n      pop\n      pop\n      pop\n      dup2\n      jump\t// out\n        /* \"Inheritance/ERC20.sol\":2164:2261  function burn(address from, uint256 value) external onlyOwner {... */\n    tag_58:\n        /* \"Inheritance/ERC20.sol\":248:253  owner */\n      0x03\n      0x00\n      swap1\n      sload\n      swap1\n      0x0100\n      exp\n      swap1\n      div\n      0xffffffffffffffffffffffffffffffffffffffff\n      and\n        /* \"Inheritance/ERC20.sol\":234:253  msg.sender == owner */\n      0xffffffffffffffffffffffffffffffffffffffff\n      and\n        /* \"Inheritance/ERC20.sol\":234:244  msg.sender */\n      caller\n        /* \"Inheritance/ERC20.sol\":234:253  msg.sender == owner */\n      0xffffffffffffffffffffffffffffffffffffffff\n      and\n      eq\n        /* \"Inheritance/ERC20.sol\":226:267  require(msg.sender == owner, \"Not owner\") */\n      tag_101\n      jumpi\n      mload(0x40)\n      0x08c379a000000000000000000000000000000000000000000000000000000000\n      dup2\n      mstore\n      0x04\n      add\n      tag_102\n      swap1\n      tag_91\n      jump\t// in\n    tag_102:\n      mload(0x40)\n      dup1\n      swap2\n      sub\n      swap1\n      revert\n    tag_101:\n        /* \"Inheritance/ERC20.sol\":2236:2254  _burn(from, value) */\n      tag_104\n        /* \"Inheritance/ERC20.sol\":2242:2246  from */\n      dup3\n        /* \"Inheritance/ERC20.sol\":2248:2253  value */\n      dup3\n        /* \"Inheritance/ERC20.sol\":2236:2241  _burn */\n      tag_105\n        /* \"Inheritance/ERC20.sol\":2236:2254  _burn(from, value) */\n      jump\t// in\n    tag_104:\n        /* \"Inheritance/ERC20.sol\":2164:2261  function burn(address from, uint256 value) external onlyOwner {... */\n      pop\n      pop\n      jump\t// out\n        /* \"Inheritance/ERC20WithFee.sol\":964:1590  function transfer(address to, uint256 value) public override returns (bool success) {... */\n    tag_61:\n        /* \"Inheritance/ERC20WithFee.sol\":1034:1046  bool success */\n      0x00\n        /* \"Inheritance/ERC20WithFee.sol\":1074:1075  0 */\n      dup1\n        /* \"Inheritance/ERC20WithFee.sol\":1066:1071  value */\n      dup3\n        /* \"Inheritance/ERC20WithFee.sol\":1066:1075  value > 0 */\n      gt\n        /* \"Inheritance/ERC20WithFee.sol\":1058:1108  require(value > 0, \"Value must be greater than 0\") */\n      tag_107\n      jumpi\n      mload(0x40)\n      0x08c379a000000000000000000000000000000000000000000000000000000000\n      dup2\n      mstore\n      0x04\n      add\n      tag_108\n      swap1\n      tag_109\n      jump\t// in\n    tag_108:\n      mload(0x40)\n      dup1\n      swap2\n      sub\n      swap1\n      revert\n    tag_107:\n        /* \"Inheritance/ERC20WithFee.sol\":1119:1130  uint256 fee */\n      0x00\n        /* \"Inheritance/ERC20WithFee.sol\":1133:1152  calculateFee(value) */\n      tag_110\n        /* \"Inheritance/ERC20WithFee.sol\":1146:1151  value */\n      dup4\n        /* \"Inheritance/ERC20WithFee.sol\":1133:1145  calculateFee */\n      tag_111\n        /* \"Inheritance/ERC20WithFee.sol\":1133:1152  calculateFee(value) */\n      jump\t// in\n    tag_110:\n        /* \"Inheritance/ERC20WithFee.sol\":1119:1152  uint256 fee = calculateFee(value) */\n      swap1\n      pop\n        /* \"Inheritance/ERC20WithFee.sol\":1187:1204  uint256 netAmount */\n      0x00\n        /* \"Inheritance/ERC20WithFee.sol\":1215:1218  fee */\n      dup2\n        /* \"Inheritance/ERC20WithFee.sol\":1207:1212  value */\n      dup5\n        /* \"Inheritance/ERC20WithFee.sol\":1207:1218  value - fee */\n      tag_112\n      swap2\n      swap1\n      tag_84\n      jump\t// in\n    tag_112:\n        /* \"Inheritance/ERC20WithFee.sol\":1187:1218  uint256 netAmount = value - fee */\n      swap1\n      pop\n        /* \"Inheritance/ERC20WithFee.sol\":1331:1371  _transfer(msg.sender, feeCollector, fee) */\n      tag_113\n        /* \"Inheritance/ERC20WithFee.sol\":1341:1351  msg.sender */\n      caller\n        /* \"Inheritance/ERC20WithFee.sol\":1353:1365  feeCollector */\n      0x06\n      0x00\n      swap1\n      sload\n      swap1\n      0x0100\n      exp\n      swap1\n      div\n      0xffffffffffffffffffffffffffffffffffffffff\n      and\n        /* \"Inheritance/ERC20WithFee.sol\":1367:1370  fee */\n      dup5\n        /* \"Inheritance/ERC20WithFee.sol\":1331:1340  _transfer */\n      tag_87\n        /* \"Inheritance/ERC20WithFee.sol\":1331:1371  _transfer(msg.sender, feeCollector, fee) */\n      jump\t// in\n    tag_113:\n      pop\n        /* \"Inheritance/ERC20WithFee.sol\":1469:1505  _transfer(msg.sender, to, netAmount) */\n      tag_114\n        /* \"Inheritance/ERC20WithFee.sol\":1479:1489  msg.sender */\n      caller\n        /* \"Inheritance/ERC20WithFee.sol\":1491:1493  to */\n      dup7\n        /* \"Inheritance/ERC20WithFee.sol\":1495:1504  netAmount */\n      dup4\n        /* \"Inheritance/ERC20WithFee.sol\":1469:1478  _transfer */\n      tag_87\n        /* \"Inheritance/ERC20WithFee.sol\":1469:1505  _transfer(msg.sender, to, netAmount) */\n      jump\t// in\n    tag_114:\n      pop\n        /* \"Inheritance/ERC20WithFee.sol\":1579:1583  true */\n      0x01\n        /* \"Inheritance/ERC20WithFee.sol\":1572:1583  return true */\n      swap3\n      pop\n      pop\n      pop\n        /* \"Inheritance/ERC20WithFee.sol\":964:1590  function transfer(address to, uint256 value) public override returns (bool success) {... */\n      swap3\n      swap2\n      pop\n      pop\n      jump\t// out\n        /* \"Inheritance/ERC20WithFee.sol\":245:272  address public feeCollector */\n    tag_64:\n      0x06\n      0x00\n      swap1\n      sload\n      swap1\n      0x0100\n      exp\n      swap1\n      div\n      0xffffffffffffffffffffffffffffffffffffffff\n      and\n      dup2\n      jump\t// out\n        /* \"Inheritance/ERC20.sol\":877:942  mapping (address => mapping(address => uint256)) public allowance */\n    tag_69:\n      mstore(0x20, 0x05)\n      dup2\n      0x00\n      mstore\n      mstore(0x20, keccak256(0x00, 0x40))\n      dup1\n      0x00\n      mstore\n      keccak256(0x00, 0x40)\n      0x00\n      swap2\n      pop\n      swap2\n      pop\n      pop\n      sload\n      dup2\n      jump\t// out\n        /* \"Inheritance/ERC20.sol\":2784:3085  function _transfer(address from, address to, uint256 value) internal returns (bool) {... */\n    tag_87:\n        /* \"Inheritance/ERC20.sol\":2862:2866  bool */\n      0x00\n        /* \"Inheritance/ERC20.sol\":2905:2910  value */\n      dup2\n        /* \"Inheritance/ERC20.sol\":2886:2895  balanceOf */\n      0x04\n        /* \"Inheritance/ERC20.sol\":2886:2901  balanceOf[from] */\n      0x00\n        /* \"Inheritance/ERC20.sol\":2896:2900  from */\n      dup7\n        /* \"Inheritance/ERC20.sol\":2886:2901  balanceOf[from] */\n      0xffffffffffffffffffffffffffffffffffffffff\n      and\n      0xffffffffffffffffffffffffffffffffffffffff\n      and\n      dup2\n      mstore\n      0x20\n      add\n      swap1\n      dup2\n      mstore\n      0x20\n      add\n      0x00\n      keccak256\n      sload\n        /* \"Inheritance/ERC20.sol\":2886:2910  balanceOf[from] >= value */\n      lt\n      iszero\n        /* \"Inheritance/ERC20.sol\":2878:2949  require(balanceOf[from] >= value, \"ERC20: Insufficient sender balance\") */\n      tag_116\n      jumpi\n      mload(0x40)\n      0x08c379a000000000000000000000000000000000000000000000000000000000\n      dup2\n      mstore\n      0x04\n      add\n      tag_117\n      swap1\n      tag_118\n      jump\t// in\n    tag_117:\n      mload(0x40)\n      dup1\n      swap2\n      sub\n      swap1\n      revert\n    tag_116:\n        /* \"Inheritance/ERC20.sol\":2979:2984  value */\n      dup2\n        /* \"Inheritance/ERC20.sol\":2960:2969  balanceOf */\n      0x04\n        /* \"Inheritance/ERC20.sol\":2960:2975  balanceOf[from] */\n      0x00\n        /* \"Inheritance/ERC20.sol\":2970:2974  from */\n      dup7\n        /* \"Inheritance/ERC20.sol\":2960:2975  balanceOf[from] */\n      0xffffffffffffffffffffffffffffffffffffffff\n      and\n      0xffffffffffffffffffffffffffffffffffffffff\n      and\n      dup2\n      mstore\n      0x20\n      add\n      swap1\n      dup2\n      mstore\n      0x20\n      add\n      0x00\n      keccak256\n      0x00\n        /* \"Inheritance/ERC20.sol\":2960:2984  balanceOf[from] -= value */\n      dup3\n      dup3\n      sload\n      tag_119\n      swap2\n      swap1\n      tag_84\n      jump\t// in\n    tag_119:\n      swap3\n      pop\n      pop\n      dup2\n      swap1\n      sstore\n      pop\n        /* \"Inheritance/ERC20.sol\":3011:3016  value */\n      dup2\n        /* \"Inheritance/ERC20.sol\":2994:3003  balanceOf */\n      0x04\n        /* \"Inheritance/ERC20.sol\":2994:3007  balanceOf[to] */\n      0x00\n        /* \"Inheritance/ERC20.sol\":3004:3006  to */\n      dup6\n        /* \"Inheritance/ERC20.sol\":2994:3007  balanceOf[to] */\n      0xffffffffffffffffffffffffffffffffffffffff\n      and\n      0xffffffffffffffffffffffffffffffffffffffff\n      and\n      dup2\n      mstore\n      0x20\n      add\n      swap1\n      dup2\n      mstore\n      0x20\n      add\n      0x00\n      keccak256\n      0x00\n        /* \"Inheritance/ERC20.sol\":2994:3016  balanceOf[to] += value */\n      dup3\n      dup3\n      sload\n      tag_120\n      swap2\n      swap1\n      tag_121\n      jump\t// in\n    tag_120:\n      swap3\n      pop\n      pop\n      dup2\n      swap1\n      sstore\n      pop\n        /* \"Inheritance/ERC20.sol\":3047:3049  to */\n      dup3\n        /* \"Inheritance/ERC20.sol\":3032:3057  Transfer(from, to, value) */\n      0xffffffffffffffffffffffffffffffffffffffff\n      and\n        /* \"Inheritance/ERC20.sol\":3041:3045  from */\n      dup5\n        /* \"Inheritance/ERC20.sol\":3032:3057  Transfer(from, to, value) */\n      0xffffffffffffffffffffffffffffffffffffffff\n      and\n      0xddf252ad1be2c89b69c2b068fc378daa952ba7f163c4a11628f55a4df523b3ef\n        /* \"Inheritance/ERC20.sol\":3051:3056  value */\n      dup5\n        /* \"Inheritance/ERC20.sol\":3032:3057  Transfer(from, to, value) */\n      mload(0x40)\n      tag_122\n      swap2\n      swap1\n      tag_31\n      jump\t// in\n    tag_122:\n      mload(0x40)\n      dup1\n      swap2\n      sub\n      swap1\n      log3\n        /* \"Inheritance/ERC20.sol\":3074:3078  true */\n      0x01\n        /* \"Inheritance/ERC20.sol\":3067:3078  return true */\n      swap1\n      pop\n        /* \"Inheritance/ERC20.sol\":2784:3085  function _transfer(address from, address to, uint256 value) internal returns (bool) {... */\n      swap4\n      swap3\n      pop\n      pop\n      pop\n      jump\t// out\n        /* \"Inheritance/ERC20.sol\":1552:1760  function _mint(address to, uint256 value) internal {... */\n    tag_94:\n        /* \"Inheritance/ERC20.sol\":1630:1635  value */\n      dup1\n        /* \"Inheritance/ERC20.sol\":1613:1622  balanceOf */\n      0x04\n        /* \"Inheritance/ERC20.sol\":1613:1626  balanceOf[to] */\n      0x00\n        /* \"Inheritance/ERC20.sol\":1623:1625  to */\n      dup5\n        /* \"Inheritance/ERC20.sol\":1613:1626  balanceOf[to] */\n      0xffffffffffffffffffffffffffffffffffffffff\n      and\n      0xffffffffffffffffffffffffffffffffffffffff\n      and\n      dup2\n      mstore\n      0x20\n      add\n      swap1\n      dup2\n      mstore\n      0x20\n      add\n      0x00\n      keccak256\n      0x00\n        /* \"Inheritance/ERC20.sol\":1613:1635  balanceOf[to] += value */\n      dup3\n      dup3\n      sload\n      tag_124\n      swap2\n      swap1\n      tag_121\n      jump\t// in\n    tag_124:\n      swap3\n      pop\n      pop\n      dup2\n      swap1\n      sstore\n      pop\n        /* \"Inheritance/ERC20.sol\":1660:1665  value */\n      dup1\n        /* \"Inheritance/ERC20.sol\":1645:1656  totalSupply */\n      0x02\n      0x00\n        /* \"Inheritance/ERC20.sol\":1645:1665  totalSupply += value */\n      dup3\n      dup3\n      sload\n      tag_125\n      swap2\n      swap1\n      tag_121\n      jump\t// in\n    tag_125:\n      swap3\n      pop\n      pop\n      dup2\n      swap1\n      sstore\n      pop\n        /* \"Inheritance/ERC20.sol\":1701:1703  to */\n      dup2\n        /* \"Inheritance/ERC20.sol\":1680:1711  Transfer(address(0), to, value) */\n      0xffffffffffffffffffffffffffffffffffffffff\n      and\n        /* \"Inheritance/ERC20.sol\":1697:1698  0 */\n      0x00\n        /* \"Inheritance/ERC20.sol\":1680:1711  Transfer(address(0), to, value) */\n      0xffffffffffffffffffffffffffffffffffffffff\n      and\n      0xddf252ad1be2c89b69c2b068fc378daa952ba7f163c4a11628f55a4df523b3ef\n        /* \"Inheritance/ERC20.sol\":1705:1710  value */\n      dup4\n        /* \"Inheritance/ERC20.sol\":1680:1711  Transfer(address(0), to, value) */\n      mload(0x40)\n      tag_126\n      swap2\n      swap1\n      tag_31\n      jump\t// in\n    tag_126:\n      mload(0x40)\n      dup1\n      swap2\n      sub\n      swap1\n      log3\n        /* \"Inheritance/ERC20.sol\":1552:1760  function _mint(address to, uint256 value) internal {... */\n      pop\n      pop\n      jump\t// out\n        /* \"Inheritance/ERC20.sol\":1981:2105  function _burn(address from, uint256 value) internal {... */\n    tag_105:\n        /* \"Inheritance/ERC20.sol\":2063:2068  value */\n      dup1\n        /* \"Inheritance/ERC20.sol\":2044:2053  balanceOf */\n      0x04\n        /* \"Inheritance/ERC20.sol\":2044:2059  balanceOf[from] */\n      0x00\n        /* \"Inheritance/ERC20.sol\":2054:2058  from */\n      dup5\n        /* \"Inheritance/ERC20.sol\":2044:2059  balanceOf[from] */\n      0xffffffffffffffffffffffffffffffffffffffff\n      and\n      0xffffffffffffffffffffffffffffffffffffffff\n      and\n      dup2\n      mstore\n      0x20\n      add\n      swap1\n      dup2\n      mstore\n      0x20\n      add\n      0x00\n      keccak256\n      0x00\n        /* \"Inheritance/ERC20.sol\":2044:2068  balanceOf[from] -= value */\n      dup3\n      dup3\n      sload\n      tag_128\n      swap2\n      swap1\n      tag_84\n      jump\t// in\n    tag_128:\n      swap3\n      pop\n      pop\n      dup2\n      swap1\n      sstore\n      pop\n        /* \"Inheritance/ERC20.sol\":2093:2098  value */\n      dup1\n        /* \"Inheritance/ERC20.sol\":2078:2089  totalSupply */\n      0x02\n      0x00\n        /* \"Inheritance/ERC20.sol\":2078:2098  totalSupply -= value */\n      dup3\n      dup3\n      sload\n      tag_129\n      swap2\n      swap1\n      tag_84\n      jump\t// in\n    tag_129:\n      swap3\n      pop\n      pop\n      dup2\n      swap1\n      sstore\n      pop\n        /* \"Inheritance/ERC20.sol\":1981:2105  function _burn(address from, uint256 value) internal {... */\n      pop\n      pop\n      jump\t// out\n        /* \"Inheritance/ERC20WithFee.sol\":1647:1759  function calculateFee(uint256 _value) internal pure returns (uint256) {... */\n    tag_111:\n        /* \"Inheritance/ERC20WithFee.sol\":1708:1715  uint256 */\n      0x00\n        /* \"Inheritance/ERC20WithFee.sol\":1749:1752  100 */\n      0x64\n        /* \"Inheritance/ERC20WithFee.sol\":1744:1745  1 */\n      0x01\n        /* \"Inheritance/ERC20WithFee.sol\":1735:1741  _value */\n      dup4\n        /* \"Inheritance/ERC20WithFee.sol\":1735:1745  _value * 1 */\n      tag_131\n      swap2\n      swap1\n      tag_132\n      jump\t// in\n    tag_131:\n        /* \"Inheritance/ERC20WithFee.sol\":1734:1752  (_value * 1) / 100 */\n      tag_133\n      swap2\n      swap1\n      tag_134\n      jump\t// in\n    tag_133:\n        /* \"Inheritance/ERC20WithFee.sol\":1727:1752  return (_value * 1) / 100 */\n      swap1\n      pop\n        /* \"Inheritance/ERC20WithFee.sol\":1647:1759  function calculateFee(uint256 _value) internal pure returns (uint256) {... */\n      swap2\n      swap1\n      pop\n      jump\t// out\n        /* \"#utility.yul\":7:106   */\n    tag_135:\n        /* \"#utility.yul\":59:65   */\n      0x00\n        /* \"#utility.yul\":93:98   */\n      dup2\n        /* \"#utility.yul\":87:99   */\n      mload\n        /* \"#utility.yul\":77:99   */\n      swap1\n      pop\n        /* \"#utility.yul\":7:106   */\n      swap2\n      swap1\n      pop\n      jump\t// out\n        /* \"#utility.yul\":112:281   */\n    tag_136:\n        /* \"#utility.yul\":196:207   */\n      0x00\n        /* \"#utility.yul\":230:236   */\n      dup3\n        /* \"#utility.yul\":225:228   */\n      dup3\n        /* \"#utility.yul\":218:237   */\n      mstore\n        /* \"#utility.yul\":270:274   */\n      0x20\n        /* \"#utility.yul\":265:268   */\n      dup3\n        /* \"#utility.yul\":261:275   */\n      add\n        /* \"#utility.yul\":246:275   */\n      swap1\n      pop\n        /* \"#utility.yul\":112:281   */\n      swap3\n      swap2\n      pop\n      pop\n      jump\t// out\n        /* \"#utility.yul\":287:426   */\n    tag_137:\n        /* \"#utility.yul\":376:382   */\n      dup3\n        /* \"#utility.yul\":371:374   */\n      dup2\n        /* \"#utility.yul\":366:369   */\n      dup4\n        /* \"#utility.yul\":360:383   */\n      mcopy\n        /* \"#utility.yul\":417:418   */\n      0x00\n        /* \"#utility.yul\":408:414   */\n      dup4\n        /* \"#utility.yul\":403:406   */\n      dup4\n        /* \"#utility.yul\":399:415   */\n      add\n        /* \"#utility.yul\":392:419   */\n      mstore\n        /* \"#utility.yul\":287:426   */\n      pop\n      pop\n      pop\n      jump\t// out\n        /* \"#utility.yul\":432:534   */\n    tag_138:\n        /* \"#utility.yul\":473:479   */\n      0x00\n        /* \"#utility.yul\":524:526   */\n      0x1f\n        /* \"#utility.yul\":520:527   */\n      not\n        /* \"#utility.yul\":515:517   */\n      0x1f\n        /* \"#utility.yul\":508:513   */\n      dup4\n        /* \"#utility.yul\":504:518   */\n      add\n        /* \"#utility.yul\":500:528   */\n      and\n        /* \"#utility.yul\":490:528   */\n      swap1\n      pop\n        /* \"#utility.yul\":432:534   */\n      swap2\n      swap1\n      pop\n      jump\t// out\n        /* \"#utility.yul\":540:917   */\n    tag_139:\n        /* \"#utility.yul\":628:631   */\n      0x00\n        /* \"#utility.yul\":656:695   */\n      tag_173\n        /* \"#utility.yul\":689:694   */\n      dup3\n        /* \"#utility.yul\":656:695   */\n      tag_135\n      jump\t// in\n    tag_173:\n        /* \"#utility.yul\":711:782   */\n      tag_174\n        /* \"#utility.yul\":775:781   */\n      dup2\n        /* \"#utility.yul\":770:773   */\n      dup6\n        /* \"#utility.yul\":711:782   */\n      tag_136\n      jump\t// in\n    tag_174:\n        /* \"#utility.yul\":704:782   */\n      swap4\n      pop\n        /* \"#utility.yul\":791:856   */\n      tag_175\n        /* \"#utility.yul\":849:855   */\n      dup2\n        /* \"#utility.yul\":844:847   */\n      dup6\n        /* \"#utility.yul\":837:841   */\n      0x20\n        /* \"#utility.yul\":830:835   */\n      dup7\n        /* \"#utility.yul\":826:842   */\n      add\n        /* \"#utility.yul\":791:856   */\n      tag_137\n      jump\t// in\n    tag_175:\n        /* \"#utility.yul\":881:910   */\n      tag_176\n        /* \"#utility.yul\":903:909   */\n      dup2\n        /* \"#utility.yul\":881:910   */\n      tag_138\n      jump\t// in\n    tag_176:\n        /* \"#utility.yul\":876:879   */\n      dup5\n        /* \"#utility.yul\":872:911   */\n      add\n        /* \"#utility.yul\":865:911   */\n      swap2\n      pop\n        /* \"#utility.yul\":632:917   */\n      pop\n        /* \"#utility.yul\":540:917   */\n      swap3\n      swap2\n      pop\n      pop\n      jump\t// out\n        /* \"#utility.yul\":923:1236   */\n    tag_21:\n        /* \"#utility.yul\":1036:1040   */\n      0x00\n        /* \"#utility.yul\":1074:1076   */\n      0x20\n        /* \"#utility.yul\":1063:1072   */\n      dup3\n        /* \"#utility.yul\":1059:1077   */\n      add\n        /* \"#utility.yul\":1051:1077   */\n      swap1\n      pop\n        /* \"#utility.yul\":1123:1132   */\n      dup2\n        /* \"#utility.yul\":1117:1121   */\n      dup2\n        /* \"#utility.yul\":1113:1133   */\n      sub\n        /* \"#utility.yul\":1109:1110   */\n      0x00\n        /* \"#utility.yul\":1098:1107   */\n      dup4\n        /* \"#utility.yul\":1094:1111   */\n      add\n        /* \"#utility.yul\":1087:1134   */\n      mstore\n        /* \"#utility.yul\":1151:1229   */\n      tag_178\n        /* \"#utility.yul\":1224:1228   */\n      dup2\n        /* \"#utility.yul\":1215:1221   */\n      dup5\n        /* \"#utility.yul\":1151:1229   */\n      tag_139\n      jump\t// in\n    tag_178:\n        /* \"#utility.yul\":1143:1229   */\n      swap1\n      pop\n        /* \"#utility.yul\":923:1236   */\n      swap3\n      swap2\n      pop\n      pop\n      jump\t// out\n        /* \"#utility.yul\":1323:1440   */\n    tag_141:\n        /* \"#utility.yul\":1432:1433   */\n      0x00\n        /* \"#utility.yul\":1429:1430   */\n      dup1\n        /* \"#utility.yul\":1422:1434   */\n      revert\n        /* \"#utility.yul\":1569:1695   */\n    tag_143:\n        /* \"#utility.yul\":1606:1613   */\n      0x00\n        /* \"#utility.yul\":1646:1688   */\n      0xffffffffffffffffffffffffffffffffffffffff\n        /* \"#utility.yul\":1639:1644   */\n      dup3\n        /* \"#utility.yul\":1635:1689   */\n      and\n        /* \"#utility.yul\":1624:1689   */\n      swap1\n      pop\n        /* \"#utility.yul\":1569:1695   */\n      swap2\n      swap1\n      pop\n      jump\t// out\n        /* \"#utility.yul\":1701:1797   */\n    tag_144:\n        /* \"#utility.yul\":1738:1745   */\n      0x00\n        /* \"#utility.yul\":1767:1791   */\n      tag_184\n        /* \"#utility.yul\":1785:1790   */\n      dup3\n        /* \"#utility.yul\":1767:1791   */\n      tag_143\n      jump\t// in\n    tag_184:\n        /* \"#utility.yul\":1756:1791   */\n      swap1\n      pop\n        /* \"#utility.yul\":1701:1797   */\n      swap2\n      swap1\n      pop\n      jump\t// out\n        /* \"#utility.yul\":1803:1925   */\n    tag_145:\n        /* \"#utility.yul\":1876:1900   */\n      tag_186\n        /* \"#utility.yul\":1894:1899   */\n      dup2\n        /* \"#utility.yul\":1876:1900   */\n      tag_144\n      jump\t// in\n    tag_186:\n        /* \"#utility.yul\":1869:1874   */\n      dup2\n        /* \"#utility.yul\":1866:1901   */\n      eq\n        /* \"#utility.yul\":1856:1919   */\n      tag_187\n      jumpi\n        /* \"#utility.yul\":1915:1916   */\n      0x00\n        /* \"#utility.yul\":1912:1913   */\n      dup1\n        /* \"#utility.yul\":1905:1917   */\n      revert\n        /* \"#utility.yul\":1856:1919   */\n    tag_187:\n        /* \"#utility.yul\":1803:1925   */\n      pop\n      jump\t// out\n        /* \"#utility.yul\":1931:2070   */\n    tag_146:\n        /* \"#utility.yul\":1977:1982   */\n      0x00\n        /* \"#utility.yul\":2015:2021   */\n      dup2\n        /* \"#utility.yul\":2002:2022   */\n      calldataload\n        /* \"#utility.yul\":1993:2022   */\n      swap1\n      pop\n        /* \"#utility.yul\":2031:2064   */\n      tag_189\n        /* \"#utility.yul\":2058:2063   */\n      dup2\n        /* \"#utility.yul\":2031:2064   */\n      tag_145\n      jump\t// in\n    tag_189:\n        /* \"#utility.yul\":1931:2070   */\n      swap3\n      swap2\n      pop\n      pop\n      jump\t// out\n        /* \"#utility.yul\":2076:2153   */\n    tag_147:\n        /* \"#utility.yul\":2113:2120   */\n      0x00\n        /* \"#utility.yul\":2142:2147   */\n      dup2\n        /* \"#utility.yul\":2131:2147   */\n      swap1\n      pop\n        /* \"#utility.yul\":2076:2153   */\n      swap2\n      swap1\n      pop\n      jump\t// out\n        /* \"#utility.yul\":2159:2281   */\n    tag_148:\n        /* \"#utility.yul\":2232:2256   */\n      tag_192\n        /* \"#utility.yul\":2250:2255   */\n      dup2\n        /* \"#utility.yul\":2232:2256   */\n      tag_147\n      jump\t// in\n    tag_192:\n        /* \"#utility.yul\":2225:2230   */\n      dup2\n        /* \"#utility.yul\":2222:2257   */\n      eq\n        /* \"#utility.yul\":2212:2275   */\n      tag_193\n      jumpi\n        /* \"#utility.yul\":2271:2272   */\n      0x00\n        /* \"#utility.yul\":2268:2269   */\n      dup1\n        /* \"#utility.yul\":2261:2273   */\n      revert\n        /* \"#utility.yul\":2212:2275   */\n    tag_193:\n        /* \"#utility.yul\":2159:2281   */\n      pop\n      jump\t// out\n        /* \"#utility.yul\":2287:2426   */\n    tag_149:\n        /* \"#utility.yul\":2333:2338   */\n      0x00\n        /* \"#utility.yul\":2371:2377   */\n      dup2\n        /* \"#utility.yul\":2358:2378   */\n      calldataload\n        /* \"#utility.yul\":2349:2378   */\n      swap1\n      pop\n        /* \"#utility.yul\":2387:2420   */\n      tag_195\n        /* \"#utility.yul\":2414:2419   */\n      dup2\n        /* \"#utility.yul\":2387:2420   */\n      tag_148\n      jump\t// in\n    tag_195:\n        /* \"#utility.yul\":2287:2426   */\n      swap3\n      swap2\n      pop\n      pop\n      jump\t// out\n        /* \"#utility.yul\":2432:2906   */\n    tag_24:\n        /* \"#utility.yul\":2500:2506   */\n      0x00\n        /* \"#utility.yul\":2508:2514   */\n      dup1\n        /* \"#utility.yul\":2557:2559   */\n      0x40\n        /* \"#utility.yul\":2545:2554   */\n      dup4\n        /* \"#utility.yul\":2536:2543   */\n      dup6\n        /* \"#utility.yul\":2532:2555   */\n      sub\n        /* \"#utility.yul\":2528:2560   */\n      slt\n        /* \"#utility.yul\":2525:2644   */\n      iszero\n      tag_197\n      jumpi\n        /* \"#utility.yul\":2563:2642   */\n      tag_198\n      tag_141\n      jump\t// in\n    tag_198:\n        /* \"#utility.yul\":2525:2644   */\n    tag_197:\n        /* \"#utility.yul\":2683:2684   */\n      0x00\n        /* \"#utility.yul\":2708:2761   */\n      tag_199\n        /* \"#utility.yul\":2753:2760   */\n      dup6\n        /* \"#utility.yul\":2744:2750   */\n      dup3\n        /* \"#utility.yul\":2733:2742   */\n      dup7\n        /* \"#utility.yul\":2729:2751   */\n      add\n        /* \"#utility.yul\":2708:2761   */\n      tag_146\n      jump\t// in\n    tag_199:\n        /* \"#utility.yul\":2698:2761   */\n      swap3\n      pop\n        /* \"#utility.yul\":2654:2771   */\n      pop\n        /* \"#utility.yul\":2810:2812   */\n      0x20\n        /* \"#utility.yul\":2836:2889   */\n      tag_200\n        /* \"#utility.yul\":2881:2888   */\n      dup6\n        /* \"#utility.yul\":2872:2878   */\n      dup3\n        /* \"#utility.yul\":2861:2870   */\n      dup7\n        /* \"#utility.yul\":2857:2879   */\n      add\n        /* \"#utility.yul\":2836:2889   */\n      tag_149\n      jump\t// in\n    tag_200:\n        /* \"#utility.yul\":2826:2889   */\n      swap2\n      pop\n        /* \"#utility.yul\":2781:2899   */\n      pop\n        /* \"#utility.yul\":2432:2906   */\n      swap3\n      pop\n      swap3\n      swap1\n      pop\n      jump\t// out\n        /* \"#utility.yul\":2912:3002   */\n    tag_150:\n        /* \"#utility.yul\":2946:2953   */\n      0x00\n        /* \"#utility.yul\":2989:2994   */\n      dup2\n        /* \"#utility.yul\":2982:2995   */\n      iszero\n        /* \"#utility.yul\":2975:2996   */\n      iszero\n        /* \"#utility.yul\":2964:2996   */\n      swap1\n      pop\n        /* \"#utility.yul\":2912:3002   */\n      swap2\n      swap1\n      pop\n      jump\t// out\n        /* \"#utility.yul\":3008:3117   */\n    tag_151:\n        /* \"#utility.yul\":3089:3110   */\n      tag_203\n        /* \"#utility.yul\":3104:3109   */\n      dup2\n        /* \"#utility.yul\":3089:3110   */\n      tag_150\n      jump\t// in\n    tag_203:\n        /* \"#utility.yul\":3084:3087   */\n      dup3\n        /* \"#utility.yul\":3077:3111   */\n      mstore\n        /* \"#utility.yul\":3008:3117   */\n      pop\n      pop\n      jump\t// out\n        /* \"#utility.yul\":3123:3333   */\n    tag_27:\n        /* \"#utility.yul\":3210:3214   */\n      0x00\n        /* \"#utility.yul\":3248:3250   */\n      0x20\n        /* \"#utility.yul\":3237:3246   */\n      dup3\n        /* \"#utility.yul\":3233:3251   */\n      add\n        /* \"#utility.yul\":3225:3251   */\n      swap1\n      pop\n        /* \"#utility.yul\":3261:3326   */\n      tag_205\n        /* \"#utility.yul\":3323:3324   */\n      0x00\n        /* \"#utility.yul\":3312:3321   */\n      dup4\n        /* \"#utility.yul\":3308:3325   */\n      add\n        /* \"#utility.yul\":3299:3305   */\n      dup5\n        /* \"#utility.yul\":3261:3326   */\n      tag_151\n      jump\t// in\n    tag_205:\n        /* \"#utility.yul\":3123:3333   */\n      swap3\n      swap2\n      pop\n      pop\n      jump\t// out\n        /* \"#utility.yul\":3339:3457   */\n    tag_152:\n        /* \"#utility.yul\":3426:3450   */\n      tag_207\n        /* \"#utility.yul\":3444:3449   */\n      dup2\n        /* \"#utility.yul\":3426:3450   */\n      tag_147\n      jump\t// in\n    tag_207:\n        /* \"#utility.yul\":3421:3424   */\n      dup3\n        /* \"#utility.yul\":3414:3451   */\n      mstore\n        /* \"#utility.yul\":3339:3457   */\n      pop\n      pop\n      jump\t// out\n        /* \"#utility.yul\":3463:3685   */\n    tag_31:\n        /* \"#utility.yul\":3556:3560   */\n      0x00\n        /* \"#utility.yul\":3594:3596   */\n      0x20\n        /* \"#utility.yul\":3583:3592   */\n      dup3\n        /* \"#utility.yul\":3579:3597   */\n      add\n        /* \"#utility.yul\":3571:3597   */\n      swap1\n      pop\n        /* \"#utility.yul\":3607:3678   */\n      tag_209\n        /* \"#utility.yul\":3675:3676   */\n      0x00\n        /* \"#utility.yul\":3664:3673   */\n      dup4\n        /* \"#utility.yul\":3660:3677   */\n      add\n        /* \"#utility.yul\":3651:3657   */\n      dup5\n        /* \"#utility.yul\":3607:3678   */\n      tag_152\n      jump\t// in\n    tag_209:\n        /* \"#utility.yul\":3463:3685   */\n      swap3\n      swap2\n      pop\n      pop\n      jump\t// out\n        /* \"#utility.yul\":3691:4310   */\n    tag_34:\n        /* \"#utility.yul\":3768:3774   */\n      0x00\n        /* \"#utility.yul\":3776:3782   */\n      dup1\n        /* \"#utility.yul\":3784:3790   */\n      0x00\n        /* \"#utility.yul\":3833:3835   */\n      0x60\n        /* \"#utility.yul\":3821:3830   */\n      dup5\n        /* \"#utility.yul\":3812:3819   */\n      dup7\n        /* \"#utility.yul\":3808:3831   */\n      sub\n        /* \"#utility.yul\":3804:3836   */\n      slt\n        /* \"#utility.yul\":3801:3920   */\n      iszero\n      tag_211\n      jumpi\n        /* \"#utility.yul\":3839:3918   */\n      tag_212\n      tag_141\n      jump\t// in\n    tag_212:\n        /* \"#utility.yul\":3801:3920   */\n    tag_211:\n        /* \"#utility.yul\":3959:3960   */\n      0x00\n        /* \"#utility.yul\":3984:4037   */\n      tag_213\n        /* \"#utility.yul\":4029:4036   */\n      dup7\n        /* \"#utility.yul\":4020:4026   */\n      dup3\n        /* \"#utility.yul\":4009:4018   */\n      dup8\n        /* \"#utility.yul\":4005:4027   */\n      add\n        /* \"#utility.yul\":3984:4037   */\n      tag_146\n      jump\t// in\n    tag_213:\n        /* \"#utility.yul\":3974:4037   */\n      swap4\n      pop\n        /* \"#utility.yul\":3930:4047   */\n      pop\n        /* \"#utility.yul\":4086:4088   */\n      0x20\n        /* \"#utility.yul\":4112:4165   */\n      tag_214\n        /* \"#utility.yul\":4157:4164   */\n      dup7\n        /* \"#utility.yul\":4148:4154   */\n      dup3\n        /* \"#utility.yul\":4137:4146   */\n      dup8\n        /* \"#utility.yul\":4133:4155   */\n      add\n        /* \"#utility.yul\":4112:4165   */\n      tag_146\n      jump\t// in\n    tag_214:\n        /* \"#utility.yul\":4102:4165   */\n      swap3\n      pop\n        /* \"#utility.yul\":4057:4175   */\n      pop\n        /* \"#utility.yul\":4214:4216   */\n      0x40\n        /* \"#utility.yul\":4240:4293   */\n      tag_215\n        /* \"#utility.yul\":4285:4292   */\n      dup7\n        /* \"#utility.yul\":4276:4282   */\n      dup3\n        /* \"#utility.yul\":4265:4274   */\n      dup8\n        /* \"#utility.yul\":4261:4283   */\n      add\n        /* \"#utility.yul\":4240:4293   */\n      tag_149\n      jump\t// in\n    tag_215:\n        /* \"#utility.yul\":4230:4293   */\n      swap2\n      pop\n        /* \"#utility.yul\":4185:4303   */\n      pop\n        /* \"#utility.yul\":3691:4310   */\n      swap3\n      pop\n      swap3\n      pop\n      swap3\n      jump\t// out\n        /* \"#utility.yul\":4316:4402   */\n    tag_153:\n        /* \"#utility.yul\":4351:4358   */\n      0x00\n        /* \"#utility.yul\":4391:4395   */\n      0xff\n        /* \"#utility.yul\":4384:4389   */\n      dup3\n        /* \"#utility.yul\":4380:4396   */\n      and\n        /* \"#utility.yul\":4369:4396   */\n      swap1\n      pop\n        /* \"#utility.yul\":4316:4402   */\n      swap2\n      swap1\n      pop\n      jump\t// out\n        /* \"#utility.yul\":4408:4520   */\n    tag_154:\n        /* \"#utility.yul\":4491:4513   */\n      tag_218\n        /* \"#utility.yul\":4507:4512   */\n      dup2\n        /* \"#utility.yul\":4491:4513   */\n      tag_153\n      jump\t// in\n    tag_218:\n        /* \"#utility.yul\":4486:4489   */\n      dup3\n        /* \"#utility.yul\":4479:4514   */\n      mstore\n        /* \"#utility.yul\":4408:4520   */\n      pop\n      pop\n      jump\t// out\n        /* \"#utility.yul\":4526:4740   */\n    tag_40:\n        /* \"#utility.yul\":4615:4619   */\n      0x00\n        /* \"#utility.yul\":4653:4655   */\n      0x20\n        /* \"#utility.yul\":4642:4651   */\n      dup3\n        /* \"#utility.yul\":4638:4656   */\n      add\n        /* \"#utility.yul\":4630:4656   */\n      swap1\n      pop\n        /* \"#utility.yul\":4666:4733   */\n      tag_220\n        /* \"#utility.yul\":4730:4731   */\n      0x00\n        /* \"#utility.yul\":4719:4728   */\n      dup4\n        /* \"#utility.yul\":4715:4732   */\n      add\n        /* \"#utility.yul\":4706:4712   */\n      dup5\n        /* \"#utility.yul\":4666:4733   */\n      tag_154\n      jump\t// in\n    tag_220:\n        /* \"#utility.yul\":4526:4740   */\n      swap3\n      swap2\n      pop\n      pop\n      jump\t// out\n        /* \"#utility.yul\":4746:5075   */\n    tag_46:\n        /* \"#utility.yul\":4805:4811   */\n      0x00\n        /* \"#utility.yul\":4854:4856   */\n      0x20\n        /* \"#utility.yul\":4842:4851   */\n      dup3\n        /* \"#utility.yul\":4833:4840   */\n      dup5\n        /* \"#utility.yul\":4829:4852   */\n      sub\n        /* \"#utility.yul\":4825:4857   */\n      slt\n        /* \"#utility.yul\":4822:4941   */\n      iszero\n      tag_222\n      jumpi\n        /* \"#utility.yul\":4860:4939   */\n      tag_223\n      tag_141\n      jump\t// in\n    tag_223:\n        /* \"#utility.yul\":4822:4941   */\n    tag_222:\n        /* \"#utility.yul\":4980:4981   */\n      0x00\n        /* \"#utility.yul\":5005:5058   */\n      tag_224\n        /* \"#utility.yul\":5050:5057   */\n      dup5\n        /* \"#utility.yul\":5041:5047   */\n      dup3\n        /* \"#utility.yul\":5030:5039   */\n      dup6\n        /* \"#utility.yul\":5026:5048   */\n      add\n        /* \"#utility.yul\":5005:5058   */\n      tag_146\n      jump\t// in\n    tag_224:\n        /* \"#utility.yul\":4995:5058   */\n      swap2\n      pop\n        /* \"#utility.yul\":4951:5068   */\n      pop\n        /* \"#utility.yul\":4746:5075   */\n      swap3\n      swap2\n      pop\n      pop\n      jump\t// out\n        /* \"#utility.yul\":5081:5199   */\n    tag_155:\n        /* \"#utility.yul\":5168:5192   */\n      tag_226\n        /* \"#utility.yul\":5186:5191   */\n      dup2\n        /* \"#utility.yul\":5168:5192   */\n      tag_144\n      jump\t// in\n    tag_226:\n        /* \"#utility.yul\":5163:5166   */\n      dup3\n        /* \"#utility.yul\":5156:5193   */\n      mstore\n        /* \"#utility.yul\":5081:5199   */\n      pop\n      pop\n      jump\t// out\n        /* \"#utility.yul\":5205:5427   */\n    tag_52:\n        /* \"#utility.yul\":5298:5302   */\n      0x00\n        /* \"#utility.yul\":5336:5338   */\n      0x20\n        /* \"#utility.yul\":5325:5334   */\n      dup3\n        /* \"#utility.yul\":5321:5339   */\n      add\n        /* \"#utility.yul\":5313:5339   */\n      swap1\n      pop\n        /* \"#utility.yul\":5349:5420   */\n      tag_228\n        /* \"#utility.yul\":5417:5418   */\n      0x00\n        /* \"#utility.yul\":5406:5415   */\n      dup4\n        /* \"#utility.yul\":5402:5419   */\n      add\n        /* \"#utility.yul\":5393:5399   */\n      dup5\n        /* \"#utility.yul\":5349:5420   */\n      tag_155\n      jump\t// in\n    tag_228:\n        /* \"#utility.yul\":5205:5427   */\n      swap3\n      swap2\n      pop\n      pop\n      jump\t// out\n        /* \"#utility.yul\":5433:5907   */\n    tag_68:\n        /* \"#utility.yul\":5501:5507   */\n      0x00\n        /* \"#utility.yul\":5509:5515   */\n      dup1\n        /* \"#utility.yul\":5558:5560   */\n      0x40\n        /* \"#utility.yul\":5546:5555   */\n      dup4\n        /* \"#utility.yul\":5537:5544   */\n      dup6\n        /* \"#utility.yul\":5533:5556   */\n      sub\n        /* \"#utility.yul\":5529:5561   */\n      slt\n        /* \"#utility.yul\":5526:5645   */\n      iszero\n      tag_230\n      jumpi\n        /* \"#utility.yul\":5564:5643   */\n      tag_231\n      tag_141\n      jump\t// in\n    tag_231:\n        /* \"#utility.yul\":5526:5645   */\n    tag_230:\n        /* \"#utility.yul\":5684:5685   */\n      0x00\n        /* \"#utility.yul\":5709:5762   */\n      tag_232\n        /* \"#utility.yul\":5754:5761   */\n      dup6\n        /* \"#utility.yul\":5745:5751   */\n      dup3\n        /* \"#utility.yul\":5734:5743   */\n      dup7\n        /* \"#utility.yul\":5730:5752   */\n      add\n        /* \"#utility.yul\":5709:5762   */\n      tag_146\n      jump\t// in\n    tag_232:\n        /* \"#utility.yul\":5699:5762   */\n      swap3\n      pop\n        /* \"#utility.yul\":5655:5772   */\n      pop\n        /* \"#utility.yul\":5811:5813   */\n      0x20\n        /* \"#utility.yul\":5837:5890   */\n      tag_233\n        /* \"#utility.yul\":5882:5889   */\n      dup6\n        /* \"#utility.yul\":5873:5879   */\n      dup3\n        /* \"#utility.yul\":5862:5871   */\n      dup7\n        /* \"#utility.yul\":5858:5880   */\n      add\n        /* \"#utility.yul\":5837:5890   */\n      tag_146\n      jump\t// in\n    tag_233:\n        /* \"#utility.yul\":5827:5890   */\n      swap2\n      pop\n        /* \"#utility.yul\":5782:5900   */\n      pop\n        /* \"#utility.yul\":5433:5907   */\n      swap3\n      pop\n      swap3\n      swap1\n      pop\n      jump\t// out\n        /* \"#utility.yul\":5913:6093   */\n    tag_156:\n        /* \"#utility.yul\":5961:6038   */\n      0x4e487b7100000000000000000000000000000000000000000000000000000000\n        /* \"#utility.yul\":5958:5959   */\n      0x00\n        /* \"#utility.yul\":5951:6039   */\n      mstore\n        /* \"#utility.yul\":6058:6062   */\n      0x22\n        /* \"#utility.yul\":6055:6056   */\n      0x04\n        /* \"#utility.yul\":6048:6063   */\n      mstore\n        /* \"#utility.yul\":6082:6086   */\n      0x24\n        /* \"#utility.yul\":6079:6080   */\n      0x00\n        /* \"#utility.yul\":6072:6087   */\n      revert\n        /* \"#utility.yul\":6099:6419   */\n    tag_72:\n        /* \"#utility.yul\":6143:6149   */\n      0x00\n        /* \"#utility.yul\":6180:6181   */\n      0x02\n        /* \"#utility.yul\":6174:6178   */\n      dup3\n        /* \"#utility.yul\":6170:6182   */\n      div\n        /* \"#utility.yul\":6160:6182   */\n      swap1\n      pop\n        /* \"#utility.yul\":6227:6228   */\n      0x01\n        /* \"#utility.yul\":6221:6225   */\n      dup3\n        /* \"#utility.yul\":6217:6229   */\n      and\n        /* \"#utility.yul\":6248:6266   */\n      dup1\n        /* \"#utility.yul\":6238:6319   */\n      tag_236\n      jumpi\n        /* \"#utility.yul\":6304:6308   */\n      0x7f\n        /* \"#utility.yul\":6296:6302   */\n      dup3\n        /* \"#utility.yul\":6292:6309   */\n      and\n        /* \"#utility.yul\":6282:6309   */\n      swap2\n      pop\n        /* \"#utility.yul\":6238:6319   */\n    tag_236:\n        /* \"#utility.yul\":6366:6368   */\n      0x20\n        /* \"#utility.yul\":6358:6364   */\n      dup3\n        /* \"#utility.yul\":6355:6369   */\n      lt\n        /* \"#utility.yul\":6335:6353   */\n      dup2\n        /* \"#utility.yul\":6332:6370   */\n      sub\n        /* \"#utility.yul\":6329:6413   */\n      tag_237\n      jumpi\n        /* \"#utility.yul\":6385:6403   */\n      tag_238\n      tag_156\n      jump\t// in\n    tag_238:\n        /* \"#utility.yul\":6329:6413   */\n    tag_237:\n        /* \"#utility.yul\":6150:6419   */\n      pop\n        /* \"#utility.yul\":6099:6419   */\n      swap2\n      swap1\n      pop\n      jump\t// out\n        /* \"#utility.yul\":6425:6604   */\n    tag_157:\n        /* \"#utility.yul\":6565:6596   */\n      0x45524332303a20496e73756666696369656e7420416c6c6f77616e6365000000\n        /* \"#utility.yul\":6561:6562   */\n      0x00\n        /* \"#utility.yul\":6553:6559   */\n      dup3\n        /* \"#utility.yul\":6549:6563   */\n      add\n        /* \"#utility.yul\":6542:6597   */\n      mstore\n        /* \"#utility.yul\":6425:6604   */\n      pop\n      jump\t// out\n        /* \"#utility.yul\":6610:6976   */\n    tag_158:\n        /* \"#utility.yul\":6752:6755   */\n      0x00\n        /* \"#utility.yul\":6773:6840   */\n      tag_241\n        /* \"#utility.yul\":6837:6839   */\n      0x1d\n        /* \"#utility.yul\":6832:6835   */\n      dup4\n        /* \"#utility.yul\":6773:6840   */\n      tag_136\n      jump\t// in\n    tag_241:\n        /* \"#utility.yul\":6766:6840   */\n      swap2\n      pop\n        /* \"#utility.yul\":6849:6942   */\n      tag_242\n        /* \"#utility.yul\":6938:6941   */\n      dup3\n        /* \"#utility.yul\":6849:6942   */\n      tag_157\n      jump\t// in\n    tag_242:\n        /* \"#utility.yul\":6967:6969   */\n      0x20\n        /* \"#utility.yul\":6962:6965   */\n      dup3\n        /* \"#utility.yul\":6958:6970   */\n      add\n        /* \"#utility.yul\":6951:6970   */\n      swap1\n      pop\n        /* \"#utility.yul\":6610:6976   */\n      swap2\n      swap1\n      pop\n      jump\t// out\n        /* \"#utility.yul\":6982:7401   */\n    tag_82:\n        /* \"#utility.yul\":7148:7152   */\n      0x00\n        /* \"#utility.yul\":7186:7188   */\n      0x20\n        /* \"#utility.yul\":7175:7184   */\n      dup3\n        /* \"#utility.yul\":7171:7189   */\n      add\n        /* \"#utility.yul\":7163:7189   */\n      swap1\n      pop\n        /* \"#utility.yul\":7235:7244   */\n      dup2\n        /* \"#utility.yul\":7229:7233   */\n      dup2\n        /* \"#utility.yul\":7225:7245   */\n      sub\n        /* \"#utility.yul\":7221:7222   */\n      0x00\n        /* \"#utility.yul\":7210:7219   */\n      dup4\n        /* \"#utility.yul\":7206:7223   */\n      add\n        /* \"#utility.yul\":7199:7246   */\n      mstore\n        /* \"#utility.yul\":7263:7394   */\n      tag_244\n        /* \"#utility.yul\":7389:7393   */\n      dup2\n        /* \"#utility.yul\":7263:7394   */\n      tag_158\n      jump\t// in\n    tag_244:\n        /* \"#utility.yul\":7255:7394   */\n      swap1\n      pop\n        /* \"#utility.yul\":6982:7401   */\n      swap2\n      swap1\n      pop\n      jump\t// out\n        /* \"#utility.yul\":7407:7587   */\n    tag_159:\n        /* \"#utility.yul\":7455:7532   */\n      0x4e487b7100000000000000000000000000000000000000000000000000000000\n        /* \"#utility.yul\":7452:7453   */\n      0x00\n        /* \"#utility.yul\":7445:7533   */\n      mstore\n        /* \"#utility.yul\":7552:7556   */\n      0x11\n        /* \"#utility.yul\":7549:7550   */\n      0x04\n        /* \"#utility.yul\":7542:7557   */\n      mstore\n        /* \"#utility.yul\":7576:7580   */\n      0x24\n        /* \"#utility.yul\":7573:7574   */\n      0x00\n        /* \"#utility.yul\":7566:7581   */\n      revert\n        /* \"#utility.yul\":7593:7787   */\n    tag_84:\n        /* \"#utility.yul\":7633:7637   */\n      0x00\n        /* \"#utility.yul\":7653:7673   */\n      tag_247\n        /* \"#utility.yul\":7671:7672   */\n      dup3\n        /* \"#utility.yul\":7653:7673   */\n      tag_147\n      jump\t// in\n    tag_247:\n        /* \"#utility.yul\":7648:7673   */\n      swap2\n      pop\n        /* \"#utility.yul\":7687:7707   */\n      tag_248\n        /* \"#utility.yul\":7705:7706   */\n      dup4\n        /* \"#utility.yul\":7687:7707   */\n      tag_147\n      jump\t// in\n    tag_248:\n        /* \"#utility.yul\":7682:7707   */\n      swap3\n      pop\n        /* \"#utility.yul\":7731:7732   */\n      dup3\n        /* \"#utility.yul\":7728:7729   */\n      dup3\n        /* \"#utility.yul\":7724:7733   */\n      sub\n        /* \"#utility.yul\":7716:7733   */\n      swap1\n      pop\n        /* \"#utility.yul\":7755:7756   */\n      dup2\n        /* \"#utility.yul\":7749:7753   */\n      dup2\n        /* \"#utility.yul\":7746:7757   */\n      gt\n        /* \"#utility.yul\":7743:7780   */\n      iszero\n      tag_249\n      jumpi\n        /* \"#utility.yul\":7760:7778   */\n      tag_250\n      tag_159\n      jump\t// in\n    tag_250:\n        /* \"#utility.yul\":7743:7780   */\n    tag_249:\n        /* \"#utility.yul\":7593:7787   */\n      swap3\n      swap2\n      pop\n      pop\n      jump\t// out\n        /* \"#utility.yul\":7793:7952   */\n    tag_160:\n        /* \"#utility.yul\":7933:7944   */\n      0x4e6f74206f776e65720000000000000000000000000000000000000000000000\n        /* \"#utility.yul\":7929:7930   */\n      0x00\n        /* \"#utility.yul\":7921:7927   */\n      dup3\n        /* \"#utility.yul\":7917:7931   */\n      add\n        /* \"#utility.yul\":7910:7945   */\n      mstore\n        /* \"#utility.yul\":7793:7952   */\n      pop\n      jump\t// out\n        /* \"#utility.yul\":7958:8323   */\n    tag_161:\n        /* \"#utility.yul\":8100:8103   */\n      0x00\n        /* \"#utility.yul\":8121:8187   */\n      tag_253\n        /* \"#utility.yul\":8185:8186   */\n      0x09\n        /* \"#utility.yul\":8180:8183   */\n      dup4\n        /* \"#utility.yul\":8121:8187   */\n      tag_136\n      jump\t// in\n    tag_253:\n        /* \"#utility.yul\":8114:8187   */\n      swap2\n      pop\n        /* \"#utility.yul\":8196:8289   */\n      tag_254\n        /* \"#utility.yul\":8285:8288   */\n      dup3\n        /* \"#utility.yul\":8196:8289   */\n      tag_160\n      jump\t// in\n    tag_254:\n        /* \"#utility.yul\":8314:8316   */\n      0x20\n        /* \"#utility.yul\":8309:8312   */\n      dup3\n        /* \"#utility.yul\":8305:8317   */\n      add\n        /* \"#utility.yul\":8298:8317   */\n      swap1\n      pop\n        /* \"#utility.yul\":7958:8323   */\n      swap2\n      swap1\n      pop\n      jump\t// out\n        /* \"#utility.yul\":8329:8748   */\n    tag_91:\n        /* \"#utility.yul\":8495:8499   */\n      0x00\n        /* \"#utility.yul\":8533:8535   */\n      0x20\n        /* \"#utility.yul\":8522:8531   */\n      dup3\n        /* \"#utility.yul\":8518:8536   */\n      add\n        /* \"#utility.yul\":8510:8536   */\n      swap1\n      pop\n        /* \"#utility.yul\":8582:8591   */\n      dup2\n        /* \"#utility.yul\":8576:8580   */\n      dup2\n        /* \"#utility.yul\":8572:8592   */\n      sub\n        /* \"#utility.yul\":8568:8569   */\n      0x00\n        /* \"#utility.yul\":8557:8566   */\n      dup4\n        /* \"#utility.yul\":8553:8570   */\n      add\n        /* \"#utility.yul\":8546:8593   */\n      mstore\n        /* \"#utility.yul\":8610:8741   */\n      tag_256\n        /* \"#utility.yul\":8736:8740   */\n      dup2\n        /* \"#utility.yul\":8610:8741   */\n      tag_161\n      jump\t// in\n    tag_256:\n        /* \"#utility.yul\":8602:8741   */\n      swap1\n      pop\n        /* \"#utility.yul\":8329:8748   */\n      swap2\n      swap1\n      pop\n      jump\t// out\n        /* \"#utility.yul\":8754:8932   */\n    tag_162:\n        /* \"#utility.yul\":8894:8924   */\n      0x56616c7565206d7573742062652067726561746572207468616e203000000000\n        /* \"#utility.yul\":8890:8891   */\n      0x00\n        /* \"#utility.yul\":8882:8888   */\n      dup3\n        /* \"#utility.yul\":8878:8892   */\n      add\n        /* \"#utility.yul\":8871:8925   */\n      mstore\n        /* \"#utility.yul\":8754:8932   */\n      pop\n      jump\t// out\n        /* \"#utility.yul\":8938:9304   */\n    tag_163:\n        /* \"#utility.yul\":9080:9083   */\n      0x00\n        /* \"#utility.yul\":9101:9168   */\n      tag_259\n        /* \"#utility.yul\":9165:9167   */\n      0x1c\n        /* \"#utility.yul\":9160:9163   */\n      dup4\n        /* \"#utility.yul\":9101:9168   */\n      tag_136\n      jump\t// in\n    tag_259:\n        /* \"#utility.yul\":9094:9168   */\n      swap2\n      pop\n        /* \"#utility.yul\":9177:9270   */\n      tag_260\n        /* \"#utility.yul\":9266:9269   */\n      dup3\n        /* \"#utility.yul\":9177:9270   */\n      tag_162\n      jump\t// in\n    tag_260:\n        /* \"#utility.yul\":9295:9297   */\n      0x20\n        /* \"#utility.yul\":9290:9293   */\n      dup3\n        /* \"#utility.yul\":9286:9298   */\n      add\n        /* \"#utility.yul\":9279:9298   */\n      swap1\n      pop\n        /* \"#utility.yul\":8938:9304   */\n      swap2\n      swap1\n      pop\n      jump\t// out\n        /* \"#utility.yul\":9310:9729   */\n    tag_109:\n        /* \"#utility.yul\":9476:9480   */\n      0x00\n        /* \"#utility.yul\":9514:9516   */\n      0x20\n        /* \"#utility.yul\":9503:9512   */\n      dup3\n        /* \"#utility.yul\":9499:9517   */\n      add\n        /* \"#utility.yul\":9491:9517   */\n      swap1\n      pop\n        /* \"#utility.yul\":9563:9572   */\n      dup2\n        /* \"#utility.yul\":9557:9561   */\n      dup2\n        /* \"#utility.yul\":9553:9573   */\n      sub\n        /* \"#utility.yul\":9549:9550   */\n      0x00\n        /* \"#utility.yul\":9538:9547   */\n      dup4\n        /* \"#utility.yul\":9534:9551   */\n      add\n        /* \"#utility.yul\":9527:9574   */\n      mstore\n        /* \"#utility.yul\":9591:9722   */\n      tag_262\n        /* \"#utility.yul\":9717:9721   */\n      dup2\n        /* \"#utility.yul\":9591:9722   */\n      tag_163\n      jump\t// in\n    tag_262:\n        /* \"#utility.yul\":9583:9722   */\n      swap1\n      pop\n        /* \"#utility.yul\":9310:9729   */\n      swap2\n      swap1\n      pop\n      jump\t// out\n        /* \"#utility.yul\":9735:9956   */\n    tag_164:\n        /* \"#utility.yul\":9875:9909   */\n      0x45524332303a20496e73756666696369656e742073656e6465722062616c616e\n        /* \"#utility.yul\":9871:9872   */\n      0x00\n        /* \"#utility.yul\":9863:9869   */\n      dup3\n        /* \"#utility.yul\":9859:9873   */\n      add\n        /* \"#utility.yul\":9852:9910   */\n      mstore\n        /* \"#utility.yul\":9944:9948   */\n      0x6365000000000000000000000000000000000000000000000000000000000000\n        /* \"#utility.yul\":9939:9941   */\n      0x20\n        /* \"#utility.yul\":9931:9937   */\n      dup3\n        /* \"#utility.yul\":9927:9942   */\n      add\n        /* \"#utility.yul\":9920:9949   */\n      mstore\n        /* \"#utility.yul\":9735:9956   */\n      pop\n      jump\t// out\n        /* \"#utility.yul\":9962:10328   */\n    tag_165:\n        /* \"#utility.yul\":10104:10107   */\n      0x00\n        /* \"#utility.yul\":10125:10192   */\n      tag_265\n        /* \"#utility.yul\":10189:10191   */\n      0x22\n        /* \"#utility.yul\":10184:10187   */\n      dup4\n        /* \"#utility.yul\":10125:10192   */\n      tag_136\n      jump\t// in\n    tag_265:\n        /* \"#utility.yul\":10118:10192   */\n      swap2\n      pop\n        /* \"#utility.yul\":10201:10294   */\n      tag_266\n        /* \"#utility.yul\":10290:10293   */\n      dup3\n        /* \"#utility.yul\":10201:10294   */\n      tag_164\n      jump\t// in\n    tag_266:\n        /* \"#utility.yul\":10319:10321   */\n      0x40\n        /* \"#utility.yul\":10314:10317   */\n      dup3\n        /* \"#utility.yul\":10310:10322   */\n      add\n        /* \"#utility.yul\":10303:10322   */\n      swap1\n      pop\n        /* \"#utility.yul\":9962:10328   */\n      swap2\n      swap1\n      pop\n      jump\t// out\n        /* \"#utility.yul\":10334:10753   */\n    tag_118:\n        /* \"#utility.yul\":10500:10504   */\n      0x00\n        /* \"#utility.yul\":10538:10540   */\n      0x20\n        /* \"#utility.yul\":10527:10536   */\n      dup3\n        /* \"#utility.yul\":10523:10541   */\n      add\n        /* \"#utility.yul\":10515:10541   */\n      swap1\n      pop\n        /* \"#utility.yul\":10587:10596   */\n      dup2\n        /* \"#utility.yul\":10581:10585   */\n      dup2\n        /* \"#utility.yul\":10577:10597   */\n      sub\n        /* \"#utility.yul\":10573:10574   */\n      0x00\n        /* \"#utility.yul\":10562:10571   */\n      dup4\n        /* \"#utility.yul\":10558:10575   */\n      add\n        /* \"#utility.yul\":10551:10598   */\n      mstore\n        /* \"#utility.yul\":10615:10746   */\n      tag_268\n        /* \"#utility.yul\":10741:10745   */\n      dup2\n        /* \"#utility.yul\":10615:10746   */\n      tag_165\n      jump\t// in\n    tag_268:\n        /* \"#utility.yul\":10607:10746   */\n      swap1\n      pop\n        /* \"#utility.yul\":10334:10753   */\n      swap2\n      swap1\n      pop\n      jump\t// out\n        /* \"#utility.yul\":10759:10950   */\n    tag_121:\n        /* \"#utility.yul\":10799:10802   */\n      0x00\n        /* \"#utility.yul\":10818:10838   */\n      tag_270\n        /* \"#utility.yul\":10836:10837   */\n      dup3\n        /* \"#utility.yul\":10818:10838   */\n      tag_147\n      jump\t// in\n    tag_270:\n        /* \"#utility.yul\":10813:10838   */\n      swap2\n      pop\n        /* \"#utility.yul\":10852:10872   */\n      tag_271\n        /* \"#utility.yul\":10870:10871   */\n      dup4\n        /* \"#utility.yul\":10852:10872   */\n      tag_147\n      jump\t// in\n    tag_271:\n        /* \"#utility.yul\":10847:10872   */\n      swap3\n      pop\n        /* \"#utility.yul\":10895:10896   */\n      dup3\n        /* \"#utility.yul\":10892:10893   */\n      dup3\n        /* \"#utility.yul\":10888:10897   */\n      add\n        /* \"#utility.yul\":10881:10897   */\n      swap1\n      pop\n        /* \"#utility.yul\":10916:10919   */\n      dup1\n        /* \"#utility.yul\":10913:10914   */\n      dup3\n        /* \"#utility.yul\":10910:10920   */\n      gt\n        /* \"#utility.yul\":10907:10943   */\n      iszero\n      tag_272\n      jumpi\n        /* \"#utility.yul\":10923:10941   */\n      tag_273\n      tag_159\n      jump\t// in\n    tag_273:\n        /* \"#utility.yul\":10907:10943   */\n    tag_272:\n        /* \"#utility.yul\":10759:10950   */\n      swap3\n      swap2\n      pop\n      pop\n      jump\t// out\n        /* \"#utility.yul\":10956:11366   */\n    tag_132:\n        /* \"#utility.yul\":10996:11003   */\n      0x00\n        /* \"#utility.yul\":11019:11039   */\n      tag_275\n        /* \"#utility.yul\":11037:11038   */\n      dup3\n        /* \"#utility.yul\":11019:11039   */\n      tag_147\n      jump\t// in\n    tag_275:\n        /* \"#utility.yul\":11014:11039   */\n      swap2\n      pop\n        /* \"#utility.yul\":11053:11073   */\n      tag_276\n        /* \"#utility.yul\":11071:11072   */\n      dup4\n        /* \"#utility.yul\":11053:11073   */\n      tag_147\n      jump\t// in\n    tag_276:\n        /* \"#utility.yul\":11048:11073   */\n      swap3\n      pop\n        /* \"#utility.yul\":11108:11109   */\n      dup3\n        /* \"#utility.yul\":11105:11106   */\n      dup3\n        /* \"#utility.yul\":11101:11110   */\n      mul\n        /* \"#utility.yul\":11130:11160   */\n      tag_277\n        /* \"#utility.yul\":11148:11159   */\n      dup2\n        /* \"#utility.yul\":11130:11160   */\n      tag_147\n      jump\t// in\n    tag_277:\n        /* \"#utility.yul\":11119:11160   */\n      swap2\n      pop\n        /* \"#utility.yul\":11309:11310   */\n      dup3\n        /* \"#utility.yul\":11300:11307   */\n      dup3\n        /* \"#utility.yul\":11296:11311   */\n      div\n        /* \"#utility.yul\":11293:11294   */\n      dup5\n        /* \"#utility.yul\":11290:11312   */\n      eq\n        /* \"#utility.yul\":11270:11271   */\n      dup4\n        /* \"#utility.yul\":11263:11272   */\n      iszero\n        /* \"#utility.yul\":11243:11326   */\n      or\n        /* \"#utility.yul\":11220:11359   */\n      tag_278\n      jumpi\n        /* \"#utility.yul\":11339:11357   */\n      tag_279\n      tag_159\n      jump\t// in\n    tag_279:\n        /* \"#utility.yul\":11220:11359   */\n    tag_278:\n        /* \"#utility.yul\":11004:11366   */\n      pop\n        /* \"#utility.yul\":10956:11366   */\n      swap3\n      swap2\n      pop\n      pop\n      jump\t// out\n        /* \"#utility.yul\":11372:11552   */\n    tag_166:\n        /* \"#utility.yul\":11420:11497   */\n      0x4e487b7100000000000000000000000000000000000000000000000000000000\n        /* \"#utility.yul\":11417:11418   */\n      0x00\n        /* \"#utility.yul\":11410:11498   */\n      mstore\n        /* \"#utility.yul\":11517:11521   */\n      0x12\n        /* \"#utility.yul\":11514:11515   */\n      0x04\n        /* \"#utility.yul\":11507:11522   */\n      mstore\n        /* \"#utility.yul\":11541:11545   */\n      0x24\n        /* \"#utility.yul\":11538:11539   */\n      0x00\n        /* \"#utility.yul\":11531:11546   */\n      revert\n        /* \"#utility.yul\":11558:11743   */\n    tag_134:\n        /* \"#utility.yul\":11598:11599   */\n      0x00\n        /* \"#utility.yul\":11615:11635   */\n      tag_282\n        /* \"#utility.yul\":11633:11634   */\n      dup3\n        /* \"#utility.yul\":11615:11635   */\n      tag_147\n      jump\t// in\n    tag_282:\n        /* \"#utility.yul\":11610:11635   */\n      swap2\n      pop\n        /* \"#utility.yul\":11649:11669   */\n      tag_283\n        /* \"#utility.yul\":11667:11668   */\n      dup4\n        /* \"#utility.yul\":11649:11669   */\n      tag_147\n      jump\t// in\n    tag_283:\n        /* \"#utility.yul\":11644:11669   */\n      swap3\n      pop\n        /* \"#utility.yul\":11688:11689   */\n      dup3\n        /* \"#utility.yul\":11678:11713   */\n      tag_284\n      jumpi\n        /* \"#utility.yul\":11693:11711   */\n      tag_285\n      tag_166\n      jump\t// in\n    tag_285:\n        /* \"#utility.yul\":11678:11713   */\n    tag_284:\n        /* \"#utility.yul\":11735:11736   */\n      dup3\n        /* \"#utility.yul\":11732:11733   */\n      dup3\n        /* \"#utility.yul\":11728:11737   */\n      div\n        /* \"#utility.yul\":11723:11737   */\n      swap1\n      pop\n        /* \"#utility.yul\":11558:11743   */\n      swap3\n      swap2\n      pop\n      pop\n      jump\t// out\n\n    auxdata: 0xa2646970667358221220e5a94e14f003a6bb83d69069aa22d4b7012fb826de5b96b5428727acda26a0d064736f6c634300081a0033\n}\n",
				"bytecode": {
					"linkReferences": {},
					"object": "60a060405234801561000f575f80fd5b50604051611936380380611936833981810160405281019061003191906102cd565b84848484825f90816100439190610589565b5081600190816100539190610589565b508060ff1660808160ff16815250508360035f6101000a81548173ffffffffffffffffffffffffffffffffffffffff021916908373ffffffffffffffffffffffffffffffffffffffff160217905550505050508060065f6101000a81548173ffffffffffffffffffffffffffffffffffffffff021916908373ffffffffffffffffffffffffffffffffffffffff1602179055505050505050610658565b5f604051905090565b5f80fd5b5f80fd5b5f73ffffffffffffffffffffffffffffffffffffffff82169050919050565b5f61012a82610101565b9050919050565b61013a81610120565b8114610144575f80fd5b50565b5f8151905061015581610131565b92915050565b5f80fd5b5f80fd5b5f601f19601f8301169050919050565b7f4e487b71000000000000000000000000000000000000000000000000000000005f52604160045260245ffd5b6101a982610163565b810181811067ffffffffffffffff821117156101c8576101c7610173565b5b80604052505050565b5f6101da6100f0565b90506101e682826101a0565b919050565b5f67ffffffffffffffff82111561020557610204610173565b5b61020e82610163565b9050602081019050919050565b8281835e5f83830152505050565b5f61023b610236846101eb565b6101d1565b9050828152602081018484840111156102575761025661015f565b5b61026284828561021b565b509392505050565b5f82601f83011261027e5761027d61015b565b5b815161028e848260208601610229565b91505092915050565b5f60ff82169050919050565b6102ac81610297565b81146102b6575f80fd5b50565b5f815190506102c7816102a3565b92915050565b5f805f805f60a086880312156102e6576102e56100f9565b5b5f6102f388828901610147565b955050602086015167ffffffffffffffff811115610314576103136100fd565b5b6103208882890161026a565b945050604086015167ffffffffffffffff811115610341576103406100fd565b5b61034d8882890161026a565b935050606061035e888289016102b9565b925050608061036f88828901610147565b9150509295509295909350565b5f81519050919050565b7f4e487b71000000000000000000000000000000000000000000000000000000005f52602260045260245ffd5b5f60028204905060018216806103ca57607f821691505b6020821081036103dd576103dc610386565b5b50919050565b5f819050815f5260205f209050919050565b5f6020601f8301049050919050565b5f82821b905092915050565b5f6008830261043f7fffffffffffffffffffffffffffffffffffffffffffffffffffffffffffffffff82610404565b6104498683610404565b95508019841693508086168417925050509392505050565b5f819050919050565b5f819050919050565b5f61048d61048861048384610461565b61046a565b610461565b9050919050565b5f819050919050565b6104a683610473565b6104ba6104b282610494565b848454610410565b825550505050565b5f90565b6104ce6104c2565b6104d981848461049d565b505050565b5b818110156104fc576104f15f826104c6565b6001810190506104df565b5050565b601f82111561054157610512816103e3565b61051b846103f5565b8101602085101561052a578190505b61053e610536856103f5565b8301826104de565b50505b505050565b5f82821c905092915050565b5f6105615f1984600802610546565b1980831691505092915050565b5f6105798383610552565b9150826002028217905092915050565b6105928261037c565b67ffffffffffffffff8111156105ab576105aa610173565b5b6105b582546103b3565b6105c0828285610500565b5f60209050601f8311600181146105f1575f84156105df578287015190505b6105e9858261056e565b865550610650565b601f1984166105ff866103e3565b5f5b8281101561062657848901518255600182019150602085019450602081019050610601565b86831015610643578489015161063f601f891682610552565b8355505b6001600288020188555050505b505050505050565b6080516112c66106705f395f61066801526112c65ff3fe608060405234801561000f575f80fd5b50600436106100cd575f3560e01c806370a082311161008a5780639dc29fac116100645780639dc29fac14610213578063a9059cbb1461022f578063c415b95c1461025f578063dd62ed3e1461027d576100cd565b806370a08231146101a75780638da5cb5b146101d757806395d89b41146101f5576100cd565b806306fdde03146100d1578063095ea7b3146100ef57806318160ddd1461011f57806323b872dd1461013d578063313ce5671461016d57806340c10f191461018b575b5f80fd5b6100d96102ad565b6040516100e69190610cdd565b60405180910390f35b61010960048036038101906101049190610d8e565b610338565b6040516101169190610de6565b60405180910390f35b610127610425565b6040516101349190610e0e565b60405180910390f35b61015760048036038101906101529190610e27565b61042b565b6040516101649190610de6565b60405180910390f35b610175610666565b6040516101829190610e92565b60405180910390f35b6101a560048036038101906101a09190610d8e565b61068a565b005b6101c160048036038101906101bc9190610eab565b610727565b6040516101ce9190610e0e565b60405180910390f35b6101df61073c565b6040516101ec9190610ee5565b60405180910390f35b6101fd610761565b60405161020a9190610cdd565b60405180910390f35b61022d60048036038101906102289190610d8e565b6107ed565b005b61024960048036038101906102449190610d8e565b61088a565b6040516102569190610de6565b60405180910390f35b61026761092d565b6040516102749190610ee5565b60405180910390f35b61029760048036038101906102929190610efe565b610952565b6040516102a49190610e0e565b60405180910390f35b5f80546102b990610f69565b80601f01602080910402602001604051908101604052809291908181526020018280546102e590610f69565b80156103305780601f1061030757610100808354040283529160200191610330565b820191905f5260205f20905b81548152906001019060200180831161031357829003601f168201915b505050505081565b5f8160055f3373ffffffffffffffffffffffffffffffffffffffff1673ffffffffffffffffffffffffffffffffffffffff1681526020019081526020015f205f8573ffffffffffffffffffffffffffffffffffffffff1673ffffffffffffffffffffffffffffffffffffffff1681526020019081526020015f20819055508273ffffffffffffffffffffffffffffffffffffffff163373ffffffffffffffffffffffffffffffffffffffff167f8c5be1e5ebec7d5bd14f71427d1e84f3dd0314c0f7b2291e5b200ac8c7c3b925846040516104139190610e0e565b60405180910390a36001905092915050565b60025481565b5f8160055f8673ffffffffffffffffffffffffffffffffffffffff1673ffffffffffffffffffffffffffffffffffffffff1681526020019081526020015f205f3373ffffffffffffffffffffffffffffffffffffffff1673ffffffffffffffffffffffffffffffffffffffff1681526020019081526020015f205410156104e7576040517f08c379a00000000000000000000000000000000000000000000000000000000081526004016104de90610fe3565b60405180910390fd5b8160055f8673ffffffffffffffffffffffffffffffffffffffff1673ffffffffffffffffffffffffffffffffffffffff1681526020019081526020015f205f3373ffffffffffffffffffffffffffffffffffffffff1673ffffffffffffffffffffffffffffffffffffffff1681526020019081526020015f205f82825461056e919061102e565b925050819055503373ffffffffffffffffffffffffffffffffffffffff168473ffffffffffffffffffffffffffffffffffffffff167f8c5be1e5ebec7d5bd14f71427d1e84f3dd0314c0f7b2291e5b200ac8c7c3b92560055f8873ffffffffffffffffffffffffffffffffffffffff1673ffffffffffffffffffffffffffffffffffffffff1681526020019081526020015f205f3373ffffffffffffffffffffffffffffffffffffffff1673ffffffffffffffffffffffffffffffffffffffff1681526020019081526020015f205460405161064a9190610e0e565b60405180910390a361065d848484610972565b90509392505050565b7f000000000000000000000000000000000000000000000000000000000000000081565b60035f9054906101000a900473ffffffffffffffffffffffffffffffffffffffff1673ffffffffffffffffffffffffffffffffffffffff163373ffffffffffffffffffffffffffffffffffffffff1614610719576040517f08c379a0000000000000000000000000000000000000000000000000000000008152600401610710906110ab565b60405180910390fd5b6107238282610b09565b5050565b6004602052805f5260405f205f915090505481565b60035f9054906101000a900473ffffffffffffffffffffffffffffffffffffffff1681565b6001805461076e90610f69565b80601f016020809104026020016040519081016040528092919081815260200182805461079a90610f69565b80156107e55780601f106107bc576101008083540402835291602001916107e5565b820191905f5260205f20905b8154815290600101906020018083116107c857829003601f168201915b505050505081565b60035f9054906101000a900473ffffffffffffffffffffffffffffffffffffffff1673ffffffffffffffffffffffffffffffffffffffff163373ffffffffffffffffffffffffffffffffffffffff161461087c576040517f08c379a0000000000000000000000000000000000000000000000000000000008152600401610873906110ab565b60405180910390fd5b6108868282610bdd565b5050565b5f8082116108cd576040517f08c379a00000000000000000000000000000000000000000000000000000000081526004016108c490611113565b60405180910390fd5b5f6108d783610c4c565b90505f81846108e6919061102e565b90506109143360065f9054906101000a900473ffffffffffffffffffffffffffffffffffffffff1684610972565b50610920338683610972565b5060019250505092915050565b60065f9054906101000a900473ffffffffffffffffffffffffffffffffffffffff1681565b6005602052815f5260405f20602052805f5260405f205f91509150505481565b5f8160045f8673ffffffffffffffffffffffffffffffffffffffff1673ffffffffffffffffffffffffffffffffffffffff1681526020019081526020015f205410156109f3576040517f08c379a00000000000000000000000000000000000000000000000000000000081526004016109ea906111a1565b60405180910390fd5b8160045f8673ffffffffffffffffffffffffffffffffffffffff1673ffffffffffffffffffffffffffffffffffffffff1681526020019081526020015f205f828254610a3f919061102e565b925050819055508160045f8573ffffffffffffffffffffffffffffffffffffffff1673ffffffffffffffffffffffffffffffffffffffff1681526020019081526020015f205f828254610a9291906111bf565b925050819055508273ffffffffffffffffffffffffffffffffffffffff168473ffffffffffffffffffffffffffffffffffffffff167fddf252ad1be2c89b69c2b068fc378daa952ba7f163c4a11628f55a4df523b3ef84604051610af69190610e0e565b60405180910390a3600190509392505050565b8060045f8473ffffffffffffffffffffffffffffffffffffffff1673ffffffffffffffffffffffffffffffffffffffff1681526020019081526020015f205f828254610b5591906111bf565b925050819055508060025f828254610b6d91906111bf565b925050819055508173ffffffffffffffffffffffffffffffffffffffff165f73ffffffffffffffffffffffffffffffffffffffff167fddf252ad1be2c89b69c2b068fc378daa952ba7f163c4a11628f55a4df523b3ef83604051610bd19190610e0e565b60405180910390a35050565b8060045f8473ffffffffffffffffffffffffffffffffffffffff1673ffffffffffffffffffffffffffffffffffffffff1681526020019081526020015f205f828254610c29919061102e565b925050819055508060025f828254610c41919061102e565b925050819055505050565b5f6064600183610c5c91906111f2565b610c669190611260565b9050919050565b5f81519050919050565b5f82825260208201905092915050565b8281835e5f83830152505050565b5f601f19601f8301169050919050565b5f610caf82610c6d565b610cb98185610c77565b9350610cc9818560208601610c87565b610cd281610c95565b840191505092915050565b5f6020820190508181035f830152610cf58184610ca5565b905092915050565b5f80fd5b5f73ffffffffffffffffffffffffffffffffffffffff82169050919050565b5f610d2a82610d01565b9050919050565b610d3a81610d20565b8114610d44575f80fd5b50565b5f81359050610d5581610d31565b92915050565b5f819050919050565b610d6d81610d5b565b8114610d77575f80fd5b50565b5f81359050610d8881610d64565b92915050565b5f8060408385031215610da457610da3610cfd565b5b5f610db185828601610d47565b9250506020610dc285828601610d7a565b9150509250929050565b5f8115159050919050565b610de081610dcc565b82525050565b5f602082019050610df95f830184610dd7565b92915050565b610e0881610d5b565b82525050565b5f602082019050610e215f830184610dff565b92915050565b5f805f60608486031215610e3e57610e3d610cfd565b5b5f610e4b86828701610d47565b9350506020610e5c86828701610d47565b9250506040610e6d86828701610d7a565b9150509250925092565b5f60ff82169050919050565b610e8c81610e77565b82525050565b5f602082019050610ea55f830184610e83565b92915050565b5f60208284031215610ec057610ebf610cfd565b5b5f610ecd84828501610d47565b91505092915050565b610edf81610d20565b82525050565b5f602082019050610ef85f830184610ed6565b92915050565b5f8060408385031215610f1457610f13610cfd565b5b5f610f2185828601610d47565b9250506020610f3285828601610d47565b9150509250929050565b7f4e487b71000000000000000000000000000000000000000000000000000000005f52602260045260245ffd5b5f6002820490506001821680610f8057607f821691505b602082108103610f9357610f92610f3c565b5b50919050565b7f45524332303a20496e73756666696369656e7420416c6c6f77616e63650000005f82015250565b5f610fcd601d83610c77565b9150610fd882610f99565b602082019050919050565b5f6020820190508181035f830152610ffa81610fc1565b9050919050565b7f4e487b71000000000000000000000000000000000000000000000000000000005f52601160045260245ffd5b5f61103882610d5b565b915061104383610d5b565b925082820390508181111561105b5761105a611001565b5b92915050565b7f4e6f74206f776e657200000000000000000000000000000000000000000000005f82015250565b5f611095600983610c77565b91506110a082611061565b602082019050919050565b5f6020820190508181035f8301526110c281611089565b9050919050565b7f56616c7565206d7573742062652067726561746572207468616e2030000000005f82015250565b5f6110fd601c83610c77565b9150611108826110c9565b602082019050919050565b5f6020820190508181035f83015261112a816110f1565b9050919050565b7f45524332303a20496e73756666696369656e742073656e6465722062616c616e5f8201527f6365000000000000000000000000000000000000000000000000000000000000602082015250565b5f61118b602283610c77565b915061119682611131565b604082019050919050565b5f6020820190508181035f8301526111b88161117f565b9050919050565b5f6111c982610d5b565b91506111d483610d5b565b92508282019050808211156111ec576111eb611001565b5b92915050565b5f6111fc82610d5b565b915061120783610d5b565b925082820261121581610d5b565b9150828204841483151761122c5761122b611001565b5b5092915050565b7f4e487b71000000000000000000000000000000000000000000000000000000005f52601260045260245ffd5b5f61126a82610d5b565b915061127583610d5b565b92508261128557611284611233565b5b82820490509291505056fea2646970667358221220e5a94e14f003a6bb83d69069aa22d4b7012fb826de5b96b5428727acda26a0d064736f6c634300081a0033",
					"opcodes": "PUSH1 0xA0 PUSH1 0x40 MSTORE CALLVALUE DUP1 ISZERO PUSH2 0xF JUMPI PUSH0 DUP1 REVERT JUMPDEST POP PUSH1 0x40 MLOAD PUSH2 0x1936 CODESIZE SUB DUP1 PUSH2 0x1936 DUP4 CODECOPY DUP2 DUP2 ADD PUSH1 0x40 MSTORE DUP2 ADD SWAP1 PUSH2 0x31 SWAP2 SWAP1 PUSH2 0x2CD JUMP JUMPDEST DUP5 DUP5 DUP5 DUP5 DUP3 PUSH0 SWAP1 DUP2 PUSH2 0x43 SWAP2 SWAP1 PUSH2 0x589 JUMP JUMPDEST POP DUP2 PUSH1 0x1 SWAP1 DUP2 PUSH2 0x53 SWAP2 SWAP1 PUSH2 0x589 JUMP JUMPDEST POP DUP1 PUSH1 0xFF AND PUSH1 0x80 DUP2 PUSH1 0xFF AND DUP2 MSTORE POP POP DUP4 PUSH1 0x3 PUSH0 PUSH2 0x100 EXP DUP2 SLOAD DUP2 PUSH20 0xFFFFFFFFFFFFFFFFFFFFFFFFFFFFFFFFFFFFFFFF MUL NOT AND SWAP1 DUP4 PUSH20 0xFFFFFFFFFFFFFFFFFFFFFFFFFFFFFFFFFFFFFFFF AND MUL OR SWAP1 SSTORE POP POP POP POP POP DUP1 PUSH1 0x6 PUSH0 PUSH2 0x100 EXP DUP2 SLOAD DUP2 PUSH20 0xFFFFFFFFFFFFFFFFFFFFFFFFFFFFFFFFFFFFFFFF MUL NOT AND SWAP1 DUP4 PUSH20 0xFFFFFFFFFFFFFFFFFFFFFFFFFFFFFFFFFFFFFFFF AND MUL OR SWAP1 SSTORE POP POP POP POP POP POP PUSH2 0x658 JUMP JUMPDEST PUSH0 PUSH1 0x40 MLOAD SWAP1 POP SWAP1 JUMP JUMPDEST PUSH0 DUP1 REVERT JUMPDEST PUSH0 DUP1 REVERT JUMPDEST PUSH0 PUSH20 0xFFFFFFFFFFFFFFFFFFFFFFFFFFFFFFFFFFFFFFFF DUP3 AND SWAP1 POP SWAP2 SWAP1 POP JUMP JUMPDEST PUSH0 PUSH2 0x12A DUP3 PUSH2 0x101 JUMP JUMPDEST SWAP1 POP SWAP2 SWAP1 POP JUMP JUMPDEST PUSH2 0x13A DUP2 PUSH2 0x120 JUMP JUMPDEST DUP2 EQ PUSH2 0x144 JUMPI PUSH0 DUP1 REVERT JUMPDEST POP JUMP JUMPDEST PUSH0 DUP2 MLOAD SWAP1 POP PUSH2 0x155 DUP2 PUSH2 0x131 JUMP JUMPDEST SWAP3 SWAP2 POP POP JUMP JUMPDEST PUSH0 DUP1 REVERT JUMPDEST PUSH0 DUP1 REVERT JUMPDEST PUSH0 PUSH1 0x1F NOT PUSH1 0x1F DUP4 ADD AND SWAP1 POP SWAP2 SWAP1 POP JUMP JUMPDEST PUSH32 0x4E487B7100000000000000000000000000000000000000000000000000000000 PUSH0 MSTORE PUSH1 0x41 PUSH1 0x4 MSTORE PUSH1 0x24 PUSH0 REVERT JUMPDEST PUSH2 0x1A9 DUP3 PUSH2 0x163 JUMP JUMPDEST DUP2 ADD DUP2 DUP2 LT PUSH8 0xFFFFFFFFFFFFFFFF DUP3 GT OR ISZERO PUSH2 0x1C8 JUMPI PUSH2 0x1C7 PUSH2 0x173 JUMP JUMPDEST JUMPDEST DUP1 PUSH1 0x40 MSTORE POP POP POP JUMP JUMPDEST PUSH0 PUSH2 0x1DA PUSH2 0xF0 JUMP JUMPDEST SWAP1 POP PUSH2 0x1E6 DUP3 DUP3 PUSH2 0x1A0 JUMP JUMPDEST SWAP2 SWAP1 POP JUMP JUMPDEST PUSH0 PUSH8 0xFFFFFFFFFFFFFFFF DUP3 GT ISZERO PUSH2 0x205 JUMPI PUSH2 0x204 PUSH2 0x173 JUMP JUMPDEST JUMPDEST PUSH2 0x20E DUP3 PUSH2 0x163 JUMP JUMPDEST SWAP1 POP PUSH1 0x20 DUP2 ADD SWAP1 POP SWAP2 SWAP1 POP JUMP JUMPDEST DUP3 DUP2 DUP4 MCOPY PUSH0 DUP4 DUP4 ADD MSTORE POP POP POP JUMP JUMPDEST PUSH0 PUSH2 0x23B PUSH2 0x236 DUP5 PUSH2 0x1EB JUMP JUMPDEST PUSH2 0x1D1 JUMP JUMPDEST SWAP1 POP DUP3 DUP2 MSTORE PUSH1 0x20 DUP2 ADD DUP5 DUP5 DUP5 ADD GT ISZERO PUSH2 0x257 JUMPI PUSH2 0x256 PUSH2 0x15F JUMP JUMPDEST JUMPDEST PUSH2 0x262 DUP5 DUP3 DUP6 PUSH2 0x21B JUMP JUMPDEST POP SWAP4 SWAP3 POP POP POP JUMP JUMPDEST PUSH0 DUP3 PUSH1 0x1F DUP4 ADD SLT PUSH2 0x27E JUMPI PUSH2 0x27D PUSH2 0x15B JUMP JUMPDEST JUMPDEST DUP2 MLOAD PUSH2 0x28E DUP5 DUP3 PUSH1 0x20 DUP7 ADD PUSH2 0x229 JUMP JUMPDEST SWAP2 POP POP SWAP3 SWAP2 POP POP JUMP JUMPDEST PUSH0 PUSH1 0xFF DUP3 AND SWAP1 POP SWAP2 SWAP1 POP JUMP JUMPDEST PUSH2 0x2AC DUP2 PUSH2 0x297 JUMP JUMPDEST DUP2 EQ PUSH2 0x2B6 JUMPI PUSH0 DUP1 REVERT JUMPDEST POP JUMP JUMPDEST PUSH0 DUP2 MLOAD SWAP1 POP PUSH2 0x2C7 DUP2 PUSH2 0x2A3 JUMP JUMPDEST SWAP3 SWAP2 POP POP JUMP JUMPDEST PUSH0 DUP1 PUSH0 DUP1 PUSH0 PUSH1 0xA0 DUP7 DUP9 SUB SLT ISZERO PUSH2 0x2E6 JUMPI PUSH2 0x2E5 PUSH2 0xF9 JUMP JUMPDEST JUMPDEST PUSH0 PUSH2 0x2F3 DUP9 DUP3 DUP10 ADD PUSH2 0x147 JUMP JUMPDEST SWAP6 POP POP PUSH1 0x20 DUP7 ADD MLOAD PUSH8 0xFFFFFFFFFFFFFFFF DUP2 GT ISZERO PUSH2 0x314 JUMPI PUSH2 0x313 PUSH2 0xFD JUMP JUMPDEST JUMPDEST PUSH2 0x320 DUP9 DUP3 DUP10 ADD PUSH2 0x26A JUMP JUMPDEST SWAP5 POP POP PUSH1 0x40 DUP7 ADD MLOAD PUSH8 0xFFFFFFFFFFFFFFFF DUP2 GT ISZERO PUSH2 0x341 JUMPI PUSH2 0x340 PUSH2 0xFD JUMP JUMPDEST JUMPDEST PUSH2 0x34D DUP9 DUP3 DUP10 ADD PUSH2 0x26A JUMP JUMPDEST SWAP4 POP POP PUSH1 0x60 PUSH2 0x35E DUP9 DUP3 DUP10 ADD PUSH2 0x2B9 JUMP JUMPDEST SWAP3 POP POP PUSH1 0x80 PUSH2 0x36F DUP9 DUP3 DUP10 ADD PUSH2 0x147 JUMP JUMPDEST SWAP2 POP POP SWAP3 SWAP6 POP SWAP3 SWAP6 SWAP1 SWAP4 POP JUMP JUMPDEST PUSH0 DUP2 MLOAD SWAP1 POP SWAP2 SWAP1 POP JUMP JUMPDEST PUSH32 0x4E487B7100000000000000000000000000000000000000000000000000000000 PUSH0 MSTORE PUSH1 0x22 PUSH1 0x4 MSTORE PUSH1 0x24 PUSH0 REVERT JUMPDEST PUSH0 PUSH1 0x2 DUP3 DIV SWAP1 POP PUSH1 0x1 DUP3 AND DUP1 PUSH2 0x3CA JUMPI PUSH1 0x7F DUP3 AND SWAP2 POP JUMPDEST PUSH1 0x20 DUP3 LT DUP2 SUB PUSH2 0x3DD JUMPI PUSH2 0x3DC PUSH2 0x386 JUMP JUMPDEST JUMPDEST POP SWAP2 SWAP1 POP JUMP JUMPDEST PUSH0 DUP2 SWAP1 POP DUP2 PUSH0 MSTORE PUSH1 0x20 PUSH0 KECCAK256 SWAP1 POP SWAP2 SWAP1 POP JUMP JUMPDEST PUSH0 PUSH1 0x20 PUSH1 0x1F DUP4 ADD DIV SWAP1 POP SWAP2 SWAP1 POP JUMP JUMPDEST PUSH0 DUP3 DUP3 SHL SWAP1 POP SWAP3 SWAP2 POP POP JUMP JUMPDEST PUSH0 PUSH1 0x8 DUP4 MUL PUSH2 0x43F PUSH32 0xFFFFFFFFFFFFFFFFFFFFFFFFFFFFFFFFFFFFFFFFFFFFFFFFFFFFFFFFFFFFFFFF DUP3 PUSH2 0x404 JUMP JUMPDEST PUSH2 0x449 DUP7 DUP4 PUSH2 0x404 JUMP JUMPDEST SWAP6 POP DUP1 NOT DUP5 AND SWAP4 POP DUP1 DUP7 AND DUP5 OR SWAP3 POP POP POP SWAP4 SWAP3 POP POP POP JUMP JUMPDEST PUSH0 DUP2 SWAP1 POP SWAP2 SWAP1 POP JUMP JUMPDEST PUSH0 DUP2 SWAP1 POP SWAP2 SWAP1 POP JUMP JUMPDEST PUSH0 PUSH2 0x48D PUSH2 0x488 PUSH2 0x483 DUP5 PUSH2 0x461 JUMP JUMPDEST PUSH2 0x46A JUMP JUMPDEST PUSH2 0x461 JUMP JUMPDEST SWAP1 POP SWAP2 SWAP1 POP JUMP JUMPDEST PUSH0 DUP2 SWAP1 POP SWAP2 SWAP1 POP JUMP JUMPDEST PUSH2 0x4A6 DUP4 PUSH2 0x473 JUMP JUMPDEST PUSH2 0x4BA PUSH2 0x4B2 DUP3 PUSH2 0x494 JUMP JUMPDEST DUP5 DUP5 SLOAD PUSH2 0x410 JUMP JUMPDEST DUP3 SSTORE POP POP POP POP JUMP JUMPDEST PUSH0 SWAP1 JUMP JUMPDEST PUSH2 0x4CE PUSH2 0x4C2 JUMP JUMPDEST PUSH2 0x4D9 DUP2 DUP5 DUP5 PUSH2 0x49D JUMP JUMPDEST POP POP POP JUMP JUMPDEST JUMPDEST DUP2 DUP2 LT ISZERO PUSH2 0x4FC JUMPI PUSH2 0x4F1 PUSH0 DUP3 PUSH2 0x4C6 JUMP JUMPDEST PUSH1 0x1 DUP2 ADD SWAP1 POP PUSH2 0x4DF JUMP JUMPDEST POP POP JUMP JUMPDEST PUSH1 0x1F DUP3 GT ISZERO PUSH2 0x541 JUMPI PUSH2 0x512 DUP2 PUSH2 0x3E3 JUMP JUMPDEST PUSH2 0x51B DUP5 PUSH2 0x3F5 JUMP JUMPDEST DUP2 ADD PUSH1 0x20 DUP6 LT ISZERO PUSH2 0x52A JUMPI DUP2 SWAP1 POP JUMPDEST PUSH2 0x53E PUSH2 0x536 DUP6 PUSH2 0x3F5 JUMP JUMPDEST DUP4 ADD DUP3 PUSH2 0x4DE JUMP JUMPDEST POP POP JUMPDEST POP POP POP JUMP JUMPDEST PUSH0 DUP3 DUP3 SHR SWAP1 POP SWAP3 SWAP2 POP POP JUMP JUMPDEST PUSH0 PUSH2 0x561 PUSH0 NOT DUP5 PUSH1 0x8 MUL PUSH2 0x546 JUMP JUMPDEST NOT DUP1 DUP4 AND SWAP2 POP POP SWAP3 SWAP2 POP POP JUMP JUMPDEST PUSH0 PUSH2 0x579 DUP4 DUP4 PUSH2 0x552 JUMP JUMPDEST SWAP2 POP DUP3 PUSH1 0x2 MUL DUP3 OR SWAP1 POP SWAP3 SWAP2 POP POP JUMP JUMPDEST PUSH2 0x592 DUP3 PUSH2 0x37C JUMP JUMPDEST PUSH8 0xFFFFFFFFFFFFFFFF DUP2 GT ISZERO PUSH2 0x5AB JUMPI PUSH2 0x5AA PUSH2 0x173 JUMP JUMPDEST JUMPDEST PUSH2 0x5B5 DUP3 SLOAD PUSH2 0x3B3 JUMP JUMPDEST PUSH2 0x5C0 DUP3 DUP3 DUP6 PUSH2 0x500 JUMP JUMPDEST PUSH0 PUSH1 0x20 SWAP1 POP PUSH1 0x1F DUP4 GT PUSH1 0x1 DUP2 EQ PUSH2 0x5F1 JUMPI PUSH0 DUP5 ISZERO PUSH2 0x5DF JUMPI DUP3 DUP8 ADD MLOAD SWAP1 POP JUMPDEST PUSH2 0x5E9 DUP6 DUP3 PUSH2 0x56E JUMP JUMPDEST DUP7 SSTORE POP PUSH2 0x650 JUMP JUMPDEST PUSH1 0x1F NOT DUP5 AND PUSH2 0x5FF DUP7 PUSH2 0x3E3 JUMP JUMPDEST PUSH0 JUMPDEST DUP3 DUP2 LT ISZERO PUSH2 0x626 JUMPI DUP5 DUP10 ADD MLOAD DUP3 SSTORE PUSH1 0x1 DUP3 ADD SWAP2 POP PUSH1 0x20 DUP6 ADD SWAP5 POP PUSH1 0x20 DUP2 ADD SWAP1 POP PUSH2 0x601 JUMP JUMPDEST DUP7 DUP4 LT ISZERO PUSH2 0x643 JUMPI DUP5 DUP10 ADD MLOAD PUSH2 0x63F PUSH1 0x1F DUP10 AND DUP3 PUSH2 0x552 JUMP JUMPDEST DUP4 SSTORE POP JUMPDEST PUSH1 0x1 PUSH1 0x2 DUP9 MUL ADD DUP9 SSTORE POP POP POP JUMPDEST POP POP POP POP POP POP JUMP JUMPDEST PUSH1 0x80 MLOAD PUSH2 0x12C6 PUSH2 0x670 PUSH0 CODECOPY PUSH0 PUSH2 0x668 ADD MSTORE PUSH2 0x12C6 PUSH0 RETURN INVALID PUSH1 0x80 PUSH1 0x40 MSTORE CALLVALUE DUP1 ISZERO PUSH2 0xF JUMPI PUSH0 DUP1 REVERT JUMPDEST POP PUSH1 0x4 CALLDATASIZE LT PUSH2 0xCD JUMPI PUSH0 CALLDATALOAD PUSH1 0xE0 SHR DUP1 PUSH4 0x70A08231 GT PUSH2 0x8A JUMPI DUP1 PUSH4 0x9DC29FAC GT PUSH2 0x64 JUMPI DUP1 PUSH4 0x9DC29FAC EQ PUSH2 0x213 JUMPI DUP1 PUSH4 0xA9059CBB EQ PUSH2 0x22F JUMPI DUP1 PUSH4 0xC415B95C EQ PUSH2 0x25F JUMPI DUP1 PUSH4 0xDD62ED3E EQ PUSH2 0x27D JUMPI PUSH2 0xCD JUMP JUMPDEST DUP1 PUSH4 0x70A08231 EQ PUSH2 0x1A7 JUMPI DUP1 PUSH4 0x8DA5CB5B EQ PUSH2 0x1D7 JUMPI DUP1 PUSH4 0x95D89B41 EQ PUSH2 0x1F5 JUMPI PUSH2 0xCD JUMP JUMPDEST DUP1 PUSH4 0x6FDDE03 EQ PUSH2 0xD1 JUMPI DUP1 PUSH4 0x95EA7B3 EQ PUSH2 0xEF JUMPI DUP1 PUSH4 0x18160DDD EQ PUSH2 0x11F JUMPI DUP1 PUSH4 0x23B872DD EQ PUSH2 0x13D JUMPI DUP1 PUSH4 0x313CE567 EQ PUSH2 0x16D JUMPI DUP1 PUSH4 0x40C10F19 EQ PUSH2 0x18B JUMPI JUMPDEST PUSH0 DUP1 REVERT JUMPDEST PUSH2 0xD9 PUSH2 0x2AD JUMP JUMPDEST PUSH1 0x40 MLOAD PUSH2 0xE6 SWAP2 SWAP1 PUSH2 0xCDD JUMP JUMPDEST PUSH1 0x40 MLOAD DUP1 SWAP2 SUB SWAP1 RETURN JUMPDEST PUSH2 0x109 PUSH1 0x4 DUP1 CALLDATASIZE SUB DUP2 ADD SWAP1 PUSH2 0x104 SWAP2 SWAP1 PUSH2 0xD8E JUMP JUMPDEST PUSH2 0x338 JUMP JUMPDEST PUSH1 0x40 MLOAD PUSH2 0x116 SWAP2 SWAP1 PUSH2 0xDE6 JUMP JUMPDEST PUSH1 0x40 MLOAD DUP1 SWAP2 SUB SWAP1 RETURN JUMPDEST PUSH2 0x127 PUSH2 0x425 JUMP JUMPDEST PUSH1 0x40 MLOAD PUSH2 0x134 SWAP2 SWAP1 PUSH2 0xE0E JUMP JUMPDEST PUSH1 0x40 MLOAD DUP1 SWAP2 SUB SWAP1 RETURN JUMPDEST PUSH2 0x157 PUSH1 0x4 DUP1 CALLDATASIZE SUB DUP2 ADD SWAP1 PUSH2 0x152 SWAP2 SWAP1 PUSH2 0xE27 JUMP JUMPDEST PUSH2 0x42B JUMP JUMPDEST PUSH1 0x40 MLOAD PUSH2 0x164 SWAP2 SWAP1 PUSH2 0xDE6 JUMP JUMPDEST PUSH1 0x40 MLOAD DUP1 SWAP2 SUB SWAP1 RETURN JUMPDEST PUSH2 0x175 PUSH2 0x666 JUMP JUMPDEST PUSH1 0x40 MLOAD PUSH2 0x182 SWAP2 SWAP1 PUSH2 0xE92 JUMP JUMPDEST PUSH1 0x40 MLOAD DUP1 SWAP2 SUB SWAP1 RETURN JUMPDEST PUSH2 0x1A5 PUSH1 0x4 DUP1 CALLDATASIZE SUB DUP2 ADD SWAP1 PUSH2 0x1A0 SWAP2 SWAP1 PUSH2 0xD8E JUMP JUMPDEST PUSH2 0x68A JUMP JUMPDEST STOP JUMPDEST PUSH2 0x1C1 PUSH1 0x4 DUP1 CALLDATASIZE SUB DUP2 ADD SWAP1 PUSH2 0x1BC SWAP2 SWAP1 PUSH2 0xEAB JUMP JUMPDEST PUSH2 0x727 JUMP JUMPDEST PUSH1 0x40 MLOAD PUSH2 0x1CE SWAP2 SWAP1 PUSH2 0xE0E JUMP JUMPDEST PUSH1 0x40 MLOAD DUP1 SWAP2 SUB SWAP1 RETURN JUMPDEST PUSH2 0x1DF PUSH2 0x73C JUMP JUMPDEST PUSH1 0x40 MLOAD PUSH2 0x1EC SWAP2 SWAP1 PUSH2 0xEE5 JUMP JUMPDEST PUSH1 0x40 MLOAD DUP1 SWAP2 SUB SWAP1 RETURN JUMPDEST PUSH2 0x1FD PUSH2 0x761 JUMP JUMPDEST PUSH1 0x40 MLOAD PUSH2 0x20A SWAP2 SWAP1 PUSH2 0xCDD JUMP JUMPDEST PUSH1 0x40 MLOAD DUP1 SWAP2 SUB SWAP1 RETURN JUMPDEST PUSH2 0x22D PUSH1 0x4 DUP1 CALLDATASIZE SUB DUP2 ADD SWAP1 PUSH2 0x228 SWAP2 SWAP1 PUSH2 0xD8E JUMP JUMPDEST PUSH2 0x7ED JUMP JUMPDEST STOP JUMPDEST PUSH2 0x249 PUSH1 0x4 DUP1 CALLDATASIZE SUB DUP2 ADD SWAP1 PUSH2 0x244 SWAP2 SWAP1 PUSH2 0xD8E JUMP JUMPDEST PUSH2 0x88A JUMP JUMPDEST PUSH1 0x40 MLOAD PUSH2 0x256 SWAP2 SWAP1 PUSH2 0xDE6 JUMP JUMPDEST PUSH1 0x40 MLOAD DUP1 SWAP2 SUB SWAP1 RETURN JUMPDEST PUSH2 0x267 PUSH2 0x92D JUMP JUMPDEST PUSH1 0x40 MLOAD PUSH2 0x274 SWAP2 SWAP1 PUSH2 0xEE5 JUMP JUMPDEST PUSH1 0x40 MLOAD DUP1 SWAP2 SUB SWAP1 RETURN JUMPDEST PUSH2 0x297 PUSH1 0x4 DUP1 CALLDATASIZE SUB DUP2 ADD SWAP1 PUSH2 0x292 SWAP2 SWAP1 PUSH2 0xEFE JUMP JUMPDEST PUSH2 0x952 JUMP JUMPDEST PUSH1 0x40 MLOAD PUSH2 0x2A4 SWAP2 SWAP1 PUSH2 0xE0E JUMP JUMPDEST PUSH1 0x40 MLOAD DUP1 SWAP2 SUB SWAP1 RETURN JUMPDEST PUSH0 DUP1 SLOAD PUSH2 0x2B9 SWAP1 PUSH2 0xF69 JUMP JUMPDEST DUP1 PUSH1 0x1F ADD PUSH1 0x20 DUP1 SWAP2 DIV MUL PUSH1 0x20 ADD PUSH1 0x40 MLOAD SWAP1 DUP2 ADD PUSH1 0x40 MSTORE DUP1 SWAP3 SWAP2 SWAP1 DUP2 DUP2 MSTORE PUSH1 0x20 ADD DUP3 DUP1 SLOAD PUSH2 0x2E5 SWAP1 PUSH2 0xF69 JUMP JUMPDEST DUP1 ISZERO PUSH2 0x330 JUMPI DUP1 PUSH1 0x1F LT PUSH2 0x307 JUMPI PUSH2 0x100 DUP1 DUP4 SLOAD DIV MUL DUP4 MSTORE SWAP2 PUSH1 0x20 ADD SWAP2 PUSH2 0x330 JUMP JUMPDEST DUP3 ADD SWAP2 SWAP1 PUSH0 MSTORE PUSH1 0x20 PUSH0 KECCAK256 SWAP1 JUMPDEST DUP2 SLOAD DUP2 MSTORE SWAP1 PUSH1 0x1 ADD SWAP1 PUSH1 0x20 ADD DUP1 DUP4 GT PUSH2 0x313 JUMPI DUP3 SWAP1 SUB PUSH1 0x1F AND DUP3 ADD SWAP2 JUMPDEST POP POP POP POP POP DUP2 JUMP JUMPDEST PUSH0 DUP2 PUSH1 0x5 PUSH0 CALLER PUSH20 0xFFFFFFFFFFFFFFFFFFFFFFFFFFFFFFFFFFFFFFFF AND PUSH20 0xFFFFFFFFFFFFFFFFFFFFFFFFFFFFFFFFFFFFFFFF AND DUP2 MSTORE PUSH1 0x20 ADD SWAP1 DUP2 MSTORE PUSH1 0x20 ADD PUSH0 KECCAK256 PUSH0 DUP6 PUSH20 0xFFFFFFFFFFFFFFFFFFFFFFFFFFFFFFFFFFFFFFFF AND PUSH20 0xFFFFFFFFFFFFFFFFFFFFFFFFFFFFFFFFFFFFFFFF AND DUP2 MSTORE PUSH1 0x20 ADD SWAP1 DUP2 MSTORE PUSH1 0x20 ADD PUSH0 KECCAK256 DUP2 SWAP1 SSTORE POP DUP3 PUSH20 0xFFFFFFFFFFFFFFFFFFFFFFFFFFFFFFFFFFFFFFFF AND CALLER PUSH20 0xFFFFFFFFFFFFFFFFFFFFFFFFFFFFFFFFFFFFFFFF AND PUSH32 0x8C5BE1E5EBEC7D5BD14F71427D1E84F3DD0314C0F7B2291E5B200AC8C7C3B925 DUP5 PUSH1 0x40 MLOAD PUSH2 0x413 SWAP2 SWAP1 PUSH2 0xE0E JUMP JUMPDEST PUSH1 0x40 MLOAD DUP1 SWAP2 SUB SWAP1 LOG3 PUSH1 0x1 SWAP1 POP SWAP3 SWAP2 POP POP JUMP JUMPDEST PUSH1 0x2 SLOAD DUP2 JUMP JUMPDEST PUSH0 DUP2 PUSH1 0x5 PUSH0 DUP7 PUSH20 0xFFFFFFFFFFFFFFFFFFFFFFFFFFFFFFFFFFFFFFFF AND PUSH20 0xFFFFFFFFFFFFFFFFFFFFFFFFFFFFFFFFFFFFFFFF AND DUP2 MSTORE PUSH1 0x20 ADD SWAP1 DUP2 MSTORE PUSH1 0x20 ADD PUSH0 KECCAK256 PUSH0 CALLER PUSH20 0xFFFFFFFFFFFFFFFFFFFFFFFFFFFFFFFFFFFFFFFF AND PUSH20 0xFFFFFFFFFFFFFFFFFFFFFFFFFFFFFFFFFFFFFFFF AND DUP2 MSTORE PUSH1 0x20 ADD SWAP1 DUP2 MSTORE PUSH1 0x20 ADD PUSH0 KECCAK256 SLOAD LT ISZERO PUSH2 0x4E7 JUMPI PUSH1 0x40 MLOAD PUSH32 0x8C379A000000000000000000000000000000000000000000000000000000000 DUP2 MSTORE PUSH1 0x4 ADD PUSH2 0x4DE SWAP1 PUSH2 0xFE3 JUMP JUMPDEST PUSH1 0x40 MLOAD DUP1 SWAP2 SUB SWAP1 REVERT JUMPDEST DUP2 PUSH1 0x5 PUSH0 DUP7 PUSH20 0xFFFFFFFFFFFFFFFFFFFFFFFFFFFFFFFFFFFFFFFF AND PUSH20 0xFFFFFFFFFFFFFFFFFFFFFFFFFFFFFFFFFFFFFFFF AND DUP2 MSTORE PUSH1 0x20 ADD SWAP1 DUP2 MSTORE PUSH1 0x20 ADD PUSH0 KECCAK256 PUSH0 CALLER PUSH20 0xFFFFFFFFFFFFFFFFFFFFFFFFFFFFFFFFFFFFFFFF AND PUSH20 0xFFFFFFFFFFFFFFFFFFFFFFFFFFFFFFFFFFFFFFFF AND DUP2 MSTORE PUSH1 0x20 ADD SWAP1 DUP2 MSTORE PUSH1 0x20 ADD PUSH0 KECCAK256 PUSH0 DUP3 DUP3 SLOAD PUSH2 0x56E SWAP2 SWAP1 PUSH2 0x102E JUMP JUMPDEST SWAP3 POP POP DUP2 SWAP1 SSTORE POP CALLER PUSH20 0xFFFFFFFFFFFFFFFFFFFFFFFFFFFFFFFFFFFFFFFF AND DUP5 PUSH20 0xFFFFFFFFFFFFFFFFFFFFFFFFFFFFFFFFFFFFFFFF AND PUSH32 0x8C5BE1E5EBEC7D5BD14F71427D1E84F3DD0314C0F7B2291E5B200AC8C7C3B925 PUSH1 0x5 PUSH0 DUP9 PUSH20 0xFFFFFFFFFFFFFFFFFFFFFFFFFFFFFFFFFFFFFFFF AND PUSH20 0xFFFFFFFFFFFFFFFFFFFFFFFFFFFFFFFFFFFFFFFF AND DUP2 MSTORE PUSH1 0x20 ADD SWAP1 DUP2 MSTORE PUSH1 0x20 ADD PUSH0 KECCAK256 PUSH0 CALLER PUSH20 0xFFFFFFFFFFFFFFFFFFFFFFFFFFFFFFFFFFFFFFFF AND PUSH20 0xFFFFFFFFFFFFFFFFFFFFFFFFFFFFFFFFFFFFFFFF AND DUP2 MSTORE PUSH1 0x20 ADD SWAP1 DUP2 MSTORE PUSH1 0x20 ADD PUSH0 KECCAK256 SLOAD PUSH1 0x40 MLOAD PUSH2 0x64A SWAP2 SWAP1 PUSH2 0xE0E JUMP JUMPDEST PUSH1 0x40 MLOAD DUP1 SWAP2 SUB SWAP1 LOG3 PUSH2 0x65D DUP5 DUP5 DUP5 PUSH2 0x972 JUMP JUMPDEST SWAP1 POP SWAP4 SWAP3 POP POP POP JUMP JUMPDEST PUSH32 0x0 DUP2 JUMP JUMPDEST PUSH1 0x3 PUSH0 SWAP1 SLOAD SWAP1 PUSH2 0x100 EXP SWAP1 DIV PUSH20 0xFFFFFFFFFFFFFFFFFFFFFFFFFFFFFFFFFFFFFFFF AND PUSH20 0xFFFFFFFFFFFFFFFFFFFFFFFFFFFFFFFFFFFFFFFF AND CALLER PUSH20 0xFFFFFFFFFFFFFFFFFFFFFFFFFFFFFFFFFFFFFFFF AND EQ PUSH2 0x719 JUMPI PUSH1 0x40 MLOAD PUSH32 0x8C379A000000000000000000000000000000000000000000000000000000000 DUP2 MSTORE PUSH1 0x4 ADD PUSH2 0x710 SWAP1 PUSH2 0x10AB JUMP JUMPDEST PUSH1 0x40 MLOAD DUP1 SWAP2 SUB SWAP1 REVERT JUMPDEST PUSH2 0x723 DUP3 DUP3 PUSH2 0xB09 JUMP JUMPDEST POP POP JUMP JUMPDEST PUSH1 0x4 PUSH1 0x20 MSTORE DUP1 PUSH0 MSTORE PUSH1 0x40 PUSH0 KECCAK256 PUSH0 SWAP2 POP SWAP1 POP SLOAD DUP2 JUMP JUMPDEST PUSH1 0x3 PUSH0 SWAP1 SLOAD SWAP1 PUSH2 0x100 EXP SWAP1 DIV PUSH20 0xFFFFFFFFFFFFFFFFFFFFFFFFFFFFFFFFFFFFFFFF AND DUP2 JUMP JUMPDEST PUSH1 0x1 DUP1 SLOAD PUSH2 0x76E SWAP1 PUSH2 0xF69 JUMP JUMPDEST DUP1 PUSH1 0x1F ADD PUSH1 0x20 DUP1 SWAP2 DIV MUL PUSH1 0x20 ADD PUSH1 0x40 MLOAD SWAP1 DUP2 ADD PUSH1 0x40 MSTORE DUP1 SWAP3 SWAP2 SWAP1 DUP2 DUP2 MSTORE PUSH1 0x20 ADD DUP3 DUP1 SLOAD PUSH2 0x79A SWAP1 PUSH2 0xF69 JUMP JUMPDEST DUP1 ISZERO PUSH2 0x7E5 JUMPI DUP1 PUSH1 0x1F LT PUSH2 0x7BC JUMPI PUSH2 0x100 DUP1 DUP4 SLOAD DIV MUL DUP4 MSTORE SWAP2 PUSH1 0x20 ADD SWAP2 PUSH2 0x7E5 JUMP JUMPDEST DUP3 ADD SWAP2 SWAP1 PUSH0 MSTORE PUSH1 0x20 PUSH0 KECCAK256 SWAP1 JUMPDEST DUP2 SLOAD DUP2 MSTORE SWAP1 PUSH1 0x1 ADD SWAP1 PUSH1 0x20 ADD DUP1 DUP4 GT PUSH2 0x7C8 JUMPI DUP3 SWAP1 SUB PUSH1 0x1F AND DUP3 ADD SWAP2 JUMPDEST POP POP POP POP POP DUP2 JUMP JUMPDEST PUSH1 0x3 PUSH0 SWAP1 SLOAD SWAP1 PUSH2 0x100 EXP SWAP1 DIV PUSH20 0xFFFFFFFFFFFFFFFFFFFFFFFFFFFFFFFFFFFFFFFF AND PUSH20 0xFFFFFFFFFFFFFFFFFFFFFFFFFFFFFFFFFFFFFFFF AND CALLER PUSH20 0xFFFFFFFFFFFFFFFFFFFFFFFFFFFFFFFFFFFFFFFF AND EQ PUSH2 0x87C JUMPI PUSH1 0x40 MLOAD PUSH32 0x8C379A000000000000000000000000000000000000000000000000000000000 DUP2 MSTORE PUSH1 0x4 ADD PUSH2 0x873 SWAP1 PUSH2 0x10AB JUMP JUMPDEST PUSH1 0x40 MLOAD DUP1 SWAP2 SUB SWAP1 REVERT JUMPDEST PUSH2 0x886 DUP3 DUP3 PUSH2 0xBDD JUMP JUMPDEST POP POP JUMP JUMPDEST PUSH0 DUP1 DUP3 GT PUSH2 0x8CD JUMPI PUSH1 0x40 MLOAD PUSH32 0x8C379A000000000000000000000000000000000000000000000000000000000 DUP2 MSTORE PUSH1 0x4 ADD PUSH2 0x8C4 SWAP1 PUSH2 0x1113 JUMP JUMPDEST PUSH1 0x40 MLOAD DUP1 SWAP2 SUB SWAP1 REVERT JUMPDEST PUSH0 PUSH2 0x8D7 DUP4 PUSH2 0xC4C JUMP JUMPDEST SWAP1 POP PUSH0 DUP2 DUP5 PUSH2 0x8E6 SWAP2 SWAP1 PUSH2 0x102E JUMP JUMPDEST SWAP1 POP PUSH2 0x914 CALLER PUSH1 0x6 PUSH0 SWAP1 SLOAD SWAP1 PUSH2 0x100 EXP SWAP1 DIV PUSH20 0xFFFFFFFFFFFFFFFFFFFFFFFFFFFFFFFFFFFFFFFF AND DUP5 PUSH2 0x972 JUMP JUMPDEST POP PUSH2 0x920 CALLER DUP7 DUP4 PUSH2 0x972 JUMP JUMPDEST POP PUSH1 0x1 SWAP3 POP POP POP SWAP3 SWAP2 POP POP JUMP JUMPDEST PUSH1 0x6 PUSH0 SWAP1 SLOAD SWAP1 PUSH2 0x100 EXP SWAP1 DIV PUSH20 0xFFFFFFFFFFFFFFFFFFFFFFFFFFFFFFFFFFFFFFFF AND DUP2 JUMP JUMPDEST PUSH1 0x5 PUSH1 0x20 MSTORE DUP2 PUSH0 MSTORE PUSH1 0x40 PUSH0 KECCAK256 PUSH1 0x20 MSTORE DUP1 PUSH0 MSTORE PUSH1 0x40 PUSH0 KECCAK256 PUSH0 SWAP2 POP SWAP2 POP POP SLOAD DUP2 JUMP JUMPDEST PUSH0 DUP2 PUSH1 0x4 PUSH0 DUP7 PUSH20 0xFFFFFFFFFFFFFFFFFFFFFFFFFFFFFFFFFFFFFFFF AND PUSH20 0xFFFFFFFFFFFFFFFFFFFFFFFFFFFFFFFFFFFFFFFF AND DUP2 MSTORE PUSH1 0x20 ADD SWAP1 DUP2 MSTORE PUSH1 0x20 ADD PUSH0 KECCAK256 SLOAD LT ISZERO PUSH2 0x9F3 JUMPI PUSH1 0x40 MLOAD PUSH32 0x8C379A000000000000000000000000000000000000000000000000000000000 DUP2 MSTORE PUSH1 0x4 ADD PUSH2 0x9EA SWAP1 PUSH2 0x11A1 JUMP JUMPDEST PUSH1 0x40 MLOAD DUP1 SWAP2 SUB SWAP1 REVERT JUMPDEST DUP2 PUSH1 0x4 PUSH0 DUP7 PUSH20 0xFFFFFFFFFFFFFFFFFFFFFFFFFFFFFFFFFFFFFFFF AND PUSH20 0xFFFFFFFFFFFFFFFFFFFFFFFFFFFFFFFFFFFFFFFF AND DUP2 MSTORE PUSH1 0x20 ADD SWAP1 DUP2 MSTORE PUSH1 0x20 ADD PUSH0 KECCAK256 PUSH0 DUP3 DUP3 SLOAD PUSH2 0xA3F SWAP2 SWAP1 PUSH2 0x102E JUMP JUMPDEST SWAP3 POP POP DUP2 SWAP1 SSTORE POP DUP2 PUSH1 0x4 PUSH0 DUP6 PUSH20 0xFFFFFFFFFFFFFFFFFFFFFFFFFFFFFFFFFFFFFFFF AND PUSH20 0xFFFFFFFFFFFFFFFFFFFFFFFFFFFFFFFFFFFFFFFF AND DUP2 MSTORE PUSH1 0x20 ADD SWAP1 DUP2 MSTORE PUSH1 0x20 ADD PUSH0 KECCAK256 PUSH0 DUP3 DUP3 SLOAD PUSH2 0xA92 SWAP2 SWAP1 PUSH2 0x11BF JUMP JUMPDEST SWAP3 POP POP DUP2 SWAP1 SSTORE POP DUP3 PUSH20 0xFFFFFFFFFFFFFFFFFFFFFFFFFFFFFFFFFFFFFFFF AND DUP5 PUSH20 0xFFFFFFFFFFFFFFFFFFFFFFFFFFFFFFFFFFFFFFFF AND PUSH32 0xDDF252AD1BE2C89B69C2B068FC378DAA952BA7F163C4A11628F55A4DF523B3EF DUP5 PUSH1 0x40 MLOAD PUSH2 0xAF6 SWAP2 SWAP1 PUSH2 0xE0E JUMP JUMPDEST PUSH1 0x40 MLOAD DUP1 SWAP2 SUB SWAP1 LOG3 PUSH1 0x1 SWAP1 POP SWAP4 SWAP3 POP POP POP JUMP JUMPDEST DUP1 PUSH1 0x4 PUSH0 DUP5 PUSH20 0xFFFFFFFFFFFFFFFFFFFFFFFFFFFFFFFFFFFFFFFF AND PUSH20 0xFFFFFFFFFFFFFFFFFFFFFFFFFFFFFFFFFFFFFFFF AND DUP2 MSTORE PUSH1 0x20 ADD SWAP1 DUP2 MSTORE PUSH1 0x20 ADD PUSH0 KECCAK256 PUSH0 DUP3 DUP3 SLOAD PUSH2 0xB55 SWAP2 SWAP1 PUSH2 0x11BF JUMP JUMPDEST SWAP3 POP POP DUP2 SWAP1 SSTORE POP DUP1 PUSH1 0x2 PUSH0 DUP3 DUP3 SLOAD PUSH2 0xB6D SWAP2 SWAP1 PUSH2 0x11BF JUMP JUMPDEST SWAP3 POP POP DUP2 SWAP1 SSTORE POP DUP2 PUSH20 0xFFFFFFFFFFFFFFFFFFFFFFFFFFFFFFFFFFFFFFFF AND PUSH0 PUSH20 0xFFFFFFFFFFFFFFFFFFFFFFFFFFFFFFFFFFFFFFFF AND PUSH32 0xDDF252AD1BE2C89B69C2B068FC378DAA952BA7F163C4A11628F55A4DF523B3EF DUP4 PUSH1 0x40 MLOAD PUSH2 0xBD1 SWAP2 SWAP1 PUSH2 0xE0E JUMP JUMPDEST PUSH1 0x40 MLOAD DUP1 SWAP2 SUB SWAP1 LOG3 POP POP JUMP JUMPDEST DUP1 PUSH1 0x4 PUSH0 DUP5 PUSH20 0xFFFFFFFFFFFFFFFFFFFFFFFFFFFFFFFFFFFFFFFF AND PUSH20 0xFFFFFFFFFFFFFFFFFFFFFFFFFFFFFFFFFFFFFFFF AND DUP2 MSTORE PUSH1 0x20 ADD SWAP1 DUP2 MSTORE PUSH1 0x20 ADD PUSH0 KECCAK256 PUSH0 DUP3 DUP3 SLOAD PUSH2 0xC29 SWAP2 SWAP1 PUSH2 0x102E JUMP JUMPDEST SWAP3 POP POP DUP2 SWAP1 SSTORE POP DUP1 PUSH1 0x2 PUSH0 DUP3 DUP3 SLOAD PUSH2 0xC41 SWAP2 SWAP1 PUSH2 0x102E JUMP JUMPDEST SWAP3 POP POP DUP2 SWAP1 SSTORE POP POP POP JUMP JUMPDEST PUSH0 PUSH1 0x64 PUSH1 0x1 DUP4 PUSH2 0xC5C SWAP2 SWAP1 PUSH2 0x11F2 JUMP JUMPDEST PUSH2 0xC66 SWAP2 SWAP1 PUSH2 0x1260 JUMP JUMPDEST SWAP1 POP SWAP2 SWAP1 POP JUMP JUMPDEST PUSH0 DUP2 MLOAD SWAP1 POP SWAP2 SWAP1 POP JUMP JUMPDEST PUSH0 DUP3 DUP3 MSTORE PUSH1 0x20 DUP3 ADD SWAP1 POP SWAP3 SWAP2 POP POP JUMP JUMPDEST DUP3 DUP2 DUP4 MCOPY PUSH0 DUP4 DUP4 ADD MSTORE POP POP POP JUMP JUMPDEST PUSH0 PUSH1 0x1F NOT PUSH1 0x1F DUP4 ADD AND SWAP1 POP SWAP2 SWAP1 POP JUMP JUMPDEST PUSH0 PUSH2 0xCAF DUP3 PUSH2 0xC6D JUMP JUMPDEST PUSH2 0xCB9 DUP2 DUP6 PUSH2 0xC77 JUMP JUMPDEST SWAP4 POP PUSH2 0xCC9 DUP2 DUP6 PUSH1 0x20 DUP7 ADD PUSH2 0xC87 JUMP JUMPDEST PUSH2 0xCD2 DUP2 PUSH2 0xC95 JUMP JUMPDEST DUP5 ADD SWAP2 POP POP SWAP3 SWAP2 POP POP JUMP JUMPDEST PUSH0 PUSH1 0x20 DUP3 ADD SWAP1 POP DUP2 DUP2 SUB PUSH0 DUP4 ADD MSTORE PUSH2 0xCF5 DUP2 DUP5 PUSH2 0xCA5 JUMP JUMPDEST SWAP1 POP SWAP3 SWAP2 POP POP JUMP JUMPDEST PUSH0 DUP1 REVERT JUMPDEST PUSH0 PUSH20 0xFFFFFFFFFFFFFFFFFFFFFFFFFFFFFFFFFFFFFFFF DUP3 AND SWAP1 POP SWAP2 SWAP1 POP JUMP JUMPDEST PUSH0 PUSH2 0xD2A DUP3 PUSH2 0xD01 JUMP JUMPDEST SWAP1 POP SWAP2 SWAP1 POP JUMP JUMPDEST PUSH2 0xD3A DUP2 PUSH2 0xD20 JUMP JUMPDEST DUP2 EQ PUSH2 0xD44 JUMPI PUSH0 DUP1 REVERT JUMPDEST POP JUMP JUMPDEST PUSH0 DUP2 CALLDATALOAD SWAP1 POP PUSH2 0xD55 DUP2 PUSH2 0xD31 JUMP JUMPDEST SWAP3 SWAP2 POP POP JUMP JUMPDEST PUSH0 DUP2 SWAP1 POP SWAP2 SWAP1 POP JUMP JUMPDEST PUSH2 0xD6D DUP2 PUSH2 0xD5B JUMP JUMPDEST DUP2 EQ PUSH2 0xD77 JUMPI PUSH0 DUP1 REVERT JUMPDEST POP JUMP JUMPDEST PUSH0 DUP2 CALLDATALOAD SWAP1 POP PUSH2 0xD88 DUP2 PUSH2 0xD64 JUMP JUMPDEST SWAP3 SWAP2 POP POP JUMP JUMPDEST PUSH0 DUP1 PUSH1 0x40 DUP4 DUP6 SUB SLT ISZERO PUSH2 0xDA4 JUMPI PUSH2 0xDA3 PUSH2 0xCFD JUMP JUMPDEST JUMPDEST PUSH0 PUSH2 0xDB1 DUP6 DUP3 DUP7 ADD PUSH2 0xD47 JUMP JUMPDEST SWAP3 POP POP PUSH1 0x20 PUSH2 0xDC2 DUP6 DUP3 DUP7 ADD PUSH2 0xD7A JUMP JUMPDEST SWAP2 POP POP SWAP3 POP SWAP3 SWAP1 POP JUMP JUMPDEST PUSH0 DUP2 ISZERO ISZERO SWAP1 POP SWAP2 SWAP1 POP JUMP JUMPDEST PUSH2 0xDE0 DUP2 PUSH2 0xDCC JUMP JUMPDEST DUP3 MSTORE POP POP JUMP JUMPDEST PUSH0 PUSH1 0x20 DUP3 ADD SWAP1 POP PUSH2 0xDF9 PUSH0 DUP4 ADD DUP5 PUSH2 0xDD7 JUMP JUMPDEST SWAP3 SWAP2 POP POP JUMP JUMPDEST PUSH2 0xE08 DUP2 PUSH2 0xD5B JUMP JUMPDEST DUP3 MSTORE POP POP JUMP JUMPDEST PUSH0 PUSH1 0x20 DUP3 ADD SWAP1 POP PUSH2 0xE21 PUSH0 DUP4 ADD DUP5 PUSH2 0xDFF JUMP JUMPDEST SWAP3 SWAP2 POP POP JUMP JUMPDEST PUSH0 DUP1 PUSH0 PUSH1 0x60 DUP5 DUP7 SUB SLT ISZERO PUSH2 0xE3E JUMPI PUSH2 0xE3D PUSH2 0xCFD JUMP JUMPDEST JUMPDEST PUSH0 PUSH2 0xE4B DUP7 DUP3 DUP8 ADD PUSH2 0xD47 JUMP JUMPDEST SWAP4 POP POP PUSH1 0x20 PUSH2 0xE5C DUP7 DUP3 DUP8 ADD PUSH2 0xD47 JUMP JUMPDEST SWAP3 POP POP PUSH1 0x40 PUSH2 0xE6D DUP7 DUP3 DUP8 ADD PUSH2 0xD7A JUMP JUMPDEST SWAP2 POP POP SWAP3 POP SWAP3 POP SWAP3 JUMP JUMPDEST PUSH0 PUSH1 0xFF DUP3 AND SWAP1 POP SWAP2 SWAP1 POP JUMP JUMPDEST PUSH2 0xE8C DUP2 PUSH2 0xE77 JUMP JUMPDEST DUP3 MSTORE POP POP JUMP JUMPDEST PUSH0 PUSH1 0x20 DUP3 ADD SWAP1 POP PUSH2 0xEA5 PUSH0 DUP4 ADD DUP5 PUSH2 0xE83 JUMP JUMPDEST SWAP3 SWAP2 POP POP JUMP JUMPDEST PUSH0 PUSH1 0x20 DUP3 DUP5 SUB SLT ISZERO PUSH2 0xEC0 JUMPI PUSH2 0xEBF PUSH2 0xCFD JUMP JUMPDEST JUMPDEST PUSH0 PUSH2 0xECD DUP5 DUP3 DUP6 ADD PUSH2 0xD47 JUMP JUMPDEST SWAP2 POP POP SWAP3 SWAP2 POP POP JUMP JUMPDEST PUSH2 0xEDF DUP2 PUSH2 0xD20 JUMP JUMPDEST DUP3 MSTORE POP POP JUMP JUMPDEST PUSH0 PUSH1 0x20 DUP3 ADD SWAP1 POP PUSH2 0xEF8 PUSH0 DUP4 ADD DUP5 PUSH2 0xED6 JUMP JUMPDEST SWAP3 SWAP2 POP POP JUMP JUMPDEST PUSH0 DUP1 PUSH1 0x40 DUP4 DUP6 SUB SLT ISZERO PUSH2 0xF14 JUMPI PUSH2 0xF13 PUSH2 0xCFD JUMP JUMPDEST JUMPDEST PUSH0 PUSH2 0xF21 DUP6 DUP3 DUP7 ADD PUSH2 0xD47 JUMP JUMPDEST SWAP3 POP POP PUSH1 0x20 PUSH2 0xF32 DUP6 DUP3 DUP7 ADD PUSH2 0xD47 JUMP JUMPDEST SWAP2 POP POP SWAP3 POP SWAP3 SWAP1 POP JUMP JUMPDEST PUSH32 0x4E487B7100000000000000000000000000000000000000000000000000000000 PUSH0 MSTORE PUSH1 0x22 PUSH1 0x4 MSTORE PUSH1 0x24 PUSH0 REVERT JUMPDEST PUSH0 PUSH1 0x2 DUP3 DIV SWAP1 POP PUSH1 0x1 DUP3 AND DUP1 PUSH2 0xF80 JUMPI PUSH1 0x7F DUP3 AND SWAP2 POP JUMPDEST PUSH1 0x20 DUP3 LT DUP2 SUB PUSH2 0xF93 JUMPI PUSH2 0xF92 PUSH2 0xF3C JUMP JUMPDEST JUMPDEST POP SWAP2 SWAP1 POP JUMP JUMPDEST PUSH32 0x45524332303A20496E73756666696369656E7420416C6C6F77616E6365000000 PUSH0 DUP3 ADD MSTORE POP JUMP JUMPDEST PUSH0 PUSH2 0xFCD PUSH1 0x1D DUP4 PUSH2 0xC77 JUMP JUMPDEST SWAP2 POP PUSH2 0xFD8 DUP3 PUSH2 0xF99 JUMP JUMPDEST PUSH1 0x20 DUP3 ADD SWAP1 POP SWAP2 SWAP1 POP JUMP JUMPDEST PUSH0 PUSH1 0x20 DUP3 ADD SWAP1 POP DUP2 DUP2 SUB PUSH0 DUP4 ADD MSTORE PUSH2 0xFFA DUP2 PUSH2 0xFC1 JUMP JUMPDEST SWAP1 POP SWAP2 SWAP1 POP JUMP JUMPDEST PUSH32 0x4E487B7100000000000000000000000000000000000000000000000000000000 PUSH0 MSTORE PUSH1 0x11 PUSH1 0x4 MSTORE PUSH1 0x24 PUSH0 REVERT JUMPDEST PUSH0 PUSH2 0x1038 DUP3 PUSH2 0xD5B JUMP JUMPDEST SWAP2 POP PUSH2 0x1043 DUP4 PUSH2 0xD5B JUMP JUMPDEST SWAP3 POP DUP3 DUP3 SUB SWAP1 POP DUP2 DUP2 GT ISZERO PUSH2 0x105B JUMPI PUSH2 0x105A PUSH2 0x1001 JUMP JUMPDEST JUMPDEST SWAP3 SWAP2 POP POP JUMP JUMPDEST PUSH32 0x4E6F74206F776E65720000000000000000000000000000000000000000000000 PUSH0 DUP3 ADD MSTORE POP JUMP JUMPDEST PUSH0 PUSH2 0x1095 PUSH1 0x9 DUP4 PUSH2 0xC77 JUMP JUMPDEST SWAP2 POP PUSH2 0x10A0 DUP3 PUSH2 0x1061 JUMP JUMPDEST PUSH1 0x20 DUP3 ADD SWAP1 POP SWAP2 SWAP1 POP JUMP JUMPDEST PUSH0 PUSH1 0x20 DUP3 ADD SWAP1 POP DUP2 DUP2 SUB PUSH0 DUP4 ADD MSTORE PUSH2 0x10C2 DUP2 PUSH2 0x1089 JUMP JUMPDEST SWAP1 POP SWAP2 SWAP1 POP JUMP JUMPDEST PUSH32 0x56616C7565206D7573742062652067726561746572207468616E203000000000 PUSH0 DUP3 ADD MSTORE POP JUMP JUMPDEST PUSH0 PUSH2 0x10FD PUSH1 0x1C DUP4 PUSH2 0xC77 JUMP JUMPDEST SWAP2 POP PUSH2 0x1108 DUP3 PUSH2 0x10C9 JUMP JUMPDEST PUSH1 0x20 DUP3 ADD SWAP1 POP SWAP2 SWAP1 POP JUMP JUMPDEST PUSH0 PUSH1 0x20 DUP3 ADD SWAP1 POP DUP2 DUP2 SUB PUSH0 DUP4 ADD MSTORE PUSH2 0x112A DUP2 PUSH2 0x10F1 JUMP JUMPDEST SWAP1 POP SWAP2 SWAP1 POP JUMP JUMPDEST PUSH32 0x45524332303A20496E73756666696369656E742073656E6465722062616C616E PUSH0 DUP3 ADD MSTORE PUSH32 0x6365000000000000000000000000000000000000000000000000000000000000 PUSH1 0x20 DUP3 ADD MSTORE POP JUMP JUMPDEST PUSH0 PUSH2 0x118B PUSH1 0x22 DUP4 PUSH2 0xC77 JUMP JUMPDEST SWAP2 POP PUSH2 0x1196 DUP3 PUSH2 0x1131 JUMP JUMPDEST PUSH1 0x40 DUP3 ADD SWAP1 POP SWAP2 SWAP1 POP JUMP JUMPDEST PUSH0 PUSH1 0x20 DUP3 ADD SWAP1 POP DUP2 DUP2 SUB PUSH0 DUP4 ADD MSTORE PUSH2 0x11B8 DUP2 PUSH2 0x117F JUMP JUMPDEST SWAP1 POP SWAP2 SWAP1 POP JUMP JUMPDEST PUSH0 PUSH2 0x11C9 DUP3 PUSH2 0xD5B JUMP JUMPDEST SWAP2 POP PUSH2 0x11D4 DUP4 PUSH2 0xD5B JUMP JUMPDEST SWAP3 POP DUP3 DUP3 ADD SWAP1 POP DUP1 DUP3 GT ISZERO PUSH2 0x11EC JUMPI PUSH2 0x11EB PUSH2 0x1001 JUMP JUMPDEST JUMPDEST SWAP3 SWAP2 POP POP JUMP JUMPDEST PUSH0 PUSH2 0x11FC DUP3 PUSH2 0xD5B JUMP JUMPDEST SWAP2 POP PUSH2 0x1207 DUP4 PUSH2 0xD5B JUMP JUMPDEST SWAP3 POP DUP3 DUP3 MUL PUSH2 0x1215 DUP2 PUSH2 0xD5B JUMP JUMPDEST SWAP2 POP DUP3 DUP3 DIV DUP5 EQ DUP4 ISZERO OR PUSH2 0x122C JUMPI PUSH2 0x122B PUSH2 0x1001 JUMP JUMPDEST JUMPDEST POP SWAP3 SWAP2 POP POP JUMP JUMPDEST PUSH32 0x4E487B7100000000000000000000000000000000000000000000000000000000 PUSH0 MSTORE PUSH1 0x12 PUSH1 0x4 MSTORE PUSH1 0x24 PUSH0 REVERT JUMPDEST PUSH0 PUSH2 0x126A DUP3 PUSH2 0xD5B JUMP JUMPDEST SWAP2 POP PUSH2 0x1275 DUP4 PUSH2 0xD5B JUMP JUMPDEST SWAP3 POP DUP3 PUSH2 0x1285 JUMPI PUSH2 0x1284 PUSH2 0x1233 JUMP JUMPDEST JUMPDEST DUP3 DUP3 DIV SWAP1 POP SWAP3 SWAP2 POP POP JUMP INVALID LOG2 PUSH5 0x6970667358 0x22 SLT KECCAK256 0xE5 0xA9 0x4E EQ CREATE SUB 0xA6 0xBB DUP4 0xD6 SWAP1 PUSH10 0xAA22D4B7012FB826DE5B SWAP7 0xB5 TIMESTAMP DUP8 0x27 0xAC 0xDA 0x26 LOG0 0xD0 PUSH5 0x736F6C6343 STOP ADDMOD BYTE STOP CALLER "
				},
				"gasEstimates": {
					"creation": {
						"codeDepositCost": "961200",
						"executionCost": "infinite",
						"totalCost": "infinite"
					},
					"external": {
						"allowance(address,address)": "infinite",
						"approve(address,uint256)": "infinite",
						"balanceOf(address)": "2825",
						"burn(address,uint256)": "infinite",
						"decimals()": "infinite",
						"feeCollector()": "2574",
						"mint(address,uint256)": "infinite",
						"name()": "infinite",
						"owner()": "2553",
						"symbol()": "infinite",
						"totalSupply()": "2470",
						"transfer(address,uint256)": "infinite",
						"transferFrom(address,address,uint256)": "infinite"
					},
					"internal": {
						"calculateFee(uint256)": "infinite"
					}
				},
				"methodIdentifiers": {
					"allowance(address,address)": "dd62ed3e",
					"approve(address,uint256)": "095ea7b3",
					"balanceOf(address)": "70a08231",
					"burn(address,uint256)": "9dc29fac",
					"decimals()": "313ce567",
					"feeCollector()": "c415b95c",
					"mint(address,uint256)": "40c10f19",
					"name()": "06fdde03",
					"owner()": "8da5cb5b",
					"symbol()": "95d89b41",
					"totalSupply()": "18160ddd",
					"transfer(address,uint256)": "a9059cbb",
					"transferFrom(address,address,uint256)": "23b872dd"
				}
			},
			"storageLayout": {
				"storage": [
					{
						"astId": 31,
						"contract": "Inheritance/ERC20WithFee.sol:ERC20WithFee",
						"label": "name",
						"offset": 0,
						"slot": "0",
						"type": "t_string_storage"
					},
					{
						"astId": 33,
						"contract": "Inheritance/ERC20WithFee.sol:ERC20WithFee",
						"label": "symbol",
						"offset": 0,
						"slot": "1",
						"type": "t_string_storage"
					},
					{
						"astId": 37,
						"contract": "Inheritance/ERC20WithFee.sol:ERC20WithFee",
						"label": "totalSupply",
						"offset": 0,
						"slot": "2",
						"type": "t_uint256"
					},
					{
						"astId": 39,
						"contract": "Inheritance/ERC20WithFee.sol:ERC20WithFee",
						"label": "owner",
						"offset": 0,
						"slot": "3",
						"type": "t_address"
					},
					{
						"astId": 43,
						"contract": "Inheritance/ERC20WithFee.sol:ERC20WithFee",
						"label": "balanceOf",
						"offset": 0,
						"slot": "4",
						"type": "t_mapping(t_address,t_uint256)"
					},
					{
						"astId": 49,
						"contract": "Inheritance/ERC20WithFee.sol:ERC20WithFee",
						"label": "allowance",
						"offset": 0,
						"slot": "5",
						"type": "t_mapping(t_address,t_mapping(t_address,t_uint256))"
					},
					{
						"astId": 298,
						"contract": "Inheritance/ERC20WithFee.sol:ERC20WithFee",
						"label": "feeCollector",
						"offset": 0,
						"slot": "6",
						"type": "t_address"
					}
				],
				"types": {
					"t_address": {
						"encoding": "inplace",
						"label": "address",
						"numberOfBytes": "20"
					},
					"t_mapping(t_address,t_mapping(t_address,t_uint256))": {
						"encoding": "mapping",
						"key": "t_address",
						"label": "mapping(address => mapping(address => uint256))",
						"numberOfBytes": "32",
						"value": "t_mapping(t_address,t_uint256)"
					},
					"t_mapping(t_address,t_uint256)": {
						"encoding": "mapping",
						"key": "t_address",
						"label": "mapping(address => uint256)",
						"numberOfBytes": "32",
						"value": "t_uint256"
					},
					"t_string_storage": {
						"encoding": "bytes",
						"label": "string",
						"numberOfBytes": "32"
					},
					"t_uint256": {
						"encoding": "inplace",
						"label": "uint256",
						"numberOfBytes": "32"
					}
				}
			},
			"userdoc": {
				"kind": "user",
				"methods": {},
				"version": 1
			}
		}
	}
}